{
  "contractName": "TrafficJamPrediction",
  "abi": [
    {
      "inputs": [],
      "stateMutability": "nonpayable",
      "type": "constructor"
    },
    {
      "anonymous": false,
      "inputs": [
        {
          "indexed": true,
          "internalType": "string",
          "name": "incidentHash",
          "type": "string"
        },
        {
          "indexed": false,
          "internalType": "address",
          "name": "user",
          "type": "address"
        }
      ],
      "name": "IncidentConfirm",
      "type": "event"
    },
    {
      "anonymous": false,
      "inputs": [
        {
          "indexed": true,
          "internalType": "string",
          "name": "incidentHash",
          "type": "string"
        },
        {
          "components": [
            {
              "internalType": "string",
              "name": "latitude",
              "type": "string"
            },
            {
              "internalType": "string",
              "name": "longitude",
              "type": "string"
            },
            {
              "internalType": "string",
              "name": "roadId",
              "type": "string"
            },
            {
              "internalType": "enum TrafficJamPrediction.RoadType",
              "name": "roadType",
              "type": "uint8"
            },
            {
              "internalType": "enum TrafficJamPrediction.RoadCondition",
              "name": "roadCondition",
              "type": "uint8"
            },
            {
              "internalType": "enum TrafficJamPrediction.RoadEvent",
              "name": "roadEvent",
              "type": "uint8"
            },
            {
              "internalType": "uint256",
              "name": "day",
              "type": "uint256"
            },
            {
              "internalType": "uint256",
              "name": "timeslot",
              "type": "uint256"
            },
            {
              "internalType": "uint256",
              "name": "duration",
              "type": "uint256"
            },
            {
              "internalType": "address",
              "name": "firstUser",
              "type": "address"
            },
            {
              "internalType": "uint256",
              "name": "confirmNumber",
              "type": "uint256"
            }
          ],
          "indexed": false,
          "internalType": "struct TrafficJamPrediction.Incident",
          "name": "incident",
          "type": "tuple"
        }
      ],
      "name": "IncidentShared",
      "type": "event"
    },
    {
      "inputs": [
        {
          "internalType": "address",
          "name": "",
          "type": "address"
        }
      ],
      "name": "accounts",
      "outputs": [
        {
          "internalType": "bool",
          "name": "",
          "type": "bool"
        }
      ],
      "stateMutability": "view",
      "type": "function",
      "constant": true
    },
    {
      "inputs": [
        {
          "internalType": "string",
          "name": "",
          "type": "string"
        },
        {
          "internalType": "address",
          "name": "",
          "type": "address"
        }
      ],
      "name": "incidentConfirm",
      "outputs": [
        {
          "internalType": "bool",
          "name": "",
          "type": "bool"
        }
      ],
      "stateMutability": "view",
      "type": "function",
      "constant": true
    },
    {
      "inputs": [],
      "name": "incidentCount",
      "outputs": [
        {
          "internalType": "uint256",
          "name": "",
          "type": "uint256"
        }
      ],
      "stateMutability": "view",
      "type": "function",
      "constant": true
    },
    {
      "inputs": [
        {
          "internalType": "string",
          "name": "",
          "type": "string"
        }
      ],
      "name": "incidentExist",
      "outputs": [
        {
          "internalType": "bool",
          "name": "",
          "type": "bool"
        }
      ],
      "stateMutability": "view",
      "type": "function",
      "constant": true
    },
    {
      "inputs": [
        {
          "internalType": "string",
          "name": "",
          "type": "string"
        }
      ],
      "name": "incidents",
      "outputs": [
        {
          "internalType": "string",
          "name": "latitude",
          "type": "string"
        },
        {
          "internalType": "string",
          "name": "longitude",
          "type": "string"
        },
        {
          "internalType": "string",
          "name": "roadId",
          "type": "string"
        },
        {
          "internalType": "enum TrafficJamPrediction.RoadType",
          "name": "roadType",
          "type": "uint8"
        },
        {
          "internalType": "enum TrafficJamPrediction.RoadCondition",
          "name": "roadCondition",
          "type": "uint8"
        },
        {
          "internalType": "enum TrafficJamPrediction.RoadEvent",
          "name": "roadEvent",
          "type": "uint8"
        },
        {
          "internalType": "uint256",
          "name": "day",
          "type": "uint256"
        },
        {
          "internalType": "uint256",
          "name": "timeslot",
          "type": "uint256"
        },
        {
          "internalType": "uint256",
          "name": "duration",
          "type": "uint256"
        },
        {
          "internalType": "address",
          "name": "firstUser",
          "type": "address"
        },
        {
          "internalType": "uint256",
          "name": "confirmNumber",
          "type": "uint256"
        }
      ],
      "stateMutability": "view",
      "type": "function",
      "constant": true
    },
    {
      "inputs": [],
      "name": "minimunTokenGetProbability",
      "outputs": [
        {
          "internalType": "uint256",
          "name": "",
          "type": "uint256"
        }
      ],
      "stateMutability": "view",
      "type": "function",
      "constant": true
    },
    {
      "inputs": [],
      "name": "tokenReward",
      "outputs": [
        {
          "internalType": "uint256",
          "name": "",
          "type": "uint256"
        }
      ],
      "stateMutability": "view",
      "type": "function",
      "constant": true
    },
    {
      "inputs": [],
      "name": "donate",
      "outputs": [],
      "stateMutability": "payable",
      "type": "function",
      "payable": true
    },
    {
      "inputs": [],
      "name": "createAccount",
      "outputs": [],
      "stateMutability": "nonpayable",
      "type": "function"
    },
    {
      "inputs": [
        {
          "internalType": "string",
          "name": "_latitude",
          "type": "string"
        },
        {
          "internalType": "string",
          "name": "_longitude",
          "type": "string"
        },
        {
          "internalType": "string",
          "name": "_roadId",
          "type": "string"
        },
        {
          "internalType": "enum TrafficJamPrediction.RoadType",
          "name": "_roadType",
          "type": "uint8"
        },
        {
          "internalType": "enum TrafficJamPrediction.RoadCondition",
          "name": "_roadCondition",
          "type": "uint8"
        },
        {
          "internalType": "enum TrafficJamPrediction.RoadEvent",
          "name": "_event",
          "type": "uint8"
        },
        {
          "internalType": "uint256",
          "name": "_timestamp",
          "type": "uint256"
        },
        {
          "internalType": "uint256",
          "name": "_duration",
          "type": "uint256"
        }
      ],
      "name": "shareIncident",
      "outputs": [
        {
          "components": [
            {
              "internalType": "string",
              "name": "latitude",
              "type": "string"
            },
            {
              "internalType": "string",
              "name": "longitude",
              "type": "string"
            },
            {
              "internalType": "string",
              "name": "roadId",
              "type": "string"
            },
            {
              "internalType": "enum TrafficJamPrediction.RoadType",
              "name": "roadType",
              "type": "uint8"
            },
            {
              "internalType": "enum TrafficJamPrediction.RoadCondition",
              "name": "roadCondition",
              "type": "uint8"
            },
            {
              "internalType": "enum TrafficJamPrediction.RoadEvent",
              "name": "roadEvent",
              "type": "uint8"
            },
            {
              "internalType": "uint256",
              "name": "day",
              "type": "uint256"
            },
            {
              "internalType": "uint256",
              "name": "timeslot",
              "type": "uint256"
            },
            {
              "internalType": "uint256",
              "name": "duration",
              "type": "uint256"
            },
            {
              "internalType": "address",
              "name": "firstUser",
              "type": "address"
            },
            {
              "internalType": "uint256",
              "name": "confirmNumber",
              "type": "uint256"
            }
          ],
          "internalType": "struct TrafficJamPrediction.Incident",
          "name": "incident",
          "type": "tuple"
        }
      ],
      "stateMutability": "payable",
      "type": "function",
      "payable": true
    },
    {
      "inputs": [
        {
          "internalType": "string",
          "name": "_roadId",
          "type": "string"
        },
        {
          "internalType": "uint256",
          "name": "_timestamp",
          "type": "uint256"
        }
      ],
      "name": "getTrafficJamIncident",
      "outputs": [
        {
          "components": [
            {
              "internalType": "string",
              "name": "latitude",
              "type": "string"
            },
            {
              "internalType": "string",
              "name": "longitude",
              "type": "string"
            },
            {
              "internalType": "string",
              "name": "roadId",
              "type": "string"
            },
            {
              "internalType": "enum TrafficJamPrediction.RoadType",
              "name": "roadType",
              "type": "uint8"
            },
            {
              "internalType": "enum TrafficJamPrediction.RoadCondition",
              "name": "roadCondition",
              "type": "uint8"
            },
            {
              "internalType": "enum TrafficJamPrediction.RoadEvent",
              "name": "roadEvent",
              "type": "uint8"
            },
            {
              "internalType": "uint256",
              "name": "day",
              "type": "uint256"
            },
            {
              "internalType": "uint256",
              "name": "timeslot",
              "type": "uint256"
            },
            {
              "internalType": "uint256",
              "name": "duration",
              "type": "uint256"
            },
            {
              "internalType": "address",
              "name": "firstUser",
              "type": "address"
            },
            {
              "internalType": "uint256",
              "name": "confirmNumber",
              "type": "uint256"
            }
          ],
          "internalType": "struct TrafficJamPrediction.Incident",
          "name": "incident",
          "type": "tuple"
        }
      ],
      "stateMutability": "payable",
      "type": "function",
      "payable": true
    }
  ],
  "bytecode": "0x608060405234801561001057600080fd5b506000600481905550671bc16d674ec80000600581905550670de0b6b3a7640000600681905550612f35806100466000396000f3fe60806040526004361061009c5760003560e01c8063990ad2a011610064578063990ad2a0146101a15780639dca362f146101e8578063a09b86ac146101ff578063b5ade3341461022a578063ed88c68e1461025a578063f91e9498146102645761009c565b80631f24e366146100a15780634b20d4eb146100cc5780635e5c06e2146100fc5780636e66f6e9146101395780639448db7a14610164575b600080fd5b3480156100ad57600080fd5b506100b66102a1565b6040516100c39190611c60565b60405180910390f35b6100e660048036038101906100e19190611e01565b6102a7565b6040516100f39190612130565b60405180910390f35b34801561010857600080fd5b50610123600480360381019061011e919061217e565b6106d6565b60405161013091906121c6565b60405180910390f35b34801561014557600080fd5b5061014e6106f6565b60405161015b9190611c60565b60405180910390f35b34801561017057600080fd5b5061018b600480360381019061018691906121e1565b6106fc565b60405161019891906121c6565b60405180910390f35b3480156101ad57600080fd5b506101c860048036038101906101c3919061223d565b610741565b6040516101df9b9a9998979695949392919061230c565b60405180910390f35b3480156101f457600080fd5b506101fd610990565b005b34801561020b57600080fd5b50610214610a75565b6040516102219190611c60565b60405180910390f35b610244600480360381019061023f919061243b565b610a7b565b6040516102519190612130565b60405180910390f35b610262611414565b005b34801561027057600080fd5b5061028b6004803603810190610286919061223d565b611416565b60405161029891906121c6565b60405180910390f35b60065481565b6102af611ba1565b6000803373ffffffffffffffffffffffffffffffffffffffff1673ffffffffffffffffffffffffffffffffffffffff16815260200190815260200160002060009054906101000a900460ff1661033a576040517f08c379a000000000000000000000000000000000000000000000000000000000815260040161033190612591565b60405180910390fd5b60065434101561037f576040517f08c379a0000000000000000000000000000000000000000000000000000000008152600401610376906125fd565b60405180910390fd5b600080831461038e5782610390565b425b9050600061039d8261144c565b905060006103aa83611482565b905060006103b987838561149f565b90506001816040516103cb9190612659565b9081526020016040518091039020604051806101600160405290816000820180546103f59061269f565b80601f01602080910402602001604051908101604052809291908181526020018280546104219061269f565b801561046e5780601f106104435761010080835404028352916020019161046e565b820191906000526020600020905b81548152906001019060200180831161045157829003601f168201915b505050505081526020016001820180546104879061269f565b80601f01602080910402602001604051908101604052809291908181526020018280546104b39061269f565b80156105005780601f106104d557610100808354040283529160200191610500565b820191906000526020600020905b8154815290600101906020018083116104e357829003601f168201915b505050505081526020016002820180546105199061269f565b80601f01602080910402602001604051908101604052809291908181526020018280546105459061269f565b80156105925780601f1061056757610100808354040283529160200191610592565b820191906000526020600020905b81548152906001019060200180831161057557829003601f168201915b505050505081526020016003820160009054906101000a900460ff1660058111156105c0576105bf611edc565b5b60058111156105d2576105d1611edc565b5b81526020016003820160019054906101000a900460ff1660038111156105fb576105fa611edc565b5b600381111561060d5761060c611edc565b5b81526020016003820160029054906101000a900460ff16600681111561063657610635611edc565b5b600681111561064857610647611edc565b5b81526020016004820154815260200160058201548152602001600682015481526020016007820160009054906101000a900473ffffffffffffffffffffffffffffffffffffffff1673ffffffffffffffffffffffffffffffffffffffff1673ffffffffffffffffffffffffffffffffffffffff16815260200160088201548152505094505050505092915050565b60006020528060005260406000206000915054906101000a900460ff1681565b60055481565b6003828051602081018201805184825260208301602085012081835280955050505050506020528060005260406000206000915091509054906101000a900460ff1681565b60018180516020810182018051848252602083016020850120818352809550505050505060009150905080600001805461077a9061269f565b80601f01602080910402602001604051908101604052809291908181526020018280546107a69061269f565b80156107f35780601f106107c8576101008083540402835291602001916107f3565b820191906000526020600020905b8154815290600101906020018083116107d657829003601f168201915b5050505050908060010180546108089061269f565b80601f01602080910402602001604051908101604052809291908181526020018280546108349061269f565b80156108815780601f1061085657610100808354040283529160200191610881565b820191906000526020600020905b81548152906001019060200180831161086457829003601f168201915b5050505050908060020180546108969061269f565b80601f01602080910402602001604051908101604052809291908181526020018280546108c29061269f565b801561090f5780601f106108e45761010080835404028352916020019161090f565b820191906000526020600020905b8154815290600101906020018083116108f257829003601f168201915b5050505050908060030160009054906101000a900460ff16908060030160019054906101000a900460ff16908060030160029054906101000a900460ff16908060040154908060050154908060060154908060070160009054906101000a900473ffffffffffffffffffffffffffffffffffffffff1690806008015490508b565b6000803373ffffffffffffffffffffffffffffffffffffffff1673ffffffffffffffffffffffffffffffffffffffff16815260200190815260200160002060009054906101000a900460ff1615610a1c576040517f08c379a0000000000000000000000000000000000000000000000000000000008152600401610a139061271c565b60405180910390fd5b60016000803373ffffffffffffffffffffffffffffffffffffffff1673ffffffffffffffffffffffffffffffffffffffff16815260200190815260200160002060006101000a81548160ff021916908315150217905550565b60045481565b610a83611ba1565b6000803373ffffffffffffffffffffffffffffffffffffffff1673ffffffffffffffffffffffffffffffffffffffff16815260200190815260200160002060009054906101000a900460ff16610b0e576040517f08c379a0000000000000000000000000000000000000000000000000000000008152600401610b0590612591565b60405180910390fd5b6000808414610b1d5783610b1f565b425b90506000610b2c8261144c565b90506000610b3983611482565b90506000610b488b838561149f565b905060001515600382604051610b5e9190612659565b908152602001604051809103902060003373ffffffffffffffffffffffffffffffffffffffff1673ffffffffffffffffffffffffffffffffffffffff16815260200190815260200160002060009054906101000a900460ff16151514610bf9576040517f08c379a0000000000000000000000000000000000000000000000000000000008152600401610bf090612788565b60405180910390fd5b600281604051610c099190612659565b908152602001604051809103902060009054906101000a900460ff16610f41576040518061016001604052808e81526020018d81526020018c81526020018b6005811115610c5a57610c59611edc565b5b81526020018a6003811115610c7257610c71611edc565b5b8152602001896006811115610c8a57610c89611edc565b5b81526020018381526020018481526020018781526020013373ffffffffffffffffffffffffffffffffffffffff1681526020016000815250600182604051610cd29190612659565b90815260200160405180910390206000820151816000019081610cf59190612954565b506020820151816001019081610d0b9190612954565b506040820151816002019081610d219190612954565b5060608201518160030160006101000a81548160ff02191690836005811115610d4d57610d4c611edc565b5b021790555060808201518160030160016101000a81548160ff02191690836003811115610d7d57610d7c611edc565b5b021790555060a08201518160030160026101000a81548160ff02191690836006811115610dad57610dac611edc565b5b021790555060c0820151816004015560e0820151816005015561010082015181600601556101208201518160070160006101000a81548173ffffffffffffffffffffffffffffffffffffffff021916908373ffffffffffffffffffffffffffffffffffffffff16021790555061014082015181600801559050506001600282604051610e399190612659565b908152602001604051809103902060006101000a81548160ff0219169083151502179055506001600382604051610e709190612659565b908152602001604051809103902060003373ffffffffffffffffffffffffffffffffffffffff1673ffffffffffffffffffffffffffffffffffffffff16815260200190815260200160002060006101000a81548160ff02191690831515021790555080604051610ee09190612659565b60405180910390207f7b3f588208b30283d668ffba42b6abbb4d7f9cdc7d9dca70b49e4376b5aec0fe600183604051610f199190612659565b9081526020016040518091039020604051610f349190612ce7565b60405180910390a26110f3565b600181604051610f519190612659565b90815260200160405180910390206008016000815480929190610f7390612d38565b91905055506001600382604051610f8a9190612659565b908152602001604051809103902060003373ffffffffffffffffffffffffffffffffffffffff1673ffffffffffffffffffffffffffffffffffffffff16815260200190815260200160002060006101000a81548160ff02191690831515021790555060018082604051610ffd9190612659565b908152602001604051809103902060080154036110a55760006001826040516110269190612659565b908152602001604051809103902060070160009054906101000a900473ffffffffffffffffffffffffffffffffffffffff1690508073ffffffffffffffffffffffffffffffffffffffff166108fc6005549081150290604051600060405180830381858888f193505050501580156110a2573d6000803e3d6000fd5b50505b806040516110b39190612659565b60405180910390207fcc0a77509def7a2b56e9a01824660c2ff76c0934775c1f2aff6ec703fd007ae2336040516110ea9190612d80565b60405180910390a25b6001816040516111039190612659565b90815260200160405180910390206040518061016001604052908160008201805461112d9061269f565b80601f01602080910402602001604051908101604052809291908181526020018280546111599061269f565b80156111a65780601f1061117b576101008083540402835291602001916111a6565b820191906000526020600020905b81548152906001019060200180831161118957829003601f168201915b505050505081526020016001820180546111bf9061269f565b80601f01602080910402602001604051908101604052809291908181526020018280546111eb9061269f565b80156112385780601f1061120d57610100808354040283529160200191611238565b820191906000526020600020905b81548152906001019060200180831161121b57829003601f168201915b505050505081526020016002820180546112519061269f565b80601f016020809104026020016040519081016040528092919081815260200182805461127d9061269f565b80156112ca5780601f1061129f576101008083540402835291602001916112ca565b820191906000526020600020905b8154815290600101906020018083116112ad57829003601f168201915b505050505081526020016003820160009054906101000a900460ff1660058111156112f8576112f7611edc565b5b600581111561130a57611309611edc565b5b81526020016003820160019054906101000a900460ff16600381111561133357611332611edc565b5b600381111561134557611344611edc565b5b81526020016003820160029054906101000a900460ff16600681111561136e5761136d611edc565b5b60068111156113805761137f611edc565b5b81526020016004820154815260200160058201548152602001600682015481526020016007820160009054906101000a900473ffffffffffffffffffffffffffffffffffffffff1673ffffffffffffffffffffffffffffffffffffffff1673ffffffffffffffffffffffffffffffffffffffff16815260200160088201548152505094505050505098975050505050505050565b565b6002818051602081018201805184825260208301602085012081835280955050505050506000915054906101000a900460ff1681565b600080620151809050600081846114639190612dca565b90506000610708826114759190612dfb565b9050809350505050919050565b60008062015180905080836114979190612dfb565b915050919050565b6060839050806040516020016114b59190612e52565b6040516020818303038152906040529050806114d083611547565b6040516020016114e1929190612e78565b6040516020818303038152906040529050806040516020016115039190612e52565b60405160208183030381529060405290508061151e84611547565b60405160200161152f929190612e78565b60405160208183030381529060405290509392505050565b606060006064905060008167ffffffffffffffff81111561156b5761156a611caa565b5b6040519080825280601f01601f19166020018201604052801561159d5781602001600182028036833780820191505090505b50905060005b60008514611aae576000600a866115ba9190612dca565b9050600a866115c99190612dfb565b955060008103611647577f300000000000000000000000000000000000000000000000000000000000000083838061160090612d38565b94508151811061161357611612612e9c565b5b60200101907effffffffffffffffffffffffffffffffffffffffffffffffffffffffffffff1916908160001a905350611aa8565b600181036116c3577f310000000000000000000000000000000000000000000000000000000000000083838061167c90612d38565b94508151811061168f5761168e612e9c565b5b60200101907effffffffffffffffffffffffffffffffffffffffffffffffffffffffffffff1916908160001a905350611aa7565b6002810361173f577f32000000000000000000000000000000000000000000000000000000000000008383806116f890612d38565b94508151811061170b5761170a612e9c565b5b60200101907effffffffffffffffffffffffffffffffffffffffffffffffffffffffffffff1916908160001a905350611aa6565b600381036117bb577f330000000000000000000000000000000000000000000000000000000000000083838061177490612d38565b94508151811061178757611786612e9c565b5b60200101907effffffffffffffffffffffffffffffffffffffffffffffffffffffffffffff1916908160001a905350611aa5565b60048103611837577f34000000000000000000000000000000000000000000000000000000000000008383806117f090612d38565b94508151811061180357611802612e9c565b5b60200101907effffffffffffffffffffffffffffffffffffffffffffffffffffffffffffff1916908160001a905350611aa4565b600581036118b3577f350000000000000000000000000000000000000000000000000000000000000083838061186c90612d38565b94508151811061187f5761187e612e9c565b5b60200101907effffffffffffffffffffffffffffffffffffffffffffffffffffffffffffff1916908160001a905350611aa3565b6006810361192f577f36000000000000000000000000000000000000000000000000000000000000008383806118e890612d38565b9450815181106118fb576118fa612e9c565b5b60200101907effffffffffffffffffffffffffffffffffffffffffffffffffffffffffffff1916908160001a905350611aa2565b600781036119ab577f370000000000000000000000000000000000000000000000000000000000000083838061196490612d38565b94508151811061197757611976612e9c565b5b60200101907effffffffffffffffffffffffffffffffffffffffffffffffffffffffffffff1916908160001a905350611aa1565b60088103611a27577f38000000000000000000000000000000000000000000000000000000000000008383806119e090612d38565b9450815181106119f3576119f2612e9c565b5b60200101907effffffffffffffffffffffffffffffffffffffffffffffffffffffffffffff1916908160001a905350611aa0565b60098103611a9f577f3900000000000000000000000000000000000000000000000000000000000000838380611a5c90612d38565b945081518110611a6f57611a6e612e9c565b5b60200101907effffffffffffffffffffffffffffffffffffffffffffffffffffffffffffff1916908160001a9053505b5b5b5b5b5b5b5b5b5b506115a3565b60008167ffffffffffffffff811115611aca57611ac9611caa565b5b6040519080825280601f01601f191660200182016040528015611afc5781602001600182028036833780820191505090505b50905060005b82811015611b94578381600185611b199190612ecb565b611b239190612ecb565b81518110611b3457611b33612e9c565b5b602001015160f81c60f81b828281518110611b5257611b51612e9c565b5b60200101907effffffffffffffffffffffffffffffffffffffffffffffffffffffffffffff1916908160001a9053508080611b8c90612d38565b915050611b02565b5080945050505050919050565b60405180610160016040528060608152602001606081526020016060815260200160006005811115611bd657611bd5611edc565b5b815260200160006003811115611bef57611bee611edc565b5b815260200160006006811115611c0857611c07611edc565b5b8152602001600081526020016000815260200160008152602001600073ffffffffffffffffffffffffffffffffffffffff168152602001600081525090565b6000819050919050565b611c5a81611c47565b82525050565b6000602082019050611c756000830184611c51565b92915050565b6000604051905090565b600080fd5b600080fd5b600080fd5b600080fd5b6000601f19601f8301169050919050565b7f4e487b7100000000000000000000000000000000000000000000000000000000600052604160045260246000fd5b611ce282611c99565b810181811067ffffffffffffffff82111715611d0157611d00611caa565b5b80604052505050565b6000611d14611c7b565b9050611d208282611cd9565b919050565b600067ffffffffffffffff821115611d4057611d3f611caa565b5b611d4982611c99565b9050602081019050919050565b82818337600083830152505050565b6000611d78611d7384611d25565b611d0a565b905082815260208101848484011115611d9457611d93611c94565b5b611d9f848285611d56565b509392505050565b600082601f830112611dbc57611dbb611c8f565b5b8135611dcc848260208601611d65565b91505092915050565b611dde81611c47565b8114611de957600080fd5b50565b600081359050611dfb81611dd5565b92915050565b60008060408385031215611e1857611e17611c85565b5b600083013567ffffffffffffffff811115611e3657611e35611c8a565b5b611e4285828601611da7565b9250506020611e5385828601611dec565b9150509250929050565b600081519050919050565b600082825260208201905092915050565b60005b83811015611e97578082015181840152602081019050611e7c565b60008484015250505050565b6000611eae82611e5d565b611eb88185611e68565b9350611ec8818560208601611e79565b611ed181611c99565b840191505092915050565b7f4e487b7100000000000000000000000000000000000000000000000000000000600052602160045260246000fd5b60068110611f1c57611f1b611edc565b5b50565b6000819050611f2d82611f0b565b919050565b6000611f3d82611f1f565b9050919050565b611f4d81611f32565b82525050565b60048110611f6457611f63611edc565b5b50565b6000819050611f7582611f53565b919050565b6000611f8582611f67565b9050919050565b611f9581611f7a565b82525050565b60078110611fac57611fab611edc565b5b50565b6000819050611fbd82611f9b565b919050565b6000611fcd82611faf565b9050919050565b611fdd81611fc2565b82525050565b611fec81611c47565b82525050565b600073ffffffffffffffffffffffffffffffffffffffff82169050919050565b600061201d82611ff2565b9050919050565b61202d81612012565b82525050565b60006101608301600083015184820360008601526120518282611ea3565b9150506020830151848203602086015261206b8282611ea3565b915050604083015184820360408601526120858282611ea3565b915050606083015161209a6060860182611f44565b5060808301516120ad6080860182611f8c565b5060a08301516120c060a0860182611fd4565b5060c08301516120d360c0860182611fe3565b5060e08301516120e660e0860182611fe3565b506101008301516120fb610100860182611fe3565b50610120830151612110610120860182612024565b50610140830151612125610140860182611fe3565b508091505092915050565b6000602082019050818103600083015261214a8184612033565b905092915050565b61215b81612012565b811461216657600080fd5b50565b60008135905061217881612152565b92915050565b60006020828403121561219457612193611c85565b5b60006121a284828501612169565b91505092915050565b60008115159050919050565b6121c0816121ab565b82525050565b60006020820190506121db60008301846121b7565b92915050565b600080604083850312156121f8576121f7611c85565b5b600083013567ffffffffffffffff81111561221657612215611c8a565b5b61222285828601611da7565b925050602061223385828601612169565b9150509250929050565b60006020828403121561225357612252611c85565b5b600082013567ffffffffffffffff81111561227157612270611c8a565b5b61227d84828501611da7565b91505092915050565b600082825260208201905092915050565b60006122a282611e5d565b6122ac8185612286565b93506122bc818560208601611e79565b6122c581611c99565b840191505092915050565b6122d981611f32565b82525050565b6122e881611f7a565b82525050565b6122f781611fc2565b82525050565b61230681612012565b82525050565b6000610160820190508181036000830152612327818e612297565b9050818103602083015261233b818d612297565b9050818103604083015261234f818c612297565b905061235e606083018b6122d0565b61236b608083018a6122df565b61237860a08301896122ee565b61238560c0830188611c51565b61239260e0830187611c51565b6123a0610100830186611c51565b6123ae6101208301856122fd565b6123bc610140830184611c51565b9c9b505050505050505050505050565b600681106123d957600080fd5b50565b6000813590506123eb816123cc565b92915050565b600481106123fe57600080fd5b50565b600081359050612410816123f1565b92915050565b6007811061242357600080fd5b50565b60008135905061243581612416565b92915050565b600080600080600080600080610100898b03121561245c5761245b611c85565b5b600089013567ffffffffffffffff81111561247a57612479611c8a565b5b6124868b828c01611da7565b985050602089013567ffffffffffffffff8111156124a7576124a6611c8a565b5b6124b38b828c01611da7565b975050604089013567ffffffffffffffff8111156124d4576124d3611c8a565b5b6124e08b828c01611da7565b96505060606124f18b828c016123dc565b95505060806125028b828c01612401565b94505060a06125138b828c01612426565b93505060c06125248b828c01611dec565b92505060e06125358b828c01611dec565b9150509295985092959890939650565b7f4163636f756e7420646f6573206e6f7420657869737400000000000000000000600082015250565b600061257b601683612286565b915061258682612545565b602082019050919050565b600060208201905081810360008301526125aa8161256e565b9050919050565b7f496e73756666696369656e742045746865722073656e74000000000000000000600082015250565b60006125e7601783612286565b91506125f2826125b1565b602082019050919050565b60006020820190508181036000830152612616816125da565b9050919050565b600081905092915050565b600061263382611e5d565b61263d818561261d565b935061264d818560208601611e79565b80840191505092915050565b60006126658284612628565b915081905092915050565b7f4e487b7100000000000000000000000000000000000000000000000000000000600052602260045260246000fd5b600060028204905060018216806126b757607f821691505b6020821081036126ca576126c9612670565b5b50919050565b7f4163636f756e7420616c72656164792065786973747300000000000000000000600082015250565b6000612706601683612286565b9150612711826126d0565b602082019050919050565b60006020820190508181036000830152612735816126f9565b9050919050565b7f596f7520616c7265616479207368617265207468697320696e636964656e7400600082015250565b6000612772601f83612286565b915061277d8261273c565b602082019050919050565b600060208201905081810360008301526127a181612765565b9050919050565b60008190508160005260206000209050919050565b60006020601f8301049050919050565b600082821b905092915050565b60006008830261280a7fffffffffffffffffffffffffffffffffffffffffffffffffffffffffffffffff826127cd565b61281486836127cd565b95508019841693508086168417925050509392505050565b6000819050919050565b600061285161284c61284784611c47565b61282c565b611c47565b9050919050565b6000819050919050565b61286b83612836565b61287f61287782612858565b8484546127da565b825550505050565b600090565b612894612887565b61289f818484612862565b505050565b5b818110156128c3576128b860008261288c565b6001810190506128a5565b5050565b601f821115612908576128d9816127a8565b6128e2846127bd565b810160208510156128f1578190505b6129056128fd856127bd565b8301826128a4565b50505b505050565b600082821c905092915050565b600061292b6000198460080261290d565b1980831691505092915050565b6000612944838361291a565b9150826002028217905092915050565b61295d82611e5d565b67ffffffffffffffff81111561297657612975611caa565b5b612980825461269f565b61298b8282856128c7565b600060209050601f8311600181146129be57600084156129ac578287015190505b6129b68582612938565b865550612a1e565b601f1984166129cc866127a8565b60005b828110156129f4578489015182556001820191506020850194506020810190506129cf565b86831015612a115784890151612a0d601f89168261291a565b8355505b6001600288020188555050505b505050505050565b60008154612a338161269f565b612a3d8186611e68565b94506001821660008114612a585760018114612a6e57612aa1565b60ff198316865281151560200286019350612aa1565b612a77856127a8565b60005b83811015612a9957815481890152600182019150602081019050612a7a565b808801955050505b50505092915050565b60008160001c9050919050565b600060ff82169050919050565b6000612ad7612ad283612aaa565b612ab7565b9050919050565b60008160081c9050919050565b600060ff82169050919050565b6000612b0b612b0683612ade565b612aeb565b9050919050565b60008160101c9050919050565b600060ff82169050919050565b6000612b3f612b3a83612b12565b612b1f565b9050919050565b6000819050919050565b6000612b63612b5e83612aaa565b612b46565b9050919050565b600073ffffffffffffffffffffffffffffffffffffffff82169050919050565b6000612b9d612b9883612aaa565b612b6a565b9050919050565b6000610160830160008084018583036000870152612bc28382612a26565b925050600184018583036020870152612bdb8382612a26565b925050600284018583036040870152612bf48382612a26565b92505060038401549050612c0781612ac4565b612c146060870182611f44565b50612c1e81612af8565b612c2b6080870182611f8c565b50612c3581612b2c565b612c4260a0870182611fd4565b5060048401549050612c5381612b50565b612c6060c0870182611fe3565b5060058401549050612c7181612b50565b612c7e60e0870182611fe3565b5060068401549050612c8f81612b50565b612c9d610100870182611fe3565b5060078401549050612cae81612b8a565b612cbc610120870182612024565b5060088401549050612ccd81612b50565b612cdb610140870182611fe3565b50819250505092915050565b60006020820190508181036000830152612d018184612ba4565b905092915050565b7f4e487b7100000000000000000000000000000000000000000000000000000000600052601160045260246000fd5b6000612d4382611c47565b91507fffffffffffffffffffffffffffffffffffffffffffffffffffffffffffffffff8203612d7557612d74612d09565b5b600182019050919050565b6000602082019050612d9560008301846122fd565b92915050565b7f4e487b7100000000000000000000000000000000000000000000000000000000600052601260045260246000fd5b6000612dd582611c47565b9150612de083611c47565b925082612df057612def612d9b565b5b828206905092915050565b6000612e0682611c47565b9150612e1183611c47565b925082612e2157612e20612d9b565b5b828204905092915050565b7f5f00000000000000000000000000000000000000000000000000000000000000815250565b6000612e5e8284612628565b9150612e6982612e2c565b60018201915081905092915050565b6000612e848285612628565b9150612e908284612628565b91508190509392505050565b7f4e487b7100000000000000000000000000000000000000000000000000000000600052603260045260246000fd5b6000612ed682611c47565b9150612ee183611c47565b9250828203905081811115612ef957612ef8612d09565b5b9291505056fea26469706673582212204401ee476cc35a5f730093d3cd7731e5b7997995de930a4018e9757a601885b764736f6c63430008110033",
  "immutableReferences": {},
  "source": "// SPDX-License-Identifier: MIT\r\npragma solidity ^0.8.17;\r\ncontract TrafficJamPrediction {\r\n\r\n    enum RoadType{\r\n        Expressway,\r\n        NationalHighway,\r\n        StateHighway,\r\n        MajorDistrictRoad,\r\n        OtherDistrictRoad,\r\n        RuralRoad\r\n    }\r\n\r\n    enum RoadCondition{\r\n        Smooth,\r\n        Moderate,\r\n        Poor,\r\n        ExtremelyBad\r\n    }\r\n\r\n    enum RoadEvent{\r\n        Construction,\r\n        Accident,\r\n        Barricades,\r\n        TollBooth,\r\n        DemonstrationsOrProtests,\r\n        Marathon,\r\n        Others\r\n    }\r\n\r\n    struct Incident {\r\n        string latitude;\r\n        string longitude;\r\n        string roadId;\r\n        RoadType roadType;\r\n        RoadCondition roadCondition;\r\n        RoadEvent roadEvent;\r\n        uint day;\r\n        uint timeslot;\r\n        uint duration;\r\n        address firstUser;\r\n        uint confirmNumber;\r\n    }\r\n\r\n    mapping(address => bool) public accounts;\r\n    mapping(string => Incident) public incidents;\r\n    mapping(string => bool) public incidentExist;\r\n    mapping(string => mapping(address => bool)) public incidentConfirm;\r\n\r\n    uint public incidentCount;\r\n    uint256 public tokenReward;\r\n    uint256 public minimunTokenGetProbability;\r\n\r\n\r\n    event IncidentShared(string indexed incidentHash, Incident incident);\r\n    event IncidentConfirm(string indexed incidentHash, address user);\r\n\r\n    constructor () {\r\n        incidentCount = 0;\r\n        tokenReward = 2 ether;\r\n        minimunTokenGetProbability = 1 ether;\r\n    }\r\n\r\n    function donate() external payable  {\r\n    }\r\n\r\n    function createAccount() external {\r\n        require(!accounts[msg.sender], \"Account already exists\");\r\n        accounts[msg.sender] = true;\r\n    }\r\n\r\n    function shareIncident(\r\n        string memory _latitude,\r\n        string memory _longitude,\r\n        string memory _roadId,\r\n        RoadType _roadType,\r\n        RoadCondition _roadCondition,\r\n        RoadEvent _event,\r\n        uint256 _timestamp,\r\n        uint _duration\r\n    ) external payable returns(Incident memory incident){\r\n        require(accounts[msg.sender], \"Account does not exist\");\r\n\r\n        uint256 timestamp = _timestamp == 0 ? block.timestamp : _timestamp;\r\n\r\n        uint _timeslot = calculateTimeslot(timestamp);\r\n        uint _day = calculateDay(timestamp);\r\n        \r\n        string memory iHash = incidentHash(_roadId, _day, _timeslot);\r\n\r\n        require(incidentConfirm[iHash][msg.sender] == false, \"You already share this incident\");\r\n        //TODO: Check unique incident\r\n        if (!incidentExist[iHash]) {\r\n            incidents[iHash] = Incident({\r\n                latitude: _latitude,\r\n                longitude: _longitude,\r\n                roadId: _roadId,\r\n                roadType: _roadType,\r\n                roadCondition: _roadCondition,\r\n                roadEvent: _event,\r\n                day: _day,\r\n                timeslot: _timeslot,\r\n                duration: _duration,\r\n                firstUser: msg.sender,\r\n                confirmNumber: 0\r\n            });\r\n            incidentExist[iHash] = true;\r\n            incidentConfirm[iHash][msg.sender] = true;\r\n            emit IncidentShared(iHash, incidents[iHash]);\r\n        }\r\n        else{\r\n            incidents[iHash].confirmNumber++;\r\n            incidentConfirm[iHash][msg.sender] = true;\r\n            if (incidents[iHash].confirmNumber == 1){\r\n                address payable firstUser = payable(incidents[iHash].firstUser);\r\n                firstUser.transfer(tokenReward);\r\n            }\r\n            emit IncidentConfirm(iHash, msg.sender);\r\n        }\r\n\r\n        return incidents[iHash];\r\n    }\r\n\r\n    function getTrafficJamIncident(\r\n        string memory _roadId,\r\n        uint256 _timestamp\r\n        )\r\n        external\r\n        payable\r\n        returns (Incident memory incident)\r\n    {\r\n        require(accounts[msg.sender], \"Account does not exist\");\r\n        require(msg.value >= minimunTokenGetProbability, \"Insufficient Ether sent\");\r\n\r\n        uint256 timestamp = _timestamp == 0 ? block.timestamp : _timestamp;\r\n        uint _timeslot = calculateTimeslot(timestamp);\r\n        uint _day = calculateDay(timestamp);\r\n\r\n        string memory iHash = incidentHash(_roadId, _day, _timeslot);\r\n        incident = incidents[iHash];\r\n        return incident;\r\n    }\r\n\r\n    function incidentHash(\r\n        string memory _roadId,\r\n        uint _day,\r\n        uint _timeslot\r\n    ) internal pure returns (string memory iHash)\r\n    {\r\n        iHash = _roadId;\r\n        iHash = string.concat(iHash, \"_\");\r\n        iHash = string.concat(iHash, uintToString(_timeslot));\r\n        iHash = string.concat(iHash, \"_\");\r\n        iHash = string.concat(iHash, uintToString(_day));\r\n    }\r\n\r\n    uint256 constant TIMESLOT_DURATION = 30 minutes;\r\n\r\n    function calculateTimeslot(uint256 _timestamp) internal pure returns (uint) {\r\n        uint256 secondsInDay = 24 hours;\r\n        uint256 secondsSinceMidnight = _timestamp % secondsInDay;\r\n        uint256 timeslot = secondsSinceMidnight / TIMESLOT_DURATION;\r\n        return timeslot;\r\n    }\r\n\r\n    function calculateDay(uint256 _timestamp) internal pure returns (uint) {\r\n        uint256 secondsInDay = 24 hours;\r\n        return _timestamp / secondsInDay;\r\n    }\r\n\r\n    function uintToString(uint v) internal pure returns (string memory str) {\r\n        uint maxlength = 100;\r\n        bytes memory reversed = new bytes(maxlength);\r\n        uint i = 0;\r\n        while (v != 0) {\r\n            uint remainder = v % 10;\r\n            v = v / 10;\r\n            if (remainder == 0){\r\n                reversed[i++] = '0';\r\n            }\r\n            else if (remainder == 1){\r\n                reversed[i++] = '1';\r\n            }\r\n            else if (remainder == 2){\r\n                reversed[i++] = '2';\r\n            }\r\n            else if (remainder == 3){\r\n                reversed[i++] = '3';\r\n            }\r\n            else if (remainder == 4){\r\n                reversed[i++] = '4';\r\n            }\r\n            else if (remainder == 5){\r\n                reversed[i++] = '5';\r\n            }\r\n            else if (remainder == 6){\r\n                reversed[i++] = '6';\r\n            }\r\n            else if (remainder == 7){\r\n                reversed[i++] = '7';\r\n            }\r\n            else if (remainder == 8){\r\n                reversed[i++] = '8';\r\n            }\r\n            else if (remainder == 9){\r\n                reversed[i++] = '9';\r\n            }\r\n        }\r\n        bytes memory s = new bytes(i);\r\n        for (uint j = 0; j < i; j++) {\r\n            s[j] = reversed[i - 1 - j];\r\n        }\r\n        str = string(s);\r\n    }\r\n}",
  "sourcePath": "C:\\Users\\WBPC.VN\\PycharmProjects\\traffic-jam-prediction\\contracts\\TrafficJamPrediction.sol",
  "compiler": {
    "name": "solc",
    "version": "0.8.17+commit.8df45f5f.Emscripten.clang"
  },
  "schemaVersion": "3.4.14",
  "updatedAt": "2023-07-23T15:10:45.463Z",
  "networkType": "ethereum",
  "devdoc": {
    "kind": "dev",
    "methods": {},
    "version": 1
  },
  "userdoc": {
    "kind": "user",
    "methods": {},
    "version": 1
  }
}