{
  "contractName": "TrafficJamPrediction",
  "abi": [
    {
      "inputs": [],
      "stateMutability": "nonpayable",
      "type": "constructor"
    },
    {
      "anonymous": false,
      "inputs": [
        {
          "indexed": true,
          "internalType": "uint256",
          "name": "incidentId",
          "type": "uint256"
        },
        {
          "indexed": true,
          "internalType": "address",
          "name": "user",
          "type": "address"
        },
        {
          "indexed": false,
          "internalType": "uint256",
          "name": "timestamp",
          "type": "uint256"
        }
      ],
      "name": "IncidentShared",
      "type": "event"
    },
    {
      "inputs": [
        {
          "internalType": "address",
          "name": "",
          "type": "address"
        }
      ],
      "name": "accounts",
      "outputs": [
        {
          "internalType": "bool",
          "name": "",
          "type": "bool"
        }
      ],
      "stateMutability": "view",
      "type": "function",
      "constant": true
    },
    {
      "inputs": [
        {
          "internalType": "uint256",
          "name": "",
          "type": "uint256"
        }
      ],
      "name": "firstUser",
      "outputs": [
        {
          "internalType": "address",
          "name": "",
          "type": "address"
        }
      ],
      "stateMutability": "view",
      "type": "function",
      "constant": true
    },
    {
      "inputs": [],
      "name": "incidentCount",
      "outputs": [
        {
          "internalType": "uint256",
          "name": "",
          "type": "uint256"
        }
      ],
      "stateMutability": "view",
      "type": "function",
      "constant": true
    },
    {
      "inputs": [
        {
          "internalType": "uint256",
          "name": "",
          "type": "uint256"
        }
      ],
      "name": "incidents",
      "outputs": [
        {
          "components": [
            {
              "internalType": "int256",
              "name": "latitude",
              "type": "int256"
            },
            {
              "internalType": "int256",
              "name": "longitude",
              "type": "int256"
            }
          ],
          "internalType": "struct TrafficJamPrediction.Location",
          "name": "location",
          "type": "tuple"
        },
        {
          "internalType": "enum TrafficJamPrediction.RoadType",
          "name": "roadType",
          "type": "uint8"
        },
        {
          "internalType": "enum TrafficJamPrediction.RoadCondition",
          "name": "roadCondition",
          "type": "uint8"
        },
        {
          "internalType": "enum TrafficJamPrediction.RoadEvent",
          "name": "roadEvent",
          "type": "uint8"
        },
        {
          "internalType": "uint256",
          "name": "timeslot",
          "type": "uint256"
        }
      ],
      "stateMutability": "view",
      "type": "function",
      "constant": true
    },
    {
      "inputs": [],
      "name": "tokenReward",
      "outputs": [
        {
          "internalType": "uint256",
          "name": "",
          "type": "uint256"
        }
      ],
      "stateMutability": "view",
      "type": "function",
      "constant": true
    },
    {
      "inputs": [
        {
          "internalType": "uint256",
          "name": "",
          "type": "uint256"
        }
      ],
      "name": "uniqueIncidents",
      "outputs": [
        {
          "internalType": "bool",
          "name": "",
          "type": "bool"
        }
      ],
      "stateMutability": "view",
      "type": "function",
      "constant": true
    },
    {
      "inputs": [],
      "name": "createAccount",
      "outputs": [],
      "stateMutability": "nonpayable",
      "type": "function"
    },
    {
      "inputs": [
        {
          "internalType": "int256",
          "name": "_latitude",
          "type": "int256"
        },
        {
          "internalType": "int256",
          "name": "_longitude",
          "type": "int256"
        },
        {
          "internalType": "enum TrafficJamPrediction.RoadType",
          "name": "_roadType",
          "type": "uint8"
        },
        {
          "internalType": "enum TrafficJamPrediction.RoadCondition",
          "name": "_roadCondition",
          "type": "uint8"
        },
        {
          "internalType": "enum TrafficJamPrediction.RoadEvent",
          "name": "_event",
          "type": "uint8"
        }
      ],
      "name": "shareIncident",
      "outputs": [],
      "stateMutability": "nonpayable",
      "type": "function"
    },
    {
      "inputs": [],
      "name": "getTrafficJamProbability",
      "outputs": [
        {
          "internalType": "uint256",
          "name": "probability",
          "type": "uint256"
        }
      ],
      "stateMutability": "pure",
      "type": "function",
      "constant": true
    }
  ],
  "bytecode": "0x608060405234801561001057600080fd5b506000600481905550600a600581905550610c86806100306000396000f3fe608060405234801561001057600080fd5b50600436106100935760003560e01c80639dca362f116100665780639dca362f14610134578063a09b86ac1461013e578063a6c6a8f31461015c578063aaa62aa814610190578063c4aa6dcb146101c057610093565b80635e5c06e2146100985780636e66f6e9146100c857806380604312146100e65780639435b58514610116575b600080fd5b6100b260048036038101906100ad919061071e565b6101dc565b6040516100bf9190610766565b60405180910390f35b6100d06101fc565b6040516100dd919061079a565b60405180910390f35b61010060048036038101906100fb91906107e1565b610202565b60405161010d919061081d565b60405180910390f35b61011e610235565b60405161012b919061079a565b60405180910390f35b61013c610244565b005b610146610329565b604051610153919061079a565b60405180910390f35b610176600480360381019061017191906107e1565b61032f565b604051610187959493929190610987565b60405180910390f35b6101aa60048036038101906101a591906107e1565b6103aa565b6040516101b79190610766565b60405180910390f35b6101da60048036038101906101d59190610a75565b6103ca565b005b60006020528060005260406000206000915054906101000a900460ff1681565b60055481565b60036020528060005260406000206000915054906101000a900473ffffffffffffffffffffffffffffffffffffffff1681565b600061023f6106b2565b905090565b6000803373ffffffffffffffffffffffffffffffffffffffff1673ffffffffffffffffffffffffffffffffffffffff16815260200190815260200160002060009054906101000a900460ff16156102d0576040517f08c379a00000000000000000000000000000000000000000000000000000000081526004016102c790610b4d565b60405180910390fd5b60016000803373ffffffffffffffffffffffffffffffffffffffff1673ffffffffffffffffffffffffffffffffffffffff16815260200190815260200160002060006101000a81548160ff021916908315150217905550565b60045481565b60016020528060005260406000206000915090508060000160405180604001604052908160008201548152602001600182015481525050908060020160009054906101000a900460ff16908060020160019054906101000a900460ff16908060020160029054906101000a900460ff16908060030154905085565b60026020528060005260406000206000915054906101000a900460ff1681565b6000803373ffffffffffffffffffffffffffffffffffffffff1673ffffffffffffffffffffffffffffffffffffffff16815260200190815260200160002060009054906101000a900460ff16610455576040517f08c379a000000000000000000000000000000000000000000000000000000000815260040161044c90610bb9565b60405180910390fd5b600042905060006004600081548092919061046f90610c08565b9190505590506040518060a0016040528060405180604001604052808a81526020018981525081526020018660058111156104ad576104ac610880565b5b81526020018560038111156104c5576104c4610880565b5b81526020018460068111156104dd576104dc610880565b5b81526020016001815250600160008381526020019081526020016000206000820151816000016000820151816000015560208201518160010155505060208201518160020160006101000a81548160ff0219169083600581111561054457610543610880565b5b021790555060408201518160020160016101000a81548160ff0219169083600381111561057457610573610880565b5b021790555060608201518160020160026101000a81548160ff021916908360068111156105a4576105a3610880565b5b0217905550608082015181600301559050506002600082815260200190815260200160002060009054906101000a900460ff166106a95760016002600083815260200190815260200160002060006101000a81548160ff021916908315150217905550336003600083815260200190815260200160002060006101000a81548173ffffffffffffffffffffffffffffffffffffffff021916908373ffffffffffffffffffffffffffffffffffffffff1602179055503373ffffffffffffffffffffffffffffffffffffffff16817fb24f5c9dc0dd62e5d0d4cb50817696fad6d9889ce47d4951bc443196f2b64a39846040516106a0919061079a565b60405180910390a35b50505050505050565b60006028905090565b600080fd5b600073ffffffffffffffffffffffffffffffffffffffff82169050919050565b60006106eb826106c0565b9050919050565b6106fb816106e0565b811461070657600080fd5b50565b600081359050610718816106f2565b92915050565b600060208284031215610734576107336106bb565b5b600061074284828501610709565b91505092915050565b60008115159050919050565b6107608161074b565b82525050565b600060208201905061077b6000830184610757565b92915050565b6000819050919050565b61079481610781565b82525050565b60006020820190506107af600083018461078b565b92915050565b6107be81610781565b81146107c957600080fd5b50565b6000813590506107db816107b5565b92915050565b6000602082840312156107f7576107f66106bb565b5b6000610805848285016107cc565b91505092915050565b610817816106e0565b82525050565b6000602082019050610832600083018461080e565b92915050565b6000819050919050565b61084b81610838565b82525050565b6040820160008201516108676000850182610842565b50602082015161087a6020850182610842565b50505050565b7f4e487b7100000000000000000000000000000000000000000000000000000000600052602160045260246000fd5b600681106108c0576108bf610880565b5b50565b60008190506108d1826108af565b919050565b60006108e1826108c3565b9050919050565b6108f1816108d6565b82525050565b6004811061090857610907610880565b5b50565b6000819050610919826108f7565b919050565b60006109298261090b565b9050919050565b6109398161091e565b82525050565b600781106109505761094f610880565b5b50565b60008190506109618261093f565b919050565b600061097182610953565b9050919050565b61098181610966565b82525050565b600060c08201905061099c6000830188610851565b6109a960408301876108e8565b6109b66060830186610930565b6109c36080830185610978565b6109d060a083018461078b565b9695505050505050565b6109e381610838565b81146109ee57600080fd5b50565b600081359050610a00816109da565b92915050565b60068110610a1357600080fd5b50565b600081359050610a2581610a06565b92915050565b60048110610a3857600080fd5b50565b600081359050610a4a81610a2b565b92915050565b60078110610a5d57600080fd5b50565b600081359050610a6f81610a50565b92915050565b600080600080600060a08688031215610a9157610a906106bb565b5b6000610a9f888289016109f1565b9550506020610ab0888289016109f1565b9450506040610ac188828901610a16565b9350506060610ad288828901610a3b565b9250506080610ae388828901610a60565b9150509295509295909350565b600082825260208201905092915050565b7f4163636f756e7420616c72656164792065786973747300000000000000000000600082015250565b6000610b37601683610af0565b9150610b4282610b01565b602082019050919050565b60006020820190508181036000830152610b6681610b2a565b9050919050565b7f4163636f756e7420646f6573206e6f7420657869737400000000000000000000600082015250565b6000610ba3601683610af0565b9150610bae82610b6d565b602082019050919050565b60006020820190508181036000830152610bd281610b96565b9050919050565b7f4e487b7100000000000000000000000000000000000000000000000000000000600052601160045260246000fd5b6000610c1382610781565b91507fffffffffffffffffffffffffffffffffffffffffffffffffffffffffffffffff8203610c4557610c44610bd9565b5b60018201905091905056fea264697066735822122097bde53f9c7e88990b38bc987edb1e16f1a991cddb94641d60e3afe79185f5b064736f6c63430008110033",
  "immutableReferences": {},
  "source": "// SPDX-License-Identifier: MIT\r\npragma solidity ^0.8.17;\r\n\r\ncontract TrafficJamPrediction {\r\n\r\n    enum RoadType{\r\n        Expressway,\r\n        NationalHighway,\r\n        StateHighway,\r\n        MajorDistrictRoad,\r\n        OtherDistrictRoad,\r\n        RuralRoad\r\n    }\r\n\r\n    enum RoadCondition{\r\n        Smooth,\r\n        Moderate,\r\n        Poor,\r\n        ExtremelyBad\r\n    }\r\n\r\n    enum RoadEvent{\r\n        Construction,\r\n        Accident,\r\n        Barricades,\r\n        TollBooth,\r\n        DemonstrationsOrProtests,\r\n        Marathon,\r\n        Others\r\n    }\r\n\r\n    struct Location {\r\n        int256 latitude;\r\n        int256 longitude;\r\n    }\r\n\r\n    struct Incident {\r\n        Location location;\r\n        RoadType roadType;\r\n        RoadCondition roadCondition;\r\n        RoadEvent roadEvent;\r\n        uint timeslot;\r\n    }\r\n\r\n    mapping(address => bool) public accounts;\r\n    mapping(uint => Incident) public incidents;\r\n    mapping(uint => bool) public uniqueIncidents;\r\n    mapping(uint => address) public firstUser;\r\n\r\n    uint public incidentCount;\r\n    uint public tokenReward;\r\n\r\n    event IncidentShared(uint indexed incidentId, address indexed user, uint timestamp);\r\n\r\n    constructor() {\r\n        incidentCount = 0;\r\n        tokenReward = 10; // Adjust the token reward as needed\r\n    }\r\n\r\n    function createAccount() external {\r\n        require(!accounts[msg.sender], \"Account already exists\");\r\n        accounts[msg.sender] = true;\r\n    }\r\n\r\n    function shareIncident(\r\n        int256 _latitude,\r\n        int256 _longitude,\r\n        RoadType _roadType,\r\n        RoadCondition _roadCondition,\r\n        RoadEvent _event\r\n    ) external {\r\n        require(accounts[msg.sender], \"Account does not exist\");\r\n\r\n        uint currentTimestamp = block.timestamp;\r\n        uint incidentId = incidentCount++;\r\n\r\n        incidents[incidentId] = Incident({\r\n            location: Location({\r\n                latitude: _latitude,\r\n                longitude: _longitude\r\n            }),\r\n            roadType: _roadType,\r\n            roadCondition: _roadCondition,\r\n            roadEvent: _event,\r\n            timeslot: 1 //TODO: calculate timeslot from timestamp\r\n        });\r\n\r\n        //TODO: Check unique incident\r\n        if (!uniqueIncidents[incidentId]) {\r\n            uniqueIncidents[incidentId] = true;\r\n            firstUser[incidentId] = msg.sender;\r\n            emit IncidentShared(incidentId, msg.sender, currentTimestamp);\r\n        }\r\n    }\r\n\r\n    function getTrafficJamProbability()\r\n        external\r\n        pure\r\n        returns (uint probability)\r\n    {\r\n        probability = calculateProbability();\r\n        return probability;\r\n    }\r\n\r\n    function calculateProbability()\r\n        internal\r\n        pure\r\n        returns (uint probability)\r\n    {\r\n        probability = 40;\r\n        return probability;\r\n    }\r\n}",
  "sourcePath": "C:\\Users\\WBPC.VN\\VS Code\\Traffic Jam Probability Estimation Contract\\contracts\\TrafficJamPrediction.sol",
  "compiler": {
    "name": "solc",
    "version": "0.8.17+commit.8df45f5f.Emscripten.clang"
  },
  "schemaVersion": "3.4.14",
  "updatedAt": "2023-06-19T17:18:51.180Z",
  "networkType": "ethereum",
  "devdoc": {
    "kind": "dev",
    "methods": {},
    "version": 1
  },
  "userdoc": {
    "kind": "user",
    "methods": {},
    "version": 1
  }
}