{
  "contractName": "TrafficJamPrediction",
  "abi": [
    {
      "inputs": [],
      "stateMutability": "nonpayable",
      "type": "constructor"
    },
    {
      "anonymous": false,
      "inputs": [
        {
          "indexed": true,
          "internalType": "string",
          "name": "incidentHash",
          "type": "string"
        },
        {
          "indexed": false,
          "internalType": "address",
          "name": "user",
          "type": "address"
        }
      ],
      "name": "IncidentConfirm",
      "type": "event"
    },
    {
      "anonymous": false,
      "inputs": [
        {
          "indexed": true,
          "internalType": "string",
          "name": "incidentHash",
          "type": "string"
        },
        {
          "components": [
            {
              "components": [
                {
                  "internalType": "int256",
                  "name": "latitude",
                  "type": "int256"
                },
                {
                  "internalType": "int256",
                  "name": "longitude",
                  "type": "int256"
                }
              ],
              "internalType": "struct TrafficJamPrediction.Location",
              "name": "location",
              "type": "tuple"
            },
            {
              "internalType": "string",
              "name": "roadId",
              "type": "string"
            },
            {
              "internalType": "enum TrafficJamPrediction.RoadType",
              "name": "roadType",
              "type": "uint8"
            },
            {
              "internalType": "enum TrafficJamPrediction.RoadCondition",
              "name": "roadCondition",
              "type": "uint8"
            },
            {
              "internalType": "enum TrafficJamPrediction.RoadEvent",
              "name": "roadEvent",
              "type": "uint8"
            },
            {
              "internalType": "uint256",
              "name": "day",
              "type": "uint256"
            },
            {
              "internalType": "uint256",
              "name": "timeslot",
              "type": "uint256"
            },
            {
              "internalType": "address",
              "name": "firstUser",
              "type": "address"
            },
            {
              "internalType": "uint256",
              "name": "confirmNumber",
              "type": "uint256"
            }
          ],
          "indexed": false,
          "internalType": "struct TrafficJamPrediction.Incident",
          "name": "incident",
          "type": "tuple"
        }
      ],
      "name": "IncidentShared",
      "type": "event"
    },
    {
      "inputs": [
        {
          "internalType": "address",
          "name": "",
          "type": "address"
        }
      ],
      "name": "accounts",
      "outputs": [
        {
          "internalType": "bool",
          "name": "",
          "type": "bool"
        }
      ],
      "stateMutability": "view",
      "type": "function",
      "constant": true
    },
    {
      "inputs": [
        {
          "internalType": "string",
          "name": "",
          "type": "string"
        },
        {
          "internalType": "address",
          "name": "",
          "type": "address"
        }
      ],
      "name": "incidentConfirm",
      "outputs": [
        {
          "internalType": "bool",
          "name": "",
          "type": "bool"
        }
      ],
      "stateMutability": "view",
      "type": "function",
      "constant": true
    },
    {
      "inputs": [],
      "name": "incidentCount",
      "outputs": [
        {
          "internalType": "uint256",
          "name": "",
          "type": "uint256"
        }
      ],
      "stateMutability": "view",
      "type": "function",
      "constant": true
    },
    {
      "inputs": [
        {
          "internalType": "string",
          "name": "",
          "type": "string"
        }
      ],
      "name": "incidentExist",
      "outputs": [
        {
          "internalType": "bool",
          "name": "",
          "type": "bool"
        }
      ],
      "stateMutability": "view",
      "type": "function",
      "constant": true
    },
    {
      "inputs": [
        {
          "internalType": "string",
          "name": "",
          "type": "string"
        }
      ],
      "name": "incidents",
      "outputs": [
        {
          "components": [
            {
              "internalType": "int256",
              "name": "latitude",
              "type": "int256"
            },
            {
              "internalType": "int256",
              "name": "longitude",
              "type": "int256"
            }
          ],
          "internalType": "struct TrafficJamPrediction.Location",
          "name": "location",
          "type": "tuple"
        },
        {
          "internalType": "string",
          "name": "roadId",
          "type": "string"
        },
        {
          "internalType": "enum TrafficJamPrediction.RoadType",
          "name": "roadType",
          "type": "uint8"
        },
        {
          "internalType": "enum TrafficJamPrediction.RoadCondition",
          "name": "roadCondition",
          "type": "uint8"
        },
        {
          "internalType": "enum TrafficJamPrediction.RoadEvent",
          "name": "roadEvent",
          "type": "uint8"
        },
        {
          "internalType": "uint256",
          "name": "day",
          "type": "uint256"
        },
        {
          "internalType": "uint256",
          "name": "timeslot",
          "type": "uint256"
        },
        {
          "internalType": "address",
          "name": "firstUser",
          "type": "address"
        },
        {
          "internalType": "uint256",
          "name": "confirmNumber",
          "type": "uint256"
        }
      ],
      "stateMutability": "view",
      "type": "function",
      "constant": true
    },
    {
      "inputs": [],
      "name": "tokenReward",
      "outputs": [
        {
          "internalType": "uint256",
          "name": "",
          "type": "uint256"
        }
      ],
      "stateMutability": "view",
      "type": "function",
      "constant": true
    },
    {
      "inputs": [],
      "name": "createAccount",
      "outputs": [],
      "stateMutability": "nonpayable",
      "type": "function"
    },
    {
      "inputs": [
        {
          "internalType": "int256",
          "name": "_latitude",
          "type": "int256"
        },
        {
          "internalType": "int256",
          "name": "_longitude",
          "type": "int256"
        },
        {
          "internalType": "string",
          "name": "_roadId",
          "type": "string"
        },
        {
          "internalType": "enum TrafficJamPrediction.RoadType",
          "name": "_roadType",
          "type": "uint8"
        },
        {
          "internalType": "enum TrafficJamPrediction.RoadCondition",
          "name": "_roadCondition",
          "type": "uint8"
        },
        {
          "internalType": "enum TrafficJamPrediction.RoadEvent",
          "name": "_event",
          "type": "uint8"
        },
        {
          "internalType": "uint256",
          "name": "_timestamp",
          "type": "uint256"
        }
      ],
      "name": "shareIncident",
      "outputs": [],
      "stateMutability": "nonpayable",
      "type": "function"
    },
    {
      "inputs": [
        {
          "internalType": "string",
          "name": "hash",
          "type": "string"
        }
      ],
      "name": "getIncident",
      "outputs": [
        {
          "components": [
            {
              "components": [
                {
                  "internalType": "int256",
                  "name": "latitude",
                  "type": "int256"
                },
                {
                  "internalType": "int256",
                  "name": "longitude",
                  "type": "int256"
                }
              ],
              "internalType": "struct TrafficJamPrediction.Location",
              "name": "location",
              "type": "tuple"
            },
            {
              "internalType": "string",
              "name": "roadId",
              "type": "string"
            },
            {
              "internalType": "enum TrafficJamPrediction.RoadType",
              "name": "roadType",
              "type": "uint8"
            },
            {
              "internalType": "enum TrafficJamPrediction.RoadCondition",
              "name": "roadCondition",
              "type": "uint8"
            },
            {
              "internalType": "enum TrafficJamPrediction.RoadEvent",
              "name": "roadEvent",
              "type": "uint8"
            },
            {
              "internalType": "uint256",
              "name": "day",
              "type": "uint256"
            },
            {
              "internalType": "uint256",
              "name": "timeslot",
              "type": "uint256"
            },
            {
              "internalType": "address",
              "name": "firstUser",
              "type": "address"
            },
            {
              "internalType": "uint256",
              "name": "confirmNumber",
              "type": "uint256"
            }
          ],
          "internalType": "struct TrafficJamPrediction.Incident",
          "name": "incident",
          "type": "tuple"
        }
      ],
      "stateMutability": "view",
      "type": "function",
      "constant": true
    },
    {
      "inputs": [],
      "name": "getTrafficJamProbability",
      "outputs": [
        {
          "internalType": "uint256",
          "name": "probability",
          "type": "uint256"
        }
      ],
      "stateMutability": "pure",
      "type": "function",
      "constant": true
    },
    {
      "inputs": [
        {
          "internalType": "uint256",
          "name": "_timestamp",
          "type": "uint256"
        }
      ],
      "name": "calculateTimeslot",
      "outputs": [
        {
          "internalType": "uint256",
          "name": "",
          "type": "uint256"
        }
      ],
      "stateMutability": "pure",
      "type": "function",
      "constant": true
    },
    {
      "inputs": [
        {
          "internalType": "uint256",
          "name": "_timestamp",
          "type": "uint256"
        }
      ],
      "name": "calculateDay",
      "outputs": [
        {
          "internalType": "uint256",
          "name": "",
          "type": "uint256"
        }
      ],
      "stateMutability": "pure",
      "type": "function",
      "constant": true
    },
    {
      "inputs": [
        {
          "internalType": "uint256",
          "name": "v",
          "type": "uint256"
        }
      ],
      "name": "uintToString",
      "outputs": [
        {
          "internalType": "string",
          "name": "str",
          "type": "string"
        }
      ],
      "stateMutability": "pure",
      "type": "function",
      "constant": true
    }
  ],
  "bytecode": "0x608060405234801561001057600080fd5b506000600481905550600a600581905550612829806100306000396000f3fe608060405234801561001057600080fd5b50600436106100cf5760003560e01c80639448db7a1161008c578063a09b86ac11610066578063a09b86ac1461022e578063b1437f951461024c578063e93956791461027c578063f91e9498146102ac576100cf565b80639448db7a146101bc578063990ad2a0146101ec5780639dca362f14610224576100cf565b80635e5c06e2146100d457806368af56e5146101045780636e66f6e91461013457806377c166ca146101525780638ed3eb2b146101825780639435b5851461019e575b600080fd5b6100ee60048036038101906100e99190611605565b6102dc565b6040516100fb919061164d565b60405180910390f35b61011e600480360381019061011991906117ae565b6102fc565b60405161012b9190611ab3565b60405180910390f35b61013c610514565b6040516101499190611ae4565b60405180910390f35b61016c60048036038101906101679190611b2b565b61051a565b6040516101799190611ae4565b60405180910390f35b61019c60048036038101906101979190611bf3565b610537565b005b6101a6610b7c565b6040516101b39190611ae4565b60405180910390f35b6101d660048036038101906101d19190611cb1565b610b8b565b6040516101e3919061164d565b60405180910390f35b610206600480360381019061020191906117ae565b610bd0565b60405161021b99989796959493929190611dc2565b60405180910390f35b61022c610d21565b005b610236610e06565b6040516102439190611ae4565b60405180910390f35b61026660048036038101906102619190611b2b565b610e0c565b6040516102739190611ae4565b60405180910390f35b61029660048036038101906102919190611b2b565b610e42565b6040516102a39190611e57565b60405180910390f35b6102c660048036038101906102c191906117ae565b61149c565b6040516102d3919061164d565b60405180910390f35b60006020528060005260406000206000915054906101000a900460ff1681565b6103046114db565b6001826040516103149190611eb5565b9081526020016040518091039020604051806101200160405290816000820160405180604001604052908160008201548152602001600182015481525050815260200160028201805461036690611efb565b80601f016020809104026020016040519081016040528092919081815260200182805461039290611efb565b80156103df5780601f106103b4576101008083540402835291602001916103df565b820191906000526020600020905b8154815290600101906020018083116103c257829003601f168201915b505050505081526020016003820160009054906101000a900460ff16600581111561040d5761040c6118be565b5b600581111561041f5761041e6118be565b5b81526020016003820160019054906101000a900460ff166003811115610448576104476118be565b5b600381111561045a576104596118be565b5b81526020016003820160029054906101000a900460ff166006811115610483576104826118be565b5b6006811115610495576104946118be565b5b815260200160048201548152602001600582015481526020016006820160009054906101000a900473ffffffffffffffffffffffffffffffffffffffff1673ffffffffffffffffffffffffffffffffffffffff1673ffffffffffffffffffffffffffffffffffffffff1681526020016007820154815250509050919050565b60055481565b600080620151809050808361052f9190611f8a565b915050919050565b6000803373ffffffffffffffffffffffffffffffffffffffff1673ffffffffffffffffffffffffffffffffffffffff16815260200190815260200160002060009054906101000a900460ff166105c2576040517f08c379a00000000000000000000000000000000000000000000000000000000081526004016105b990612007565b60405180910390fd5b60008082146105d157816105d3565b425b905060006105e082610e0c565b905060006105ed8361051a565b9050600088905080604051602001610605919061204d565b60405160208183030381529060405290508061062084610e42565b604051602001610631929190612073565b604051602081830303815290604052905080604051602001610653919061204d565b60405160208183030381529060405290508061066e83610e42565b60405160200161067f929190612073565b6040516020818303038152906040529050600015156003826040516106a49190611eb5565b908152602001604051809103902060003373ffffffffffffffffffffffffffffffffffffffff1673ffffffffffffffffffffffffffffffffffffffff16815260200190815260200160002060009054906101000a900460ff1615151461073f576040517f08c379a0000000000000000000000000000000000000000000000000000000008152600401610736906120e3565b60405180910390fd5b60028160405161074f9190611eb5565b908152602001604051809103902060009054906101000a900460ff16610a765760405180610120016040528060405180604001604052808e81526020018d81525081526020018a81526020018960058111156107ae576107ad6118be565b5b81526020018860038111156107c6576107c56118be565b5b81526020018760068111156107de576107dd6118be565b5b81526020018381526020018481526020013373ffffffffffffffffffffffffffffffffffffffff16815260200160008152506001826040516108209190611eb5565b908152602001604051809103902060008201518160000160008201518160000155602082015181600101555050602082015181600201908161086291906122af565b5060408201518160030160006101000a81548160ff0219169083600581111561088e5761088d6118be565b5b021790555060608201518160030160016101000a81548160ff021916908360038111156108be576108bd6118be565b5b021790555060808201518160030160026101000a81548160ff021916908360068111156108ee576108ed6118be565b5b021790555060a0820151816004015560c0820151816005015560e08201518160060160006101000a81548173ffffffffffffffffffffffffffffffffffffffff021916908373ffffffffffffffffffffffffffffffffffffffff1602179055506101008201518160070155905050600160028260405161096e9190611eb5565b908152602001604051809103902060006101000a81548160ff02191690831515021790555060016003826040516109a59190611eb5565b908152602001604051809103902060003373ffffffffffffffffffffffffffffffffffffffff1673ffffffffffffffffffffffffffffffffffffffff16815260200190815260200160002060006101000a81548160ff02191690831515021790555080604051610a159190611eb5565b60405180910390207f0249f75979f05128cb98dc51dcb860896e908bcc9e5b36d3182766f65025e248600183604051610a4e9190611eb5565b9081526020016040518091039020604051610a69919061266e565b60405180910390a2610b6f565b600181604051610a869190611eb5565b90815260200160405180910390206007016000815480929190610aa890612690565b91905055506001600382604051610abf9190611eb5565b908152602001604051809103902060003373ffffffffffffffffffffffffffffffffffffffff1673ffffffffffffffffffffffffffffffffffffffff16815260200190815260200160002060006101000a81548160ff02191690831515021790555080604051610b2f9190611eb5565b60405180910390207fcc0a77509def7a2b56e9a01824660c2ff76c0934775c1f2aff6ec703fd007ae233604051610b6691906126d8565b60405180910390a25b5050505050505050505050565b6000610b866114d2565b905090565b6003828051602081018201805184825260208301602085012081835280955050505050506020528060005260406000206000915091509054906101000a900460ff1681565b600181805160208101820180518482526020830160208501208183528095505050505050600091509050806000016040518060400160405290816000820154815260200160018201548152505090806002018054610c2d90611efb565b80601f0160208091040260200160405190810160405280929190818152602001828054610c5990611efb565b8015610ca65780601f10610c7b57610100808354040283529160200191610ca6565b820191906000526020600020905b815481529060010190602001808311610c8957829003601f168201915b5050505050908060030160009054906101000a900460ff16908060030160019054906101000a900460ff16908060030160029054906101000a900460ff16908060040154908060050154908060060160009054906101000a900473ffffffffffffffffffffffffffffffffffffffff16908060070154905089565b6000803373ffffffffffffffffffffffffffffffffffffffff1673ffffffffffffffffffffffffffffffffffffffff16815260200190815260200160002060009054906101000a900460ff1615610dad576040517f08c379a0000000000000000000000000000000000000000000000000000000008152600401610da49061273f565b60405180910390fd5b60016000803373ffffffffffffffffffffffffffffffffffffffff1673ffffffffffffffffffffffffffffffffffffffff16815260200190815260200160002060006101000a81548160ff021916908315150217905550565b60045481565b60008062015180905060008184610e23919061275f565b9050600061070882610e359190611f8a565b9050809350505050919050565b606060006064905060008167ffffffffffffffff811115610e6657610e65611683565b5b6040519080825280601f01601f191660200182016040528015610e985781602001600182028036833780820191505090505b50905060005b600085146113a9576000600a86610eb5919061275f565b9050600a86610ec49190611f8a565b955060008103610f42577f3000000000000000000000000000000000000000000000000000000000000000838380610efb90612690565b945081518110610f0e57610f0d612790565b5b60200101907effffffffffffffffffffffffffffffffffffffffffffffffffffffffffffff1916908160001a9053506113a3565b60018103610fbe577f3100000000000000000000000000000000000000000000000000000000000000838380610f7790612690565b945081518110610f8a57610f89612790565b5b60200101907effffffffffffffffffffffffffffffffffffffffffffffffffffffffffffff1916908160001a9053506113a2565b6002810361103a577f3200000000000000000000000000000000000000000000000000000000000000838380610ff390612690565b94508151811061100657611005612790565b5b60200101907effffffffffffffffffffffffffffffffffffffffffffffffffffffffffffff1916908160001a9053506113a1565b600381036110b6577f330000000000000000000000000000000000000000000000000000000000000083838061106f90612690565b94508151811061108257611081612790565b5b60200101907effffffffffffffffffffffffffffffffffffffffffffffffffffffffffffff1916908160001a9053506113a0565b60048103611132577f34000000000000000000000000000000000000000000000000000000000000008383806110eb90612690565b9450815181106110fe576110fd612790565b5b60200101907effffffffffffffffffffffffffffffffffffffffffffffffffffffffffffff1916908160001a90535061139f565b600581036111ae577f350000000000000000000000000000000000000000000000000000000000000083838061116790612690565b94508151811061117a57611179612790565b5b60200101907effffffffffffffffffffffffffffffffffffffffffffffffffffffffffffff1916908160001a90535061139e565b6006810361122a577f36000000000000000000000000000000000000000000000000000000000000008383806111e390612690565b9450815181106111f6576111f5612790565b5b60200101907effffffffffffffffffffffffffffffffffffffffffffffffffffffffffffff1916908160001a90535061139d565b600781036112a6577f370000000000000000000000000000000000000000000000000000000000000083838061125f90612690565b94508151811061127257611271612790565b5b60200101907effffffffffffffffffffffffffffffffffffffffffffffffffffffffffffff1916908160001a90535061139c565b60088103611322577f38000000000000000000000000000000000000000000000000000000000000008383806112db90612690565b9450815181106112ee576112ed612790565b5b60200101907effffffffffffffffffffffffffffffffffffffffffffffffffffffffffffff1916908160001a90535061139b565b6009810361139a577f390000000000000000000000000000000000000000000000000000000000000083838061135790612690565b94508151811061136a57611369612790565b5b60200101907effffffffffffffffffffffffffffffffffffffffffffffffffffffffffffff1916908160001a9053505b5b5b5b5b5b5b5b5b5b50610e9e565b60008167ffffffffffffffff8111156113c5576113c4611683565b5b6040519080825280601f01601f1916602001820160405280156113f75781602001600182028036833780820191505090505b50905060005b8281101561148f57838160018561141491906127bf565b61141e91906127bf565b8151811061142f5761142e612790565b5b602001015160f81c60f81b82828151811061144d5761144c612790565b5b60200101907effffffffffffffffffffffffffffffffffffffffffffffffffffffffffffff1916908160001a905350808061148790612690565b9150506113fd565b5080945050505050919050565b6002818051602081018201805184825260208301602085012081835280955050505050506000915054906101000a900460ff1681565b60006028905090565b6040518061012001604052806114ef611579565b8152602001606081526020016000600581111561150f5761150e6118be565b5b815260200160006003811115611528576115276118be565b5b815260200160006006811115611541576115406118be565b5b81526020016000815260200160008152602001600073ffffffffffffffffffffffffffffffffffffffff168152602001600081525090565b604051806040016040528060008152602001600081525090565b6000604051905090565b600080fd5b600080fd5b600073ffffffffffffffffffffffffffffffffffffffff82169050919050565b60006115d2826115a7565b9050919050565b6115e2816115c7565b81146115ed57600080fd5b50565b6000813590506115ff816115d9565b92915050565b60006020828403121561161b5761161a61159d565b5b6000611629848285016115f0565b91505092915050565b60008115159050919050565b61164781611632565b82525050565b6000602082019050611662600083018461163e565b92915050565b600080fd5b600080fd5b6000601f19601f8301169050919050565b7f4e487b7100000000000000000000000000000000000000000000000000000000600052604160045260246000fd5b6116bb82611672565b810181811067ffffffffffffffff821117156116da576116d9611683565b5b80604052505050565b60006116ed611593565b90506116f982826116b2565b919050565b600067ffffffffffffffff82111561171957611718611683565b5b61172282611672565b9050602081019050919050565b82818337600083830152505050565b600061175161174c846116fe565b6116e3565b90508281526020810184848401111561176d5761176c61166d565b5b61177884828561172f565b509392505050565b600082601f83011261179557611794611668565b5b81356117a584826020860161173e565b91505092915050565b6000602082840312156117c4576117c361159d565b5b600082013567ffffffffffffffff8111156117e2576117e16115a2565b5b6117ee84828501611780565b91505092915050565b6000819050919050565b61180a816117f7565b82525050565b6040820160008201516118266000850182611801565b5060208201516118396020850182611801565b50505050565b600081519050919050565b600082825260208201905092915050565b60005b8381101561187957808201518184015260208101905061185e565b60008484015250505050565b60006118908261183f565b61189a818561184a565b93506118aa81856020860161185b565b6118b381611672565b840191505092915050565b7f4e487b7100000000000000000000000000000000000000000000000000000000600052602160045260246000fd5b600681106118fe576118fd6118be565b5b50565b600081905061190f826118ed565b919050565b600061191f82611901565b9050919050565b61192f81611914565b82525050565b60048110611946576119456118be565b5b50565b600081905061195782611935565b919050565b600061196782611949565b9050919050565b6119778161195c565b82525050565b6007811061198e5761198d6118be565b5b50565b600081905061199f8261197d565b919050565b60006119af82611991565b9050919050565b6119bf816119a4565b82525050565b6000819050919050565b6119d8816119c5565b82525050565b6119e7816115c7565b82525050565b600061014083016000830151611a066000860182611810565b5060208301518482036040860152611a1e8282611885565b9150506040830151611a336060860182611926565b506060830151611a46608086018261196e565b506080830151611a5960a08601826119b6565b5060a0830151611a6c60c08601826119cf565b5060c0830151611a7f60e08601826119cf565b5060e0830151611a936101008601826119de565b50610100830151611aa86101208601826119cf565b508091505092915050565b60006020820190508181036000830152611acd81846119ed565b905092915050565b611ade816119c5565b82525050565b6000602082019050611af96000830184611ad5565b92915050565b611b08816119c5565b8114611b1357600080fd5b50565b600081359050611b2581611aff565b92915050565b600060208284031215611b4157611b4061159d565b5b6000611b4f84828501611b16565b91505092915050565b611b61816117f7565b8114611b6c57600080fd5b50565b600081359050611b7e81611b58565b92915050565b60068110611b9157600080fd5b50565b600081359050611ba381611b84565b92915050565b60048110611bb657600080fd5b50565b600081359050611bc881611ba9565b92915050565b60078110611bdb57600080fd5b50565b600081359050611bed81611bce565b92915050565b600080600080600080600060e0888a031215611c1257611c1161159d565b5b6000611c208a828b01611b6f565b9750506020611c318a828b01611b6f565b965050604088013567ffffffffffffffff811115611c5257611c516115a2565b5b611c5e8a828b01611780565b9550506060611c6f8a828b01611b94565b9450506080611c808a828b01611bb9565b93505060a0611c918a828b01611bde565b92505060c0611ca28a828b01611b16565b91505092959891949750929550565b60008060408385031215611cc857611cc761159d565b5b600083013567ffffffffffffffff811115611ce657611ce56115a2565b5b611cf285828601611780565b9250506020611d03858286016115f0565b9150509250929050565b604082016000820151611d236000850182611801565b506020820151611d366020850182611801565b50505050565b600082825260208201905092915050565b6000611d588261183f565b611d628185611d3c565b9350611d7281856020860161185b565b611d7b81611672565b840191505092915050565b611d8f81611914565b82525050565b611d9e8161195c565b82525050565b611dad816119a4565b82525050565b611dbc816115c7565b82525050565b600061014082019050611dd8600083018c611d0d565b8181036040830152611dea818b611d4d565b9050611df9606083018a611d86565b611e066080830189611d95565b611e1360a0830188611da4565b611e2060c0830187611ad5565b611e2d60e0830186611ad5565b611e3b610100830185611db3565b611e49610120830184611ad5565b9a9950505050505050505050565b60006020820190508181036000830152611e718184611d4d565b905092915050565b600081905092915050565b6000611e8f8261183f565b611e998185611e79565b9350611ea981856020860161185b565b80840191505092915050565b6000611ec18284611e84565b915081905092915050565b7f4e487b7100000000000000000000000000000000000000000000000000000000600052602260045260246000fd5b60006002820490506001821680611f1357607f821691505b602082108103611f2657611f25611ecc565b5b50919050565b7f4e487b7100000000000000000000000000000000000000000000000000000000600052601260045260246000fd5b7f4e487b7100000000000000000000000000000000000000000000000000000000600052601160045260246000fd5b6000611f95826119c5565b9150611fa0836119c5565b925082611fb057611faf611f2c565b5b828204905092915050565b7f4163636f756e7420646f6573206e6f7420657869737400000000000000000000600082015250565b6000611ff1601683611d3c565b9150611ffc82611fbb565b602082019050919050565b6000602082019050818103600083015261202081611fe4565b9050919050565b7f5f00000000000000000000000000000000000000000000000000000000000000815250565b60006120598284611e84565b915061206482612027565b60018201915081905092915050565b600061207f8285611e84565b915061208b8284611e84565b91508190509392505050565b7f596f7520616c7265616479207368617265207468697320696e636964656e7400600082015250565b60006120cd601f83611d3c565b91506120d882612097565b602082019050919050565b600060208201905081810360008301526120fc816120c0565b9050919050565b60008190508160005260206000209050919050565b60006020601f8301049050919050565b600082821b905092915050565b6000600883026121657fffffffffffffffffffffffffffffffffffffffffffffffffffffffffffffffff82612128565b61216f8683612128565b95508019841693508086168417925050509392505050565b6000819050919050565b60006121ac6121a76121a2846119c5565b612187565b6119c5565b9050919050565b6000819050919050565b6121c683612191565b6121da6121d2826121b3565b848454612135565b825550505050565b600090565b6121ef6121e2565b6121fa8184846121bd565b505050565b5b8181101561221e576122136000826121e7565b600181019050612200565b5050565b601f8211156122635761223481612103565b61223d84612118565b8101602085101561224c578190505b61226061225885612118565b8301826121ff565b50505b505050565b600082821c905092915050565b600061228660001984600802612268565b1980831691505092915050565b600061229f8383612275565b9150826002028217905092915050565b6122b88261183f565b67ffffffffffffffff8111156122d1576122d0611683565b5b6122db8254611efb565b6122e6828285612222565b600060209050601f8311600181146123195760008415612307578287015190505b6123118582612293565b865550612379565b601f19841661232786612103565b60005b8281101561234f5784890151825560018201915060208501945060208101905061232a565b8683101561236c5784890151612368601f891682612275565b8355505b6001600288020188555050505b505050505050565b60008160001c9050919050565b6000819050919050565b60006123ab6123a683612381565b61238e565b9050919050565b6040820160008083015490506123c781612398565b6123d46000860182611801565b50600183015490506123e581612398565b6123f26020860182611801565b5050505050565b6000815461240681611efb565b612410818661184a565b9450600182166000811461242b576001811461244157612474565b60ff198316865281151560200286019350612474565b61244a85612103565b60005b8381101561246c5781548189015260018201915060208101905061244d565b808801955050505b50505092915050565b600060ff82169050919050565b600061249d61249883612381565b61247d565b9050919050565b60008160081c9050919050565b600060ff82169050919050565b60006124d16124cc836124a4565b6124b1565b9050919050565b60008160101c9050919050565b600060ff82169050919050565b6000612505612500836124d8565b6124e5565b9050919050565b6000819050919050565b600061252961252483612381565b61250c565b9050919050565b600073ffffffffffffffffffffffffffffffffffffffff82169050919050565b600061256361255e83612381565b612530565b9050919050565b60006101408301600080840161258360008701826123b2565b5060028401858303604087015261259a83826123f9565b925050600384015490506125ad8161248a565b6125ba6060870182611926565b506125c4816124be565b6125d1608087018261196e565b506125db816124f2565b6125e860a08701826119b6565b50600484015490506125f981612516565b61260660c08701826119cf565b506005840154905061261781612516565b61262460e08701826119cf565b506006840154905061263581612550565b6126436101008701826119de565b506007840154905061265481612516565b6126626101208701826119cf565b50819250505092915050565b60006020820190508181036000830152612688818461256a565b905092915050565b600061269b826119c5565b91507fffffffffffffffffffffffffffffffffffffffffffffffffffffffffffffffff82036126cd576126cc611f5b565b5b600182019050919050565b60006020820190506126ed6000830184611db3565b92915050565b7f4163636f756e7420616c72656164792065786973747300000000000000000000600082015250565b6000612729601683611d3c565b9150612734826126f3565b602082019050919050565b600060208201905081810360008301526127588161271c565b9050919050565b600061276a826119c5565b9150612775836119c5565b92508261278557612784611f2c565b5b828206905092915050565b7f4e487b7100000000000000000000000000000000000000000000000000000000600052603260045260246000fd5b60006127ca826119c5565b91506127d5836119c5565b92508282039050818111156127ed576127ec611f5b565b5b9291505056fea2646970667358221220b5bd0536acd84b3493fdfe06f31298bb5f2c18cbb1dfcffcd1529ab3029fa66a64736f6c63430008110033",
  "immutableReferences": {},
  "source": "// SPDX-License-Identifier: MIT\r\npragma solidity ^0.8.17;\r\ncontract TrafficJamPrediction {\r\n\r\n    enum RoadType{\r\n        Expressway,\r\n        NationalHighway,\r\n        StateHighway,\r\n        MajorDistrictRoad,\r\n        OtherDistrictRoad,\r\n        RuralRoad\r\n    }\r\n\r\n    enum RoadCondition{\r\n        Smooth,\r\n        Moderate,\r\n        Poor,\r\n        ExtremelyBad\r\n    }\r\n\r\n    enum RoadEvent{\r\n        Construction,\r\n        Accident,\r\n        Barricades,\r\n        TollBooth,\r\n        DemonstrationsOrProtests,\r\n        Marathon,\r\n        Others\r\n    }\r\n\r\n    struct Location {\r\n        int256 latitude;\r\n        int256 longitude;\r\n    }\r\n\r\n    struct Incident {\r\n        Location location;\r\n        string roadId;\r\n        RoadType roadType;\r\n        RoadCondition roadCondition;\r\n        RoadEvent roadEvent;\r\n        uint day;\r\n        uint timeslot;\r\n        address firstUser;\r\n        uint confirmNumber;\r\n    }\r\n\r\n    mapping(address => bool) public accounts;\r\n    mapping(string => Incident) public incidents;\r\n    mapping(string => bool) public incidentExist;\r\n    mapping(string => mapping(address => bool)) public incidentConfirm;\r\n\r\n    uint public incidentCount;\r\n    uint public tokenReward;\r\n\r\n    event IncidentShared(string indexed incidentHash, Incident incident);\r\n    event IncidentConfirm(string indexed incidentHash, address user);\r\n\r\n    constructor() {\r\n        incidentCount = 0;\r\n        tokenReward = 10; // Adjust the token reward as needed\r\n    }\r\n\r\n    function createAccount() external {\r\n        require(!accounts[msg.sender], \"Account already exists\");\r\n        accounts[msg.sender] = true;\r\n    }\r\n\r\n    function shareIncident(\r\n        int256 _latitude,\r\n        int256 _longitude,\r\n        string memory _roadId,\r\n        RoadType _roadType,\r\n        RoadCondition _roadCondition,\r\n        RoadEvent _event,\r\n        uint256 _timestamp\r\n    ) external {\r\n        require(accounts[msg.sender], \"Account does not exist\");\r\n\r\n        uint256 currentTimestamp = _timestamp == 0 ? block.timestamp : _timestamp;\r\n        uint _timeslot = calculateTimeslot(currentTimestamp);\r\n        uint _day = calculateDay(currentTimestamp);\r\n        string memory incidentHash = _roadId;\r\n        incidentHash = string.concat(incidentHash, \"_\");\r\n        incidentHash = string.concat(incidentHash, uintToString(_timeslot));\r\n        incidentHash = string.concat(incidentHash, \"_\");\r\n        incidentHash = string.concat(incidentHash, uintToString(_day));\r\n\r\n        require(incidentConfirm[incidentHash][msg.sender] == false, \"You already share this incident\");\r\n        //TODO: Check unique incident\r\n        if (!incidentExist[incidentHash]) {\r\n            incidents[incidentHash] = Incident({\r\n                location: Location({\r\n                    latitude: _latitude,\r\n                    longitude: _longitude\r\n                }),\r\n                roadId: _roadId,\r\n                roadType: _roadType,\r\n                roadCondition: _roadCondition,\r\n                roadEvent: _event,\r\n                day: _day,\r\n                timeslot: _timeslot,\r\n                firstUser: msg.sender,\r\n                confirmNumber: 0\r\n            });\r\n            incidentExist[incidentHash] = true;\r\n            incidentConfirm[incidentHash][msg.sender] = true;\r\n            emit IncidentShared(incidentHash, incidents[incidentHash]);\r\n        }\r\n        else{\r\n            incidents[incidentHash].confirmNumber++;\r\n            incidentConfirm[incidentHash][msg.sender] = true;\r\n            emit IncidentConfirm(incidentHash, msg.sender);\r\n        }\r\n    }\r\n\r\n    function getIncident(string memory hash)\r\n        external \r\n        view\r\n        returns (Incident memory incident)\r\n    {\r\n        incident = incidents[hash];\r\n        return incident;\r\n    }\r\n\r\n    function getTrafficJamProbability()\r\n        external\r\n        pure\r\n        returns (uint probability)\r\n    {\r\n        probability = calculateProbability();\r\n        return probability;\r\n    }\r\n\r\n    function calculateProbability()\r\n        internal\r\n        pure\r\n        returns (uint probability)\r\n    {\r\n        probability = 40;\r\n        return probability;\r\n    }\r\n\r\n    uint256 constant TIMESLOT_DURATION = 30 minutes;\r\n\r\n    function calculateTimeslot(uint256 _timestamp) public pure returns (uint) {\r\n        uint256 secondsInDay = 24 hours;\r\n        uint256 secondsSinceMidnight = _timestamp % secondsInDay;\r\n        uint256 timeslot = secondsSinceMidnight / TIMESLOT_DURATION;\r\n        return timeslot;\r\n    }\r\n\r\n    function calculateDay(uint256 _timestamp) public pure returns (uint) {\r\n        uint256 secondsInDay = 24 hours;\r\n        return _timestamp / secondsInDay;\r\n    }\r\n\r\n    function uintToString(uint v) public pure returns (string memory str) {\r\n        uint maxlength = 100;\r\n        bytes memory reversed = new bytes(maxlength);\r\n        uint i = 0;\r\n        while (v != 0) {\r\n            uint remainder = v % 10;\r\n            v = v / 10;\r\n            if (remainder == 0){\r\n                reversed[i++] = '0';\r\n            }\r\n            else if (remainder == 1){\r\n                reversed[i++] = '1';\r\n            }\r\n            else if (remainder == 2){\r\n                reversed[i++] = '2';\r\n            }\r\n            else if (remainder == 3){\r\n                reversed[i++] = '3';\r\n            }\r\n            else if (remainder == 4){\r\n                reversed[i++] = '4';\r\n            }\r\n            else if (remainder == 5){\r\n                reversed[i++] = '5';\r\n            }\r\n            else if (remainder == 6){\r\n                reversed[i++] = '6';\r\n            }\r\n            else if (remainder == 7){\r\n                reversed[i++] = '7';\r\n            }\r\n            else if (remainder == 8){\r\n                reversed[i++] = '8';\r\n            }\r\n            else if (remainder == 9){\r\n                reversed[i++] = '9';\r\n            }\r\n        }\r\n        bytes memory s = new bytes(i);\r\n        for (uint j = 0; j < i; j++) {\r\n            s[j] = reversed[i - 1 - j];\r\n        }\r\n        str = string(s);\r\n    }\r\n}",
  "sourcePath": "C:\\Users\\WBPC.VN\\PycharmProjects\\traffic-jam-prediction\\contracts\\TrafficJamPrediction.sol",
  "compiler": {
    "name": "solc",
    "version": "0.8.17+commit.8df45f5f.Emscripten.clang"
  },
  "schemaVersion": "3.4.14",
  "updatedAt": "2023-07-17T19:05:20.015Z",
  "networkType": "ethereum",
  "devdoc": {
    "kind": "dev",
    "methods": {},
    "version": 1
  },
  "userdoc": {
    "kind": "user",
    "methods": {},
    "version": 1
  }
}