{
  "contractName": "TrafficJamPrediction",
  "abi": [
    {
      "inputs": [],
      "stateMutability": "nonpayable",
      "type": "constructor"
    },
    {
      "anonymous": false,
      "inputs": [
        {
          "indexed": true,
          "internalType": "string",
          "name": "incidentHash",
          "type": "string"
        },
        {
          "indexed": false,
          "internalType": "address",
          "name": "user",
          "type": "address"
        }
      ],
      "name": "IncidentConfirm",
      "type": "event"
    },
    {
      "anonymous": false,
      "inputs": [
        {
          "indexed": true,
          "internalType": "string",
          "name": "incidentHash",
          "type": "string"
        },
        {
          "components": [
            {
              "components": [
                {
                  "internalType": "int256",
                  "name": "latitude",
                  "type": "int256"
                },
                {
                  "internalType": "int256",
                  "name": "longitude",
                  "type": "int256"
                }
              ],
              "internalType": "struct TrafficJamPrediction.Location",
              "name": "location",
              "type": "tuple"
            },
            {
              "internalType": "string",
              "name": "roadId",
              "type": "string"
            },
            {
              "internalType": "enum TrafficJamPrediction.RoadType",
              "name": "roadType",
              "type": "uint8"
            },
            {
              "internalType": "enum TrafficJamPrediction.RoadCondition",
              "name": "roadCondition",
              "type": "uint8"
            },
            {
              "internalType": "enum TrafficJamPrediction.RoadEvent",
              "name": "roadEvent",
              "type": "uint8"
            },
            {
              "internalType": "uint256",
              "name": "day",
              "type": "uint256"
            },
            {
              "internalType": "uint256",
              "name": "timeslot",
              "type": "uint256"
            },
            {
              "internalType": "address",
              "name": "firstUser",
              "type": "address"
            },
            {
              "internalType": "uint256",
              "name": "confirmNumber",
              "type": "uint256"
            }
          ],
          "indexed": false,
          "internalType": "struct TrafficJamPrediction.Incident",
          "name": "incident",
          "type": "tuple"
        }
      ],
      "name": "IncidentShared",
      "type": "event"
    },
    {
      "inputs": [
        {
          "internalType": "address",
          "name": "",
          "type": "address"
        }
      ],
      "name": "accounts",
      "outputs": [
        {
          "internalType": "bool",
          "name": "",
          "type": "bool"
        }
      ],
      "stateMutability": "view",
      "type": "function"
    },
    {
      "inputs": [
        {
          "internalType": "string",
          "name": "",
          "type": "string"
        },
        {
          "internalType": "address",
          "name": "",
          "type": "address"
        }
      ],
      "name": "incidentConfirm",
      "outputs": [
        {
          "internalType": "bool",
          "name": "",
          "type": "bool"
        }
      ],
      "stateMutability": "view",
      "type": "function"
    },
    {
      "inputs": [],
      "name": "incidentCount",
      "outputs": [
        {
          "internalType": "uint256",
          "name": "",
          "type": "uint256"
        }
      ],
      "stateMutability": "view",
      "type": "function"
    },
    {
      "inputs": [
        {
          "internalType": "string",
          "name": "",
          "type": "string"
        }
      ],
      "name": "incidentExist",
      "outputs": [
        {
          "internalType": "bool",
          "name": "",
          "type": "bool"
        }
      ],
      "stateMutability": "view",
      "type": "function"
    },
    {
      "inputs": [
        {
          "internalType": "string",
          "name": "",
          "type": "string"
        }
      ],
      "name": "incidents",
      "outputs": [
        {
          "components": [
            {
              "internalType": "int256",
              "name": "latitude",
              "type": "int256"
            },
            {
              "internalType": "int256",
              "name": "longitude",
              "type": "int256"
            }
          ],
          "internalType": "struct TrafficJamPrediction.Location",
          "name": "location",
          "type": "tuple"
        },
        {
          "internalType": "string",
          "name": "roadId",
          "type": "string"
        },
        {
          "internalType": "enum TrafficJamPrediction.RoadType",
          "name": "roadType",
          "type": "uint8"
        },
        {
          "internalType": "enum TrafficJamPrediction.RoadCondition",
          "name": "roadCondition",
          "type": "uint8"
        },
        {
          "internalType": "enum TrafficJamPrediction.RoadEvent",
          "name": "roadEvent",
          "type": "uint8"
        },
        {
          "internalType": "uint256",
          "name": "day",
          "type": "uint256"
        },
        {
          "internalType": "uint256",
          "name": "timeslot",
          "type": "uint256"
        },
        {
          "internalType": "address",
          "name": "firstUser",
          "type": "address"
        },
        {
          "internalType": "uint256",
          "name": "confirmNumber",
          "type": "uint256"
        }
      ],
      "stateMutability": "view",
      "type": "function"
    },
    {
      "inputs": [],
      "name": "minimunTokenGetProbability",
      "outputs": [
        {
          "internalType": "uint256",
          "name": "",
          "type": "uint256"
        }
      ],
      "stateMutability": "view",
      "type": "function"
    },
    {
      "inputs": [],
      "name": "tokenReward",
      "outputs": [
        {
          "internalType": "uint256",
          "name": "",
          "type": "uint256"
        }
      ],
      "stateMutability": "view",
      "type": "function"
    },
    {
      "inputs": [],
      "name": "createAccount",
      "outputs": [],
      "stateMutability": "nonpayable",
      "type": "function"
    },
    {
      "inputs": [
        {
          "internalType": "int256",
          "name": "_latitude",
          "type": "int256"
        },
        {
          "internalType": "int256",
          "name": "_longitude",
          "type": "int256"
        },
        {
          "internalType": "string",
          "name": "_roadId",
          "type": "string"
        },
        {
          "internalType": "enum TrafficJamPrediction.RoadType",
          "name": "_roadType",
          "type": "uint8"
        },
        {
          "internalType": "enum TrafficJamPrediction.RoadCondition",
          "name": "_roadCondition",
          "type": "uint8"
        },
        {
          "internalType": "enum TrafficJamPrediction.RoadEvent",
          "name": "_event",
          "type": "uint8"
        },
        {
          "internalType": "uint256",
          "name": "_timestamp",
          "type": "uint256"
        }
      ],
      "name": "shareIncident",
      "outputs": [],
      "stateMutability": "payable",
      "type": "function"
    },
    {
      "inputs": [
        {
          "internalType": "string",
          "name": "hash",
          "type": "string"
        }
      ],
      "name": "getIncident",
      "outputs": [
        {
          "components": [
            {
              "components": [
                {
                  "internalType": "int256",
                  "name": "latitude",
                  "type": "int256"
                },
                {
                  "internalType": "int256",
                  "name": "longitude",
                  "type": "int256"
                }
              ],
              "internalType": "struct TrafficJamPrediction.Location",
              "name": "location",
              "type": "tuple"
            },
            {
              "internalType": "string",
              "name": "roadId",
              "type": "string"
            },
            {
              "internalType": "enum TrafficJamPrediction.RoadType",
              "name": "roadType",
              "type": "uint8"
            },
            {
              "internalType": "enum TrafficJamPrediction.RoadCondition",
              "name": "roadCondition",
              "type": "uint8"
            },
            {
              "internalType": "enum TrafficJamPrediction.RoadEvent",
              "name": "roadEvent",
              "type": "uint8"
            },
            {
              "internalType": "uint256",
              "name": "day",
              "type": "uint256"
            },
            {
              "internalType": "uint256",
              "name": "timeslot",
              "type": "uint256"
            },
            {
              "internalType": "address",
              "name": "firstUser",
              "type": "address"
            },
            {
              "internalType": "uint256",
              "name": "confirmNumber",
              "type": "uint256"
            }
          ],
          "internalType": "struct TrafficJamPrediction.Incident",
          "name": "incident",
          "type": "tuple"
        }
      ],
      "stateMutability": "view",
      "type": "function"
    },
    {
      "inputs": [],
      "name": "getTrafficJamProbability",
      "outputs": [
        {
          "internalType": "uint256",
          "name": "probability",
          "type": "uint256"
        }
      ],
      "stateMutability": "payable",
      "type": "function"
    },
    {
      "inputs": [
        {
          "internalType": "uint256",
          "name": "_timestamp",
          "type": "uint256"
        }
      ],
      "name": "calculateTimeslot",
      "outputs": [
        {
          "internalType": "uint256",
          "name": "",
          "type": "uint256"
        }
      ],
      "stateMutability": "pure",
      "type": "function"
    },
    {
      "inputs": [
        {
          "internalType": "uint256",
          "name": "_timestamp",
          "type": "uint256"
        }
      ],
      "name": "calculateDay",
      "outputs": [
        {
          "internalType": "uint256",
          "name": "",
          "type": "uint256"
        }
      ],
      "stateMutability": "pure",
      "type": "function"
    },
    {
      "inputs": [
        {
          "internalType": "uint256",
          "name": "v",
          "type": "uint256"
        }
      ],
      "name": "uintToString",
      "outputs": [
        {
          "internalType": "string",
          "name": "str",
          "type": "string"
        }
      ],
      "stateMutability": "pure",
      "type": "function"
    }
  ],
  "bytecode": "0x608060405234801561001057600080fd5b506000600481905550655af3107a400060058190555064e8d4a51000600681905550612ae0806100416000396000f3fe6080604052600436106100dd5760003560e01c80639448db7a1161007f578063a09b86ac11610059578063a09b86ac146102c2578063b1437f95146102ed578063e93956791461032a578063f91e949814610367576100dd565b80639448db7a14610229578063990ad2a0146102665780639dca362f146102ab576100dd565b80636e66f6e9116100bb5780636e66f6e91461018757806377c166ca146101b25780638ed3eb2b146101ef5780639435b5851461020b576100dd565b80631f24e366146100e25780635e5c06e21461010d57806368af56e51461014a575b600080fd5b3480156100ee57600080fd5b506100f76103a4565b60405161010491906117f7565b60405180910390f35b34801561011957600080fd5b50610134600480360381019061012f9190611884565b6103aa565b60405161014191906118cc565b60405180910390f35b34801561015657600080fd5b50610171600480360381019061016c9190611a2d565b6103ca565b60405161017e9190611d28565b60405180910390f35b34801561019357600080fd5b5061019c61066d565b6040516101a991906117f7565b60405180910390f35b3480156101be57600080fd5b506101d960048036038101906101d49190611d76565b610673565b6040516101e691906117f7565b60405180910390f35b61020960048036038101906102049190611e3e565b610690565b005b610213610cf7565b60405161022091906117f7565b60405180910390f35b34801561023557600080fd5b50610250600480360381019061024b9190611efc565b610dd6565b60405161025d91906118cc565b60405180910390f35b34801561027257600080fd5b5061028d60048036038101906102889190611a2d565b610e1b565b6040516102a29998979695949392919061200d565b60405180910390f35b3480156102b757600080fd5b506102c0610f6c565b005b3480156102ce57600080fd5b506102d7611051565b6040516102e491906117f7565b60405180910390f35b3480156102f957600080fd5b50610314600480360381019061030f9190611d76565b611057565b60405161032191906117f7565b60405180910390f35b34801561033657600080fd5b50610351600480360381019061034c9190611d76565b61108d565b60405161035e91906120a2565b60405180910390f35b34801561037357600080fd5b5061038e60048036038101906103899190611a2d565b6116e7565b60405161039b91906118cc565b60405180910390f35b60065481565b60006020528060005260406000206000915054906101000a900460ff1681565b6103d2611726565b6000803373ffffffffffffffffffffffffffffffffffffffff1673ffffffffffffffffffffffffffffffffffffffff16815260200190815260200160002060009054906101000a900460ff1661045d576040517f08c379a000000000000000000000000000000000000000000000000000000000815260040161045490612110565b60405180910390fd5b60018260405161046d919061216c565b908152602001604051809103902060405180610120016040529081600082016040518060400160405290816000820154815260200160018201548152505081526020016002820180546104bf906121b2565b80601f01602080910402602001604051908101604052809291908181526020018280546104eb906121b2565b80156105385780601f1061050d57610100808354040283529160200191610538565b820191906000526020600020905b81548152906001019060200180831161051b57829003601f168201915b505050505081526020016003820160009054906101000a900460ff16600581111561056657610565611b3d565b5b600581111561057857610577611b3d565b5b81526020016003820160019054906101000a900460ff1660038111156105a1576105a0611b3d565b5b60038111156105b3576105b2611b3d565b5b81526020016003820160029054906101000a900460ff1660068111156105dc576105db611b3d565b5b60068111156105ee576105ed611b3d565b5b815260200160048201548152602001600582015481526020016006820160009054906101000a900473ffffffffffffffffffffffffffffffffffffffff1673ffffffffffffffffffffffffffffffffffffffff1673ffffffffffffffffffffffffffffffffffffffff1681526020016007820154815250509050919050565b60055481565b60008062015180905080836106889190612241565b915050919050565b6000803373ffffffffffffffffffffffffffffffffffffffff1673ffffffffffffffffffffffffffffffffffffffff16815260200190815260200160002060009054906101000a900460ff1661071b576040517f08c379a000000000000000000000000000000000000000000000000000000000815260040161071290612110565b60405180910390fd5b600080821461072a578161072c565b425b9050600061073982611057565b9050600061074683610673565b905060008890508060405160200161075e9190612298565b6040516020818303038152906040529050806107798461108d565b60405160200161078a9291906122be565b6040516020818303038152906040529050806040516020016107ac9190612298565b6040516020818303038152906040529050806107c78361108d565b6040516020016107d89291906122be565b6040516020818303038152906040529050600015156003826040516107fd919061216c565b908152602001604051809103902060003373ffffffffffffffffffffffffffffffffffffffff1673ffffffffffffffffffffffffffffffffffffffff16815260200190815260200160002060009054906101000a900460ff16151514610898576040517f08c379a000000000000000000000000000000000000000000000000000000000815260040161088f9061232e565b60405180910390fd5b6002816040516108a8919061216c565b908152602001604051809103902060009054906101000a900460ff16610bcf5760405180610120016040528060405180604001604052808e81526020018d81525081526020018a815260200189600581111561090757610906611b3d565b5b815260200188600381111561091f5761091e611b3d565b5b815260200187600681111561093757610936611b3d565b5b81526020018381526020018481526020013373ffffffffffffffffffffffffffffffffffffffff1681526020016000815250600182604051610979919061216c565b90815260200160405180910390206000820151816000016000820151816000015560208201518160010155505060208201518160020190816109bb91906124fa565b5060408201518160030160006101000a81548160ff021916908360058111156109e7576109e6611b3d565b5b021790555060608201518160030160016101000a81548160ff02191690836003811115610a1757610a16611b3d565b5b021790555060808201518160030160026101000a81548160ff02191690836006811115610a4757610a46611b3d565b5b021790555060a0820151816004015560c0820151816005015560e08201518160060160006101000a81548173ffffffffffffffffffffffffffffffffffffffff021916908373ffffffffffffffffffffffffffffffffffffffff16021790555061010082015181600701559050506001600282604051610ac7919061216c565b908152602001604051809103902060006101000a81548160ff0219169083151502179055506001600382604051610afe919061216c565b908152602001604051809103902060003373ffffffffffffffffffffffffffffffffffffffff1673ffffffffffffffffffffffffffffffffffffffff16815260200190815260200160002060006101000a81548160ff02191690831515021790555080604051610b6e919061216c565b60405180910390207f0249f75979f05128cb98dc51dcb860896e908bcc9e5b36d3182766f65025e248600183604051610ba7919061216c565b9081526020016040518091039020604051610bc291906128b9565b60405180910390a2610cea565b600181604051610bdf919061216c565b90815260200160405180910390206007016000815480929190610c01906128db565b91905055506001600382604051610c18919061216c565b908152602001604051809103902060003373ffffffffffffffffffffffffffffffffffffffff1673ffffffffffffffffffffffffffffffffffffffff16815260200190815260200160002060006101000a81548160ff0219169083151502179055506005600182604051610c8c919061216c565b9081526020016040518091039020505080604051610caa919061216c565b60405180910390207fcc0a77509def7a2b56e9a01824660c2ff76c0934775c1f2aff6ec703fd007ae233604051610ce19190612923565b60405180910390a25b5050505050505050505050565b60008060003373ffffffffffffffffffffffffffffffffffffffff1673ffffffffffffffffffffffffffffffffffffffff16815260200190815260200160002060009054906101000a900460ff16610d84576040517f08c379a0000000000000000000000000000000000000000000000000000000008152600401610d7b90612110565b60405180910390fd5b600654341015610dc9576040517f08c379a0000000000000000000000000000000000000000000000000000000008152600401610dc09061298a565b60405180910390fd5b610dd161171d565b905090565b6003828051602081018201805184825260208301602085012081835280955050505050506020528060005260406000206000915091509054906101000a900460ff1681565b600181805160208101820180518482526020830160208501208183528095505050505050600091509050806000016040518060400160405290816000820154815260200160018201548152505090806002018054610e78906121b2565b80601f0160208091040260200160405190810160405280929190818152602001828054610ea4906121b2565b8015610ef15780601f10610ec657610100808354040283529160200191610ef1565b820191906000526020600020905b815481529060010190602001808311610ed457829003601f168201915b5050505050908060030160009054906101000a900460ff16908060030160019054906101000a900460ff16908060030160029054906101000a900460ff16908060040154908060050154908060060160009054906101000a900473ffffffffffffffffffffffffffffffffffffffff16908060070154905089565b6000803373ffffffffffffffffffffffffffffffffffffffff1673ffffffffffffffffffffffffffffffffffffffff16815260200190815260200160002060009054906101000a900460ff1615610ff8576040517f08c379a0000000000000000000000000000000000000000000000000000000008152600401610fef906129f6565b60405180910390fd5b60016000803373ffffffffffffffffffffffffffffffffffffffff1673ffffffffffffffffffffffffffffffffffffffff16815260200190815260200160002060006101000a81548160ff021916908315150217905550565b60045481565b6000806201518090506000818461106e9190612a16565b90506000610708826110809190612241565b9050809350505050919050565b606060006064905060008167ffffffffffffffff8111156110b1576110b0611902565b5b6040519080825280601f01601f1916602001820160405280156110e35781602001600182028036833780820191505090505b50905060005b600085146115f4576000600a866111009190612a16565b9050600a8661110f9190612241565b95506000810361118d577f3000000000000000000000000000000000000000000000000000000000000000838380611146906128db565b94508151811061115957611158612a47565b5b60200101907effffffffffffffffffffffffffffffffffffffffffffffffffffffffffffff1916908160001a9053506115ee565b60018103611209577f31000000000000000000000000000000000000000000000000000000000000008383806111c2906128db565b9450815181106111d5576111d4612a47565b5b60200101907effffffffffffffffffffffffffffffffffffffffffffffffffffffffffffff1916908160001a9053506115ed565b60028103611285577f320000000000000000000000000000000000000000000000000000000000000083838061123e906128db565b94508151811061125157611250612a47565b5b60200101907effffffffffffffffffffffffffffffffffffffffffffffffffffffffffffff1916908160001a9053506115ec565b60038103611301577f33000000000000000000000000000000000000000000000000000000000000008383806112ba906128db565b9450815181106112cd576112cc612a47565b5b60200101907effffffffffffffffffffffffffffffffffffffffffffffffffffffffffffff1916908160001a9053506115eb565b6004810361137d577f3400000000000000000000000000000000000000000000000000000000000000838380611336906128db565b94508151811061134957611348612a47565b5b60200101907effffffffffffffffffffffffffffffffffffffffffffffffffffffffffffff1916908160001a9053506115ea565b600581036113f9577f35000000000000000000000000000000000000000000000000000000000000008383806113b2906128db565b9450815181106113c5576113c4612a47565b5b60200101907effffffffffffffffffffffffffffffffffffffffffffffffffffffffffffff1916908160001a9053506115e9565b60068103611475577f360000000000000000000000000000000000000000000000000000000000000083838061142e906128db565b94508151811061144157611440612a47565b5b60200101907effffffffffffffffffffffffffffffffffffffffffffffffffffffffffffff1916908160001a9053506115e8565b600781036114f1577f37000000000000000000000000000000000000000000000000000000000000008383806114aa906128db565b9450815181106114bd576114bc612a47565b5b60200101907effffffffffffffffffffffffffffffffffffffffffffffffffffffffffffff1916908160001a9053506115e7565b6008810361156d577f3800000000000000000000000000000000000000000000000000000000000000838380611526906128db565b94508151811061153957611538612a47565b5b60200101907effffffffffffffffffffffffffffffffffffffffffffffffffffffffffffff1916908160001a9053506115e6565b600981036115e5577f39000000000000000000000000000000000000000000000000000000000000008383806115a2906128db565b9450815181106115b5576115b4612a47565b5b60200101907effffffffffffffffffffffffffffffffffffffffffffffffffffffffffffff1916908160001a9053505b5b5b5b5b5b5b5b5b5b506110e9565b60008167ffffffffffffffff8111156116105761160f611902565b5b6040519080825280601f01601f1916602001820160405280156116425781602001600182028036833780820191505090505b50905060005b828110156116da57838160018561165f9190612a76565b6116699190612a76565b8151811061167a57611679612a47565b5b602001015160f81c60f81b82828151811061169857611697612a47565b5b60200101907effffffffffffffffffffffffffffffffffffffffffffffffffffffffffffff1916908160001a90535080806116d2906128db565b915050611648565b5080945050505050919050565b6002818051602081018201805184825260208301602085012081835280955050505050506000915054906101000a900460ff1681565b60006028905090565b60405180610120016040528061173a6117c4565b8152602001606081526020016000600581111561175a57611759611b3d565b5b81526020016000600381111561177357611772611b3d565b5b81526020016000600681111561178c5761178b611b3d565b5b81526020016000815260200160008152602001600073ffffffffffffffffffffffffffffffffffffffff168152602001600081525090565b604051806040016040528060008152602001600081525090565b6000819050919050565b6117f1816117de565b82525050565b600060208201905061180c60008301846117e8565b92915050565b6000604051905090565b600080fd5b600080fd5b600073ffffffffffffffffffffffffffffffffffffffff82169050919050565b600061185182611826565b9050919050565b61186181611846565b811461186c57600080fd5b50565b60008135905061187e81611858565b92915050565b60006020828403121561189a5761189961181c565b5b60006118a88482850161186f565b91505092915050565b60008115159050919050565b6118c6816118b1565b82525050565b60006020820190506118e160008301846118bd565b92915050565b600080fd5b600080fd5b6000601f19601f8301169050919050565b7f4e487b7100000000000000000000000000000000000000000000000000000000600052604160045260246000fd5b61193a826118f1565b810181811067ffffffffffffffff8211171561195957611958611902565b5b80604052505050565b600061196c611812565b90506119788282611931565b919050565b600067ffffffffffffffff82111561199857611997611902565b5b6119a1826118f1565b9050602081019050919050565b82818337600083830152505050565b60006119d06119cb8461197d565b611962565b9050828152602081018484840111156119ec576119eb6118ec565b5b6119f78482856119ae565b509392505050565b600082601f830112611a1457611a136118e7565b5b8135611a248482602086016119bd565b91505092915050565b600060208284031215611a4357611a4261181c565b5b600082013567ffffffffffffffff811115611a6157611a60611821565b5b611a6d848285016119ff565b91505092915050565b6000819050919050565b611a8981611a76565b82525050565b604082016000820151611aa56000850182611a80565b506020820151611ab86020850182611a80565b50505050565b600081519050919050565b600082825260208201905092915050565b60005b83811015611af8578082015181840152602081019050611add565b60008484015250505050565b6000611b0f82611abe565b611b198185611ac9565b9350611b29818560208601611ada565b611b32816118f1565b840191505092915050565b7f4e487b7100000000000000000000000000000000000000000000000000000000600052602160045260246000fd5b60068110611b7d57611b7c611b3d565b5b50565b6000819050611b8e82611b6c565b919050565b6000611b9e82611b80565b9050919050565b611bae81611b93565b82525050565b60048110611bc557611bc4611b3d565b5b50565b6000819050611bd682611bb4565b919050565b6000611be682611bc8565b9050919050565b611bf681611bdb565b82525050565b60078110611c0d57611c0c611b3d565b5b50565b6000819050611c1e82611bfc565b919050565b6000611c2e82611c10565b9050919050565b611c3e81611c23565b82525050565b611c4d816117de565b82525050565b611c5c81611846565b82525050565b600061014083016000830151611c7b6000860182611a8f565b5060208301518482036040860152611c938282611b04565b9150506040830151611ca86060860182611ba5565b506060830151611cbb6080860182611bed565b506080830151611cce60a0860182611c35565b5060a0830151611ce160c0860182611c44565b5060c0830151611cf460e0860182611c44565b5060e0830151611d08610100860182611c53565b50610100830151611d1d610120860182611c44565b508091505092915050565b60006020820190508181036000830152611d428184611c62565b905092915050565b611d53816117de565b8114611d5e57600080fd5b50565b600081359050611d7081611d4a565b92915050565b600060208284031215611d8c57611d8b61181c565b5b6000611d9a84828501611d61565b91505092915050565b611dac81611a76565b8114611db757600080fd5b50565b600081359050611dc981611da3565b92915050565b60068110611ddc57600080fd5b50565b600081359050611dee81611dcf565b92915050565b60048110611e0157600080fd5b50565b600081359050611e1381611df4565b92915050565b60078110611e2657600080fd5b50565b600081359050611e3881611e19565b92915050565b600080600080600080600060e0888a031215611e5d57611e5c61181c565b5b6000611e6b8a828b01611dba565b9750506020611e7c8a828b01611dba565b965050604088013567ffffffffffffffff811115611e9d57611e9c611821565b5b611ea98a828b016119ff565b9550506060611eba8a828b01611ddf565b9450506080611ecb8a828b01611e04565b93505060a0611edc8a828b01611e29565b92505060c0611eed8a828b01611d61565b91505092959891949750929550565b60008060408385031215611f1357611f1261181c565b5b600083013567ffffffffffffffff811115611f3157611f30611821565b5b611f3d858286016119ff565b9250506020611f4e8582860161186f565b9150509250929050565b604082016000820151611f6e6000850182611a80565b506020820151611f816020850182611a80565b50505050565b600082825260208201905092915050565b6000611fa382611abe565b611fad8185611f87565b9350611fbd818560208601611ada565b611fc6816118f1565b840191505092915050565b611fda81611b93565b82525050565b611fe981611bdb565b82525050565b611ff881611c23565b82525050565b61200781611846565b82525050565b600061014082019050612023600083018c611f58565b8181036040830152612035818b611f98565b9050612044606083018a611fd1565b6120516080830189611fe0565b61205e60a0830188611fef565b61206b60c08301876117e8565b61207860e08301866117e8565b612086610100830185611ffe565b6120946101208301846117e8565b9a9950505050505050505050565b600060208201905081810360008301526120bc8184611f98565b905092915050565b7f4163636f756e7420646f6573206e6f7420657869737400000000000000000000600082015250565b60006120fa601683611f87565b9150612105826120c4565b602082019050919050565b60006020820190508181036000830152612129816120ed565b9050919050565b600081905092915050565b600061214682611abe565b6121508185612130565b9350612160818560208601611ada565b80840191505092915050565b6000612178828461213b565b915081905092915050565b7f4e487b7100000000000000000000000000000000000000000000000000000000600052602260045260246000fd5b600060028204905060018216806121ca57607f821691505b6020821081036121dd576121dc612183565b5b50919050565b7f4e487b7100000000000000000000000000000000000000000000000000000000600052601260045260246000fd5b7f4e487b7100000000000000000000000000000000000000000000000000000000600052601160045260246000fd5b600061224c826117de565b9150612257836117de565b925082612267576122666121e3565b5b828204905092915050565b7f5f00000000000000000000000000000000000000000000000000000000000000815250565b60006122a4828461213b565b91506122af82612272565b60018201915081905092915050565b60006122ca828561213b565b91506122d6828461213b565b91508190509392505050565b7f596f7520616c7265616479207368617265207468697320696e636964656e7400600082015250565b6000612318601f83611f87565b9150612323826122e2565b602082019050919050565b600060208201905081810360008301526123478161230b565b9050919050565b60008190508160005260206000209050919050565b60006020601f8301049050919050565b600082821b905092915050565b6000600883026123b07fffffffffffffffffffffffffffffffffffffffffffffffffffffffffffffffff82612373565b6123ba8683612373565b95508019841693508086168417925050509392505050565b6000819050919050565b60006123f76123f26123ed846117de565b6123d2565b6117de565b9050919050565b6000819050919050565b612411836123dc565b61242561241d826123fe565b848454612380565b825550505050565b600090565b61243a61242d565b612445818484612408565b505050565b5b818110156124695761245e600082612432565b60018101905061244b565b5050565b601f8211156124ae5761247f8161234e565b61248884612363565b81016020851015612497578190505b6124ab6124a385612363565b83018261244a565b50505b505050565b600082821c905092915050565b60006124d1600019846008026124b3565b1980831691505092915050565b60006124ea83836124c0565b9150826002028217905092915050565b61250382611abe565b67ffffffffffffffff81111561251c5761251b611902565b5b61252682546121b2565b61253182828561246d565b600060209050601f8311600181146125645760008415612552578287015190505b61255c85826124de565b8655506125c4565b601f1984166125728661234e565b60005b8281101561259a57848901518255600182019150602085019450602081019050612575565b868310156125b757848901516125b3601f8916826124c0565b8355505b6001600288020188555050505b505050505050565b60008160001c9050919050565b6000819050919050565b60006125f66125f1836125cc565b6125d9565b9050919050565b604082016000808301549050612612816125e3565b61261f6000860182611a80565b5060018301549050612630816125e3565b61263d6020860182611a80565b5050505050565b60008154612651816121b2565b61265b8186611ac9565b94506001821660008114612676576001811461268c576126bf565b60ff1983168652811515602002860193506126bf565b6126958561234e565b60005b838110156126b757815481890152600182019150602081019050612698565b808801955050505b50505092915050565b600060ff82169050919050565b60006126e86126e3836125cc565b6126c8565b9050919050565b60008160081c9050919050565b600060ff82169050919050565b600061271c612717836126ef565b6126fc565b9050919050565b60008160101c9050919050565b600060ff82169050919050565b600061275061274b83612723565b612730565b9050919050565b6000819050919050565b600061277461276f836125cc565b612757565b9050919050565b600073ffffffffffffffffffffffffffffffffffffffff82169050919050565b60006127ae6127a9836125cc565b61277b565b9050919050565b6000610140830160008084016127ce60008701826125fd565b506002840185830360408701526127e58382612644565b925050600384015490506127f8816126d5565b6128056060870182611ba5565b5061280f81612709565b61281c6080870182611bed565b506128268161273d565b61283360a0870182611c35565b506004840154905061284481612761565b61285160c0870182611c44565b506005840154905061286281612761565b61286f60e0870182611c44565b50600684015490506128808161279b565b61288e610100870182611c53565b506007840154905061289f81612761565b6128ad610120870182611c44565b50819250505092915050565b600060208201905081810360008301526128d381846127b5565b905092915050565b60006128e6826117de565b91507fffffffffffffffffffffffffffffffffffffffffffffffffffffffffffffffff820361291857612917612212565b5b600182019050919050565b60006020820190506129386000830184611ffe565b92915050565b7f496e73756666696369656e742045746865722073656e74000000000000000000600082015250565b6000612974601783611f87565b915061297f8261293e565b602082019050919050565b600060208201905081810360008301526129a381612967565b9050919050565b7f4163636f756e7420616c72656164792065786973747300000000000000000000600082015250565b60006129e0601683611f87565b91506129eb826129aa565b602082019050919050565b60006020820190508181036000830152612a0f816129d3565b9050919050565b6000612a21826117de565b9150612a2c836117de565b925082612a3c57612a3b6121e3565b5b828206905092915050565b7f4e487b7100000000000000000000000000000000000000000000000000000000600052603260045260246000fd5b6000612a81826117de565b9150612a8c836117de565b9250828203905081811115612aa457612aa3612212565b5b9291505056fea2646970667358221220f06281e0805f28ec04007f7a4b1fec23f49f6ba40bcfd74f3295ca8634b354d264736f6c63430008110033",
  "immutableReferences": {},
  "source": "// SPDX-License-Identifier: MIT\r\npragma solidity ^0.8.17;\r\ncontract TrafficJamPrediction {\r\n\r\n    enum RoadType{\r\n        Expressway,\r\n        NationalHighway,\r\n        StateHighway,\r\n        MajorDistrictRoad,\r\n        OtherDistrictRoad,\r\n        RuralRoad\r\n    }\r\n\r\n    enum RoadCondition{\r\n        Smooth,\r\n        Moderate,\r\n        Poor,\r\n        ExtremelyBad\r\n    }\r\n\r\n    enum RoadEvent{\r\n        Construction,\r\n        Accident,\r\n        Barricades,\r\n        TollBooth,\r\n        DemonstrationsOrProtests,\r\n        Marathon,\r\n        Others\r\n    }\r\n\r\n    struct Location {\r\n        int256 latitude;\r\n        int256 longitude;\r\n    }\r\n\r\n    struct Incident {\r\n        Location location;\r\n        string roadId;\r\n        RoadType roadType;\r\n        RoadCondition roadCondition;\r\n        RoadEvent roadEvent;\r\n        uint day;\r\n        uint timeslot;\r\n        address firstUser;\r\n        uint confirmNumber;\r\n    }\r\n\r\n    mapping(address => bool) public accounts;\r\n    mapping(string => Incident) public incidents;\r\n    mapping(string => bool) public incidentExist;\r\n    mapping(string => mapping(address => bool)) public incidentConfirm;\r\n\r\n    uint public incidentCount;\r\n    uint256 public tokenReward;\r\n    uint256 public minimunTokenGetProbability;\r\n\r\n\r\n    event IncidentShared(string indexed incidentHash, Incident incident);\r\n    event IncidentConfirm(string indexed incidentHash, address user);\r\n\r\n    constructor() {\r\n        incidentCount = 0;\r\n        tokenReward = 0.0001 ether;\r\n        minimunTokenGetProbability = 0.000001 ether;\r\n    }\r\n\r\n    function createAccount() external {\r\n        require(!accounts[msg.sender], \"Account already exists\");\r\n        accounts[msg.sender] = true;\r\n    }\r\n\r\n    function shareIncident(\r\n        int256 _latitude,\r\n        int256 _longitude,\r\n        string memory _roadId,\r\n        RoadType _roadType,\r\n        RoadCondition _roadCondition,\r\n        RoadEvent _event,\r\n        uint256 _timestamp\r\n    ) external payable{\r\n        require(accounts[msg.sender], \"Account does not exist\");\r\n\r\n        uint256 currentTimestamp = _timestamp == 0 ? block.timestamp : _timestamp;\r\n        uint _timeslot = calculateTimeslot(currentTimestamp);\r\n        uint _day = calculateDay(currentTimestamp);\r\n        string memory incidentHash = _roadId;\r\n        incidentHash = string.concat(incidentHash, \"_\");\r\n        incidentHash = string.concat(incidentHash, uintToString(_timeslot));\r\n        incidentHash = string.concat(incidentHash, \"_\");\r\n        incidentHash = string.concat(incidentHash, uintToString(_day));\r\n\r\n        require(incidentConfirm[incidentHash][msg.sender] == false, \"You already share this incident\");\r\n        //TODO: Check unique incident\r\n        if (!incidentExist[incidentHash]) {\r\n            incidents[incidentHash] = Incident({\r\n                location: Location({\r\n                    latitude: _latitude,\r\n                    longitude: _longitude\r\n                }),\r\n                roadId: _roadId,\r\n                roadType: _roadType,\r\n                roadCondition: _roadCondition,\r\n                roadEvent: _event,\r\n                day: _day,\r\n                timeslot: _timeslot,\r\n                firstUser: msg.sender,\r\n                confirmNumber: 0\r\n            });\r\n            incidentExist[incidentHash] = true;\r\n            incidentConfirm[incidentHash][msg.sender] = true;\r\n            emit IncidentShared(incidentHash, incidents[incidentHash]);\r\n        }\r\n        else{\r\n            incidents[incidentHash].confirmNumber++;\r\n            incidentConfirm[incidentHash][msg.sender] = true;\r\n            if (incidents[incidentHash].confirmNumber == 5){\r\n                // address payable firstUser = payable(incidents[incidentHash].firstUser);\r\n                // firstUser.transfer(tokenReward);\r\n            }\r\n            emit IncidentConfirm(incidentHash, msg.sender);\r\n        }\r\n    }\r\n\r\n    function getIncident(string memory hash)\r\n        external \r\n        view\r\n        returns (Incident memory incident)\r\n    {\r\n        require(accounts[msg.sender], \"Account does not exist\");\r\n        incident = incidents[hash];\r\n        return incident;\r\n    }\r\n\r\n    function getTrafficJamProbability()\r\n        external\r\n        payable\r\n        returns (uint probability)\r\n    {\r\n        require(accounts[msg.sender], \"Account does not exist\");\r\n        require(msg.value >= minimunTokenGetProbability, \"Insufficient Ether sent\");\r\n\r\n        probability = calculateProbability();\r\n        return probability;\r\n    }\r\n\r\n    function calculateProbability()\r\n        internal\r\n        pure\r\n        returns (uint probability)\r\n    {\r\n        probability = 40;\r\n        return probability;\r\n    }\r\n\r\n    uint256 constant TIMESLOT_DURATION = 30 minutes;\r\n\r\n    function calculateTimeslot(uint256 _timestamp) public pure returns (uint) {\r\n        uint256 secondsInDay = 24 hours;\r\n        uint256 secondsSinceMidnight = _timestamp % secondsInDay;\r\n        uint256 timeslot = secondsSinceMidnight / TIMESLOT_DURATION;\r\n        return timeslot;\r\n    }\r\n\r\n    function calculateDay(uint256 _timestamp) public pure returns (uint) {\r\n        uint256 secondsInDay = 24 hours;\r\n        return _timestamp / secondsInDay;\r\n    }\r\n\r\n    function uintToString(uint v) public pure returns (string memory str) {\r\n        uint maxlength = 100;\r\n        bytes memory reversed = new bytes(maxlength);\r\n        uint i = 0;\r\n        while (v != 0) {\r\n            uint remainder = v % 10;\r\n            v = v / 10;\r\n            if (remainder == 0){\r\n                reversed[i++] = '0';\r\n            }\r\n            else if (remainder == 1){\r\n                reversed[i++] = '1';\r\n            }\r\n            else if (remainder == 2){\r\n                reversed[i++] = '2';\r\n            }\r\n            else if (remainder == 3){\r\n                reversed[i++] = '3';\r\n            }\r\n            else if (remainder == 4){\r\n                reversed[i++] = '4';\r\n            }\r\n            else if (remainder == 5){\r\n                reversed[i++] = '5';\r\n            }\r\n            else if (remainder == 6){\r\n                reversed[i++] = '6';\r\n            }\r\n            else if (remainder == 7){\r\n                reversed[i++] = '7';\r\n            }\r\n            else if (remainder == 8){\r\n                reversed[i++] = '8';\r\n            }\r\n            else if (remainder == 9){\r\n                reversed[i++] = '9';\r\n            }\r\n        }\r\n        bytes memory s = new bytes(i);\r\n        for (uint j = 0; j < i; j++) {\r\n            s[j] = reversed[i - 1 - j];\r\n        }\r\n        str = string(s);\r\n    }\r\n}",
  "sourcePath": "C:\\Users\\ASUS\\VSCode\\traffic-jam-prediction\\contracts\\TrafficJamPrediction.sol",
  "compiler": {
    "name": "solc",
    "version": "0.8.17+commit.8df45f5f.Emscripten.clang"
  },
  "schemaVersion": "3.4.14",
  "updatedAt": "2023-07-18T05:43:06.311Z",
  "devdoc": {
    "kind": "dev",
    "methods": {},
    "version": 1
  },
  "userdoc": {
    "kind": "user",
    "methods": {},
    "version": 1
  }
}