{
  "contractName": "TrafficJamPrediction",
  "abi": [
    {
      "inputs": [],
      "stateMutability": "nonpayable",
      "type": "constructor"
    },
    {
      "anonymous": false,
      "inputs": [
        {
          "indexed": true,
          "internalType": "string",
          "name": "incidentHash",
          "type": "string"
        },
        {
          "indexed": false,
          "internalType": "address",
          "name": "user",
          "type": "address"
        }
      ],
      "name": "IncidentConfirm",
      "type": "event"
    },
    {
      "anonymous": false,
      "inputs": [
        {
          "indexed": true,
          "internalType": "string",
          "name": "incidentHash",
          "type": "string"
        },
        {
          "components": [
            {
              "internalType": "string",
              "name": "latitude",
              "type": "string"
            },
            {
              "internalType": "string",
              "name": "longitude",
              "type": "string"
            },
            {
              "internalType": "string",
              "name": "roadId",
              "type": "string"
            },
            {
              "internalType": "enum TrafficJamPrediction.RoadType",
              "name": "roadType",
              "type": "uint8"
            },
            {
              "internalType": "enum TrafficJamPrediction.RoadCondition",
              "name": "roadCondition",
              "type": "uint8"
            },
            {
              "internalType": "enum TrafficJamPrediction.RoadEvent",
              "name": "roadEvent",
              "type": "uint8"
            },
            {
              "internalType": "uint256",
              "name": "day",
              "type": "uint256"
            },
            {
              "internalType": "uint256",
              "name": "timeslot",
              "type": "uint256"
            },
            {
              "internalType": "address",
              "name": "firstUser",
              "type": "address"
            },
            {
              "internalType": "uint256",
              "name": "confirmNumber",
              "type": "uint256"
            }
          ],
          "indexed": false,
          "internalType": "struct TrafficJamPrediction.Incident",
          "name": "incident",
          "type": "tuple"
        }
      ],
      "name": "IncidentShared",
      "type": "event"
    },
    {
      "inputs": [
        {
          "internalType": "address",
          "name": "",
          "type": "address"
        }
      ],
      "name": "accounts",
      "outputs": [
        {
          "internalType": "bool",
          "name": "",
          "type": "bool"
        }
      ],
      "stateMutability": "view",
      "type": "function",
      "constant": true
    },
    {
      "inputs": [
        {
          "internalType": "string",
          "name": "",
          "type": "string"
        },
        {
          "internalType": "address",
          "name": "",
          "type": "address"
        }
      ],
      "name": "incidentConfirm",
      "outputs": [
        {
          "internalType": "bool",
          "name": "",
          "type": "bool"
        }
      ],
      "stateMutability": "view",
      "type": "function",
      "constant": true
    },
    {
      "inputs": [],
      "name": "incidentCount",
      "outputs": [
        {
          "internalType": "uint256",
          "name": "",
          "type": "uint256"
        }
      ],
      "stateMutability": "view",
      "type": "function",
      "constant": true
    },
    {
      "inputs": [
        {
          "internalType": "string",
          "name": "",
          "type": "string"
        }
      ],
      "name": "incidentExist",
      "outputs": [
        {
          "internalType": "bool",
          "name": "",
          "type": "bool"
        }
      ],
      "stateMutability": "view",
      "type": "function",
      "constant": true
    },
    {
      "inputs": [
        {
          "internalType": "string",
          "name": "",
          "type": "string"
        }
      ],
      "name": "incidents",
      "outputs": [
        {
          "internalType": "string",
          "name": "latitude",
          "type": "string"
        },
        {
          "internalType": "string",
          "name": "longitude",
          "type": "string"
        },
        {
          "internalType": "string",
          "name": "roadId",
          "type": "string"
        },
        {
          "internalType": "enum TrafficJamPrediction.RoadType",
          "name": "roadType",
          "type": "uint8"
        },
        {
          "internalType": "enum TrafficJamPrediction.RoadCondition",
          "name": "roadCondition",
          "type": "uint8"
        },
        {
          "internalType": "enum TrafficJamPrediction.RoadEvent",
          "name": "roadEvent",
          "type": "uint8"
        },
        {
          "internalType": "uint256",
          "name": "day",
          "type": "uint256"
        },
        {
          "internalType": "uint256",
          "name": "timeslot",
          "type": "uint256"
        },
        {
          "internalType": "address",
          "name": "firstUser",
          "type": "address"
        },
        {
          "internalType": "uint256",
          "name": "confirmNumber",
          "type": "uint256"
        }
      ],
      "stateMutability": "view",
      "type": "function",
      "constant": true
    },
    {
      "inputs": [],
      "name": "minimunTokenGetProbability",
      "outputs": [
        {
          "internalType": "uint256",
          "name": "",
          "type": "uint256"
        }
      ],
      "stateMutability": "view",
      "type": "function",
      "constant": true
    },
    {
      "inputs": [],
      "name": "tokenReward",
      "outputs": [
        {
          "internalType": "uint256",
          "name": "",
          "type": "uint256"
        }
      ],
      "stateMutability": "view",
      "type": "function",
      "constant": true
    },
    {
      "inputs": [],
      "name": "donate",
      "outputs": [],
      "stateMutability": "payable",
      "type": "function",
      "payable": true
    },
    {
      "inputs": [],
      "name": "createAccount",
      "outputs": [],
      "stateMutability": "nonpayable",
      "type": "function"
    },
    {
      "inputs": [
        {
          "internalType": "string",
          "name": "_latitude",
          "type": "string"
        },
        {
          "internalType": "string",
          "name": "_longitude",
          "type": "string"
        },
        {
          "internalType": "string",
          "name": "_roadId",
          "type": "string"
        },
        {
          "internalType": "enum TrafficJamPrediction.RoadType",
          "name": "_roadType",
          "type": "uint8"
        },
        {
          "internalType": "enum TrafficJamPrediction.RoadCondition",
          "name": "_roadCondition",
          "type": "uint8"
        },
        {
          "internalType": "enum TrafficJamPrediction.RoadEvent",
          "name": "_event",
          "type": "uint8"
        },
        {
          "internalType": "uint256",
          "name": "_timestamp",
          "type": "uint256"
        }
      ],
      "name": "shareIncident",
      "outputs": [
        {
          "components": [
            {
              "internalType": "string",
              "name": "latitude",
              "type": "string"
            },
            {
              "internalType": "string",
              "name": "longitude",
              "type": "string"
            },
            {
              "internalType": "string",
              "name": "roadId",
              "type": "string"
            },
            {
              "internalType": "enum TrafficJamPrediction.RoadType",
              "name": "roadType",
              "type": "uint8"
            },
            {
              "internalType": "enum TrafficJamPrediction.RoadCondition",
              "name": "roadCondition",
              "type": "uint8"
            },
            {
              "internalType": "enum TrafficJamPrediction.RoadEvent",
              "name": "roadEvent",
              "type": "uint8"
            },
            {
              "internalType": "uint256",
              "name": "day",
              "type": "uint256"
            },
            {
              "internalType": "uint256",
              "name": "timeslot",
              "type": "uint256"
            },
            {
              "internalType": "address",
              "name": "firstUser",
              "type": "address"
            },
            {
              "internalType": "uint256",
              "name": "confirmNumber",
              "type": "uint256"
            }
          ],
          "internalType": "struct TrafficJamPrediction.Incident",
          "name": "incident",
          "type": "tuple"
        }
      ],
      "stateMutability": "payable",
      "type": "function",
      "payable": true
    },
    {
      "inputs": [
        {
          "internalType": "string",
          "name": "_roadId",
          "type": "string"
        },
        {
          "internalType": "uint256",
          "name": "_timestamp",
          "type": "uint256"
        }
      ],
      "name": "getTrafficJamIncident",
      "outputs": [
        {
          "components": [
            {
              "internalType": "string",
              "name": "latitude",
              "type": "string"
            },
            {
              "internalType": "string",
              "name": "longitude",
              "type": "string"
            },
            {
              "internalType": "string",
              "name": "roadId",
              "type": "string"
            },
            {
              "internalType": "enum TrafficJamPrediction.RoadType",
              "name": "roadType",
              "type": "uint8"
            },
            {
              "internalType": "enum TrafficJamPrediction.RoadCondition",
              "name": "roadCondition",
              "type": "uint8"
            },
            {
              "internalType": "enum TrafficJamPrediction.RoadEvent",
              "name": "roadEvent",
              "type": "uint8"
            },
            {
              "internalType": "uint256",
              "name": "day",
              "type": "uint256"
            },
            {
              "internalType": "uint256",
              "name": "timeslot",
              "type": "uint256"
            },
            {
              "internalType": "address",
              "name": "firstUser",
              "type": "address"
            },
            {
              "internalType": "uint256",
              "name": "confirmNumber",
              "type": "uint256"
            }
          ],
          "internalType": "struct TrafficJamPrediction.Incident",
          "name": "incident",
          "type": "tuple"
        }
      ],
      "stateMutability": "payable",
      "type": "function",
      "payable": true
    }
  ],
  "bytecode": "0x608060405234801561001057600080fd5b506000600481905550671bc16d674ec80000600581905550670de0b6b3a7640000600681905550612eaa806100466000396000f3fe60806040526004361061009c5760003560e01c8063990ad2a011610064578063990ad2a0146101a15780639dca362f146101e7578063a09b86ac146101fe578063c2a715b514610229578063ed88c68e14610259578063f91e9498146102635761009c565b80631f24e366146100a15780634b20d4eb146100cc5780635e5c06e2146100fc5780636e66f6e9146101395780639448db7a14610164575b600080fd5b3480156100ad57600080fd5b506100b66102a0565b6040516100c39190611c2c565b60405180910390f35b6100e660048036038101906100e19190611dcd565b6102a6565b6040516100f391906120e7565b60405180910390f35b34801561010857600080fd5b50610123600480360381019061011e9190612135565b6106cb565b604051610130919061217d565b60405180910390f35b34801561014557600080fd5b5061014e6106eb565b60405161015b9190611c2c565b60405180910390f35b34801561017057600080fd5b5061018b60048036038101906101869190612198565b6106f1565b604051610198919061217d565b60405180910390f35b3480156101ad57600080fd5b506101c860048036038101906101c391906121f4565b610736565b6040516101de9a999897969594939291906122c3565b60405180910390f35b3480156101f357600080fd5b506101fc61097f565b005b34801561020a57600080fd5b50610213610a64565b6040516102209190611c2c565b60405180910390f35b610243600480360381019061023e91906123e3565b610a6a565b60405161025091906120e7565b60405180910390f35b6102616113e7565b005b34801561026f57600080fd5b5061028a600480360381019061028591906121f4565b6113e9565b604051610297919061217d565b60405180910390f35b60065481565b6102ae611b74565b6000803373ffffffffffffffffffffffffffffffffffffffff1673ffffffffffffffffffffffffffffffffffffffff16815260200190815260200160002060009054906101000a900460ff16610339576040517f08c379a000000000000000000000000000000000000000000000000000000000815260040161033090612525565b60405180910390fd5b60065434101561037e576040517f08c379a000000000000000000000000000000000000000000000000000000000815260040161037590612591565b60405180910390fd5b600080831461038d578261038f565b425b9050600061039c8261141f565b905060006103a983611455565b905060006103b8878385611472565b90506001816040516103ca91906125ed565b9081526020016040518091039020604051806101400160405290816000820180546103f490612633565b80601f016020809104026020016040519081016040528092919081815260200182805461042090612633565b801561046d5780601f106104425761010080835404028352916020019161046d565b820191906000526020600020905b81548152906001019060200180831161045057829003601f168201915b5050505050815260200160018201805461048690612633565b80601f01602080910402602001604051908101604052809291908181526020018280546104b290612633565b80156104ff5780601f106104d4576101008083540402835291602001916104ff565b820191906000526020600020905b8154815290600101906020018083116104e257829003601f168201915b5050505050815260200160028201805461051890612633565b80601f016020809104026020016040519081016040528092919081815260200182805461054490612633565b80156105915780601f1061056657610100808354040283529160200191610591565b820191906000526020600020905b81548152906001019060200180831161057457829003601f168201915b505050505081526020016003820160009054906101000a900460ff1660058111156105bf576105be611ea8565b5b60058111156105d1576105d0611ea8565b5b81526020016003820160019054906101000a900460ff1660038111156105fa576105f9611ea8565b5b600381111561060c5761060b611ea8565b5b81526020016003820160029054906101000a900460ff16600681111561063557610634611ea8565b5b600681111561064757610646611ea8565b5b815260200160048201548152602001600582015481526020016006820160009054906101000a900473ffffffffffffffffffffffffffffffffffffffff1673ffffffffffffffffffffffffffffffffffffffff1673ffffffffffffffffffffffffffffffffffffffff16815260200160078201548152505094505050505092915050565b60006020528060005260406000206000915054906101000a900460ff1681565b60055481565b6003828051602081018201805184825260208301602085012081835280955050505050506020528060005260406000206000915091509054906101000a900460ff1681565b60018180516020810182018051848252602083016020850120818352809550505050505060009150905080600001805461076f90612633565b80601f016020809104026020016040519081016040528092919081815260200182805461079b90612633565b80156107e85780601f106107bd576101008083540402835291602001916107e8565b820191906000526020600020905b8154815290600101906020018083116107cb57829003601f168201915b5050505050908060010180546107fd90612633565b80601f016020809104026020016040519081016040528092919081815260200182805461082990612633565b80156108765780601f1061084b57610100808354040283529160200191610876565b820191906000526020600020905b81548152906001019060200180831161085957829003601f168201915b50505050509080600201805461088b90612633565b80601f01602080910402602001604051908101604052809291908181526020018280546108b790612633565b80156109045780601f106108d957610100808354040283529160200191610904565b820191906000526020600020905b8154815290600101906020018083116108e757829003601f168201915b5050505050908060030160009054906101000a900460ff16908060030160019054906101000a900460ff16908060030160029054906101000a900460ff16908060040154908060050154908060060160009054906101000a900473ffffffffffffffffffffffffffffffffffffffff1690806007015490508a565b6000803373ffffffffffffffffffffffffffffffffffffffff1673ffffffffffffffffffffffffffffffffffffffff16815260200190815260200160002060009054906101000a900460ff1615610a0b576040517f08c379a0000000000000000000000000000000000000000000000000000000008152600401610a02906126b0565b60405180910390fd5b60016000803373ffffffffffffffffffffffffffffffffffffffff1673ffffffffffffffffffffffffffffffffffffffff16815260200190815260200160002060006101000a81548160ff021916908315150217905550565b60045481565b610a72611b74565b6000803373ffffffffffffffffffffffffffffffffffffffff1673ffffffffffffffffffffffffffffffffffffffff16815260200190815260200160002060009054906101000a900460ff16610afd576040517f08c379a0000000000000000000000000000000000000000000000000000000008152600401610af490612525565b60405180910390fd5b6000808314610b0c5782610b0e565b425b90506000610b1b8261141f565b90506000610b2883611455565b90506000610b378a8385611472565b905060001515600382604051610b4d91906125ed565b908152602001604051809103902060003373ffffffffffffffffffffffffffffffffffffffff1673ffffffffffffffffffffffffffffffffffffffff16815260200190815260200160002060009054906101000a900460ff16151514610be8576040517f08c379a0000000000000000000000000000000000000000000000000000000008152600401610bdf9061271c565b60405180910390fd5b600281604051610bf891906125ed565b908152602001604051809103902060009054906101000a900460ff16610f1f576040518061014001604052808d81526020018c81526020018b81526020018a6005811115610c4957610c48611ea8565b5b8152602001896003811115610c6157610c60611ea8565b5b8152602001886006811115610c7957610c78611ea8565b5b81526020018381526020018481526020013373ffffffffffffffffffffffffffffffffffffffff1681526020016000815250600182604051610cbb91906125ed565b90815260200160405180910390206000820151816000019081610cde91906128e8565b506020820151816001019081610cf491906128e8565b506040820151816002019081610d0a91906128e8565b5060608201518160030160006101000a81548160ff02191690836005811115610d3657610d35611ea8565b5b021790555060808201518160030160016101000a81548160ff02191690836003811115610d6657610d65611ea8565b5b021790555060a08201518160030160026101000a81548160ff02191690836006811115610d9657610d95611ea8565b5b021790555060c0820151816004015560e082015181600501556101008201518160060160006101000a81548173ffffffffffffffffffffffffffffffffffffffff021916908373ffffffffffffffffffffffffffffffffffffffff16021790555061012082015181600701559050506001600282604051610e1791906125ed565b908152602001604051809103902060006101000a81548160ff0219169083151502179055506001600382604051610e4e91906125ed565b908152602001604051809103902060003373ffffffffffffffffffffffffffffffffffffffff1673ffffffffffffffffffffffffffffffffffffffff16815260200190815260200160002060006101000a81548160ff02191690831515021790555080604051610ebe91906125ed565b60405180910390207f46e9a1a4b79e68661395f58604e72783bb26c732d96c4d444ad3e44d42a539c4600183604051610ef791906125ed565b9081526020016040518091039020604051610f129190612c5c565b60405180910390a26110d1565b600181604051610f2f91906125ed565b90815260200160405180910390206007016000815480929190610f5190612cad565b91905055506001600382604051610f6891906125ed565b908152602001604051809103902060003373ffffffffffffffffffffffffffffffffffffffff1673ffffffffffffffffffffffffffffffffffffffff16815260200190815260200160002060006101000a81548160ff02191690831515021790555060018082604051610fdb91906125ed565b9081526020016040518091039020600701540361108357600060018260405161100491906125ed565b908152602001604051809103902060060160009054906101000a900473ffffffffffffffffffffffffffffffffffffffff1690508073ffffffffffffffffffffffffffffffffffffffff166108fc6005549081150290604051600060405180830381858888f19350505050158015611080573d6000803e3d6000fd5b50505b8060405161109191906125ed565b60405180910390207fcc0a77509def7a2b56e9a01824660c2ff76c0934775c1f2aff6ec703fd007ae2336040516110c89190612cf5565b60405180910390a25b6001816040516110e191906125ed565b90815260200160405180910390206040518061014001604052908160008201805461110b90612633565b80601f016020809104026020016040519081016040528092919081815260200182805461113790612633565b80156111845780601f1061115957610100808354040283529160200191611184565b820191906000526020600020905b81548152906001019060200180831161116757829003601f168201915b5050505050815260200160018201805461119d90612633565b80601f01602080910402602001604051908101604052809291908181526020018280546111c990612633565b80156112165780601f106111eb57610100808354040283529160200191611216565b820191906000526020600020905b8154815290600101906020018083116111f957829003601f168201915b5050505050815260200160028201805461122f90612633565b80601f016020809104026020016040519081016040528092919081815260200182805461125b90612633565b80156112a85780601f1061127d576101008083540402835291602001916112a8565b820191906000526020600020905b81548152906001019060200180831161128b57829003601f168201915b505050505081526020016003820160009054906101000a900460ff1660058111156112d6576112d5611ea8565b5b60058111156112e8576112e7611ea8565b5b81526020016003820160019054906101000a900460ff16600381111561131157611310611ea8565b5b600381111561132357611322611ea8565b5b81526020016003820160029054906101000a900460ff16600681111561134c5761134b611ea8565b5b600681111561135e5761135d611ea8565b5b815260200160048201548152602001600582015481526020016006820160009054906101000a900473ffffffffffffffffffffffffffffffffffffffff1673ffffffffffffffffffffffffffffffffffffffff1673ffffffffffffffffffffffffffffffffffffffff168152602001600782015481525050945050505050979650505050505050565b565b6002818051602081018201805184825260208301602085012081835280955050505050506000915054906101000a900460ff1681565b600080620151809050600081846114369190612d3f565b90506000610708826114489190612d70565b9050809350505050919050565b600080620151809050808361146a9190612d70565b915050919050565b6060839050806040516020016114889190612dc7565b6040516020818303038152906040529050806114a38361151a565b6040516020016114b4929190612ded565b6040516020818303038152906040529050806040516020016114d69190612dc7565b6040516020818303038152906040529050806114f18461151a565b604051602001611502929190612ded565b60405160208183030381529060405290509392505050565b606060006064905060008167ffffffffffffffff81111561153e5761153d611c76565b5b6040519080825280601f01601f1916602001820160405280156115705781602001600182028036833780820191505090505b50905060005b60008514611a81576000600a8661158d9190612d3f565b9050600a8661159c9190612d70565b95506000810361161a577f30000000000000000000000000000000000000000000000000000000000000008383806115d390612cad565b9450815181106115e6576115e5612e11565b5b60200101907effffffffffffffffffffffffffffffffffffffffffffffffffffffffffffff1916908160001a905350611a7b565b60018103611696577f310000000000000000000000000000000000000000000000000000000000000083838061164f90612cad565b94508151811061166257611661612e11565b5b60200101907effffffffffffffffffffffffffffffffffffffffffffffffffffffffffffff1916908160001a905350611a7a565b60028103611712577f32000000000000000000000000000000000000000000000000000000000000008383806116cb90612cad565b9450815181106116de576116dd612e11565b5b60200101907effffffffffffffffffffffffffffffffffffffffffffffffffffffffffffff1916908160001a905350611a79565b6003810361178e577f330000000000000000000000000000000000000000000000000000000000000083838061174790612cad565b94508151811061175a57611759612e11565b5b60200101907effffffffffffffffffffffffffffffffffffffffffffffffffffffffffffff1916908160001a905350611a78565b6004810361180a577f34000000000000000000000000000000000000000000000000000000000000008383806117c390612cad565b9450815181106117d6576117d5612e11565b5b60200101907effffffffffffffffffffffffffffffffffffffffffffffffffffffffffffff1916908160001a905350611a77565b60058103611886577f350000000000000000000000000000000000000000000000000000000000000083838061183f90612cad565b94508151811061185257611851612e11565b5b60200101907effffffffffffffffffffffffffffffffffffffffffffffffffffffffffffff1916908160001a905350611a76565b60068103611902577f36000000000000000000000000000000000000000000000000000000000000008383806118bb90612cad565b9450815181106118ce576118cd612e11565b5b60200101907effffffffffffffffffffffffffffffffffffffffffffffffffffffffffffff1916908160001a905350611a75565b6007810361197e577f370000000000000000000000000000000000000000000000000000000000000083838061193790612cad565b94508151811061194a57611949612e11565b5b60200101907effffffffffffffffffffffffffffffffffffffffffffffffffffffffffffff1916908160001a905350611a74565b600881036119fa577f38000000000000000000000000000000000000000000000000000000000000008383806119b390612cad565b9450815181106119c6576119c5612e11565b5b60200101907effffffffffffffffffffffffffffffffffffffffffffffffffffffffffffff1916908160001a905350611a73565b60098103611a72577f3900000000000000000000000000000000000000000000000000000000000000838380611a2f90612cad565b945081518110611a4257611a41612e11565b5b60200101907effffffffffffffffffffffffffffffffffffffffffffffffffffffffffffff1916908160001a9053505b5b5b5b5b5b5b5b5b5b50611576565b60008167ffffffffffffffff811115611a9d57611a9c611c76565b5b6040519080825280601f01601f191660200182016040528015611acf5781602001600182028036833780820191505090505b50905060005b82811015611b67578381600185611aec9190612e40565b611af69190612e40565b81518110611b0757611b06612e11565b5b602001015160f81c60f81b828281518110611b2557611b24612e11565b5b60200101907effffffffffffffffffffffffffffffffffffffffffffffffffffffffffffff1916908160001a9053508080611b5f90612cad565b915050611ad5565b5080945050505050919050565b60405180610140016040528060608152602001606081526020016060815260200160006005811115611ba957611ba8611ea8565b5b815260200160006003811115611bc257611bc1611ea8565b5b815260200160006006811115611bdb57611bda611ea8565b5b81526020016000815260200160008152602001600073ffffffffffffffffffffffffffffffffffffffff168152602001600081525090565b6000819050919050565b611c2681611c13565b82525050565b6000602082019050611c416000830184611c1d565b92915050565b6000604051905090565b600080fd5b600080fd5b600080fd5b600080fd5b6000601f19601f8301169050919050565b7f4e487b7100000000000000000000000000000000000000000000000000000000600052604160045260246000fd5b611cae82611c65565b810181811067ffffffffffffffff82111715611ccd57611ccc611c76565b5b80604052505050565b6000611ce0611c47565b9050611cec8282611ca5565b919050565b600067ffffffffffffffff821115611d0c57611d0b611c76565b5b611d1582611c65565b9050602081019050919050565b82818337600083830152505050565b6000611d44611d3f84611cf1565b611cd6565b905082815260208101848484011115611d6057611d5f611c60565b5b611d6b848285611d22565b509392505050565b600082601f830112611d8857611d87611c5b565b5b8135611d98848260208601611d31565b91505092915050565b611daa81611c13565b8114611db557600080fd5b50565b600081359050611dc781611da1565b92915050565b60008060408385031215611de457611de3611c51565b5b600083013567ffffffffffffffff811115611e0257611e01611c56565b5b611e0e85828601611d73565b9250506020611e1f85828601611db8565b9150509250929050565b600081519050919050565b600082825260208201905092915050565b60005b83811015611e63578082015181840152602081019050611e48565b60008484015250505050565b6000611e7a82611e29565b611e848185611e34565b9350611e94818560208601611e45565b611e9d81611c65565b840191505092915050565b7f4e487b7100000000000000000000000000000000000000000000000000000000600052602160045260246000fd5b60068110611ee857611ee7611ea8565b5b50565b6000819050611ef982611ed7565b919050565b6000611f0982611eeb565b9050919050565b611f1981611efe565b82525050565b60048110611f3057611f2f611ea8565b5b50565b6000819050611f4182611f1f565b919050565b6000611f5182611f33565b9050919050565b611f6181611f46565b82525050565b60078110611f7857611f77611ea8565b5b50565b6000819050611f8982611f67565b919050565b6000611f9982611f7b565b9050919050565b611fa981611f8e565b82525050565b611fb881611c13565b82525050565b600073ffffffffffffffffffffffffffffffffffffffff82169050919050565b6000611fe982611fbe565b9050919050565b611ff981611fde565b82525050565b600061014083016000830151848203600086015261201d8282611e6f565b915050602083015184820360208601526120378282611e6f565b915050604083015184820360408601526120518282611e6f565b91505060608301516120666060860182611f10565b5060808301516120796080860182611f58565b5060a083015161208c60a0860182611fa0565b5060c083015161209f60c0860182611faf565b5060e08301516120b260e0860182611faf565b506101008301516120c7610100860182611ff0565b506101208301516120dc610120860182611faf565b508091505092915050565b600060208201905081810360008301526121018184611fff565b905092915050565b61211281611fde565b811461211d57600080fd5b50565b60008135905061212f81612109565b92915050565b60006020828403121561214b5761214a611c51565b5b600061215984828501612120565b91505092915050565b60008115159050919050565b61217781612162565b82525050565b6000602082019050612192600083018461216e565b92915050565b600080604083850312156121af576121ae611c51565b5b600083013567ffffffffffffffff8111156121cd576121cc611c56565b5b6121d985828601611d73565b92505060206121ea85828601612120565b9150509250929050565b60006020828403121561220a57612209611c51565b5b600082013567ffffffffffffffff81111561222857612227611c56565b5b61223484828501611d73565b91505092915050565b600082825260208201905092915050565b600061225982611e29565b612263818561223d565b9350612273818560208601611e45565b61227c81611c65565b840191505092915050565b61229081611efe565b82525050565b61229f81611f46565b82525050565b6122ae81611f8e565b82525050565b6122bd81611fde565b82525050565b60006101408201905081810360008301526122de818d61224e565b905081810360208301526122f2818c61224e565b90508181036040830152612306818b61224e565b9050612315606083018a612287565b6123226080830189612296565b61232f60a08301886122a5565b61233c60c0830187611c1d565b61234960e0830186611c1d565b6123576101008301856122b4565b612365610120830184611c1d565b9b9a5050505050505050505050565b6006811061238157600080fd5b50565b60008135905061239381612374565b92915050565b600481106123a657600080fd5b50565b6000813590506123b881612399565b92915050565b600781106123cb57600080fd5b50565b6000813590506123dd816123be565b92915050565b600080600080600080600060e0888a03121561240257612401611c51565b5b600088013567ffffffffffffffff8111156124205761241f611c56565b5b61242c8a828b01611d73565b975050602088013567ffffffffffffffff81111561244d5761244c611c56565b5b6124598a828b01611d73565b965050604088013567ffffffffffffffff81111561247a57612479611c56565b5b6124868a828b01611d73565b95505060606124978a828b01612384565b94505060806124a88a828b016123a9565b93505060a06124b98a828b016123ce565b92505060c06124ca8a828b01611db8565b91505092959891949750929550565b7f4163636f756e7420646f6573206e6f7420657869737400000000000000000000600082015250565b600061250f60168361223d565b915061251a826124d9565b602082019050919050565b6000602082019050818103600083015261253e81612502565b9050919050565b7f496e73756666696369656e742045746865722073656e74000000000000000000600082015250565b600061257b60178361223d565b915061258682612545565b602082019050919050565b600060208201905081810360008301526125aa8161256e565b9050919050565b600081905092915050565b60006125c782611e29565b6125d181856125b1565b93506125e1818560208601611e45565b80840191505092915050565b60006125f982846125bc565b915081905092915050565b7f4e487b7100000000000000000000000000000000000000000000000000000000600052602260045260246000fd5b6000600282049050600182168061264b57607f821691505b60208210810361265e5761265d612604565b5b50919050565b7f4163636f756e7420616c72656164792065786973747300000000000000000000600082015250565b600061269a60168361223d565b91506126a582612664565b602082019050919050565b600060208201905081810360008301526126c98161268d565b9050919050565b7f596f7520616c7265616479207368617265207468697320696e636964656e7400600082015250565b6000612706601f8361223d565b9150612711826126d0565b602082019050919050565b60006020820190508181036000830152612735816126f9565b9050919050565b60008190508160005260206000209050919050565b60006020601f8301049050919050565b600082821b905092915050565b60006008830261279e7fffffffffffffffffffffffffffffffffffffffffffffffffffffffffffffffff82612761565b6127a88683612761565b95508019841693508086168417925050509392505050565b6000819050919050565b60006127e56127e06127db84611c13565b6127c0565b611c13565b9050919050565b6000819050919050565b6127ff836127ca565b61281361280b826127ec565b84845461276e565b825550505050565b600090565b61282861281b565b6128338184846127f6565b505050565b5b818110156128575761284c600082612820565b600181019050612839565b5050565b601f82111561289c5761286d8161273c565b61287684612751565b81016020851015612885578190505b61289961289185612751565b830182612838565b50505b505050565b600082821c905092915050565b60006128bf600019846008026128a1565b1980831691505092915050565b60006128d883836128ae565b9150826002028217905092915050565b6128f182611e29565b67ffffffffffffffff81111561290a57612909611c76565b5b6129148254612633565b61291f82828561285b565b600060209050601f8311600181146129525760008415612940578287015190505b61294a85826128cc565b8655506129b2565b601f1984166129608661273c565b60005b8281101561298857848901518255600182019150602085019450602081019050612963565b868310156129a557848901516129a1601f8916826128ae565b8355505b6001600288020188555050505b505050505050565b600081546129c781612633565b6129d18186611e34565b945060018216600081146129ec5760018114612a0257612a35565b60ff198316865281151560200286019350612a35565b612a0b8561273c565b60005b83811015612a2d57815481890152600182019150602081019050612a0e565b808801955050505b50505092915050565b60008160001c9050919050565b600060ff82169050919050565b6000612a6b612a6683612a3e565b612a4b565b9050919050565b60008160081c9050919050565b600060ff82169050919050565b6000612a9f612a9a83612a72565b612a7f565b9050919050565b60008160101c9050919050565b600060ff82169050919050565b6000612ad3612ace83612aa6565b612ab3565b9050919050565b6000819050919050565b6000612af7612af283612a3e565b612ada565b9050919050565b600073ffffffffffffffffffffffffffffffffffffffff82169050919050565b6000612b31612b2c83612a3e565b612afe565b9050919050565b6000610140830160008084018583036000870152612b5683826129ba565b925050600184018583036020870152612b6f83826129ba565b925050600284018583036040870152612b8883826129ba565b92505060038401549050612b9b81612a58565b612ba86060870182611f10565b50612bb281612a8c565b612bbf6080870182611f58565b50612bc981612ac0565b612bd660a0870182611fa0565b5060048401549050612be781612ae4565b612bf460c0870182611faf565b5060058401549050612c0581612ae4565b612c1260e0870182611faf565b5060068401549050612c2381612b1e565b612c31610100870182611ff0565b5060078401549050612c4281612ae4565b612c50610120870182611faf565b50819250505092915050565b60006020820190508181036000830152612c768184612b38565b905092915050565b7f4e487b7100000000000000000000000000000000000000000000000000000000600052601160045260246000fd5b6000612cb882611c13565b91507fffffffffffffffffffffffffffffffffffffffffffffffffffffffffffffffff8203612cea57612ce9612c7e565b5b600182019050919050565b6000602082019050612d0a60008301846122b4565b92915050565b7f4e487b7100000000000000000000000000000000000000000000000000000000600052601260045260246000fd5b6000612d4a82611c13565b9150612d5583611c13565b925082612d6557612d64612d10565b5b828206905092915050565b6000612d7b82611c13565b9150612d8683611c13565b925082612d9657612d95612d10565b5b828204905092915050565b7f5f00000000000000000000000000000000000000000000000000000000000000815250565b6000612dd382846125bc565b9150612dde82612da1565b60018201915081905092915050565b6000612df982856125bc565b9150612e0582846125bc565b91508190509392505050565b7f4e487b7100000000000000000000000000000000000000000000000000000000600052603260045260246000fd5b6000612e4b82611c13565b9150612e5683611c13565b9250828203905081811115612e6e57612e6d612c7e565b5b9291505056fea2646970667358221220690dad7ae0a9c75d6fc70292453ba59a66afed81e6377242d776208a873f373064736f6c63430008110033",
  "immutableReferences": {},
  "source": "// SPDX-License-Identifier: MIT\r\npragma solidity ^0.8.17;\r\ncontract TrafficJamPrediction {\r\n\r\n    enum RoadType{\r\n        Expressway,\r\n        NationalHighway,\r\n        StateHighway,\r\n        MajorDistrictRoad,\r\n        OtherDistrictRoad,\r\n        RuralRoad\r\n    }\r\n\r\n    enum RoadCondition{\r\n        Smooth,\r\n        Moderate,\r\n        Poor,\r\n        ExtremelyBad\r\n    }\r\n\r\n    enum RoadEvent{\r\n        Construction,\r\n        Accident,\r\n        Barricades,\r\n        TollBooth,\r\n        DemonstrationsOrProtests,\r\n        Marathon,\r\n        Others\r\n    }\r\n\r\n    struct Incident {\r\n        string latitude;\r\n        string longitude;\r\n        string roadId;\r\n        RoadType roadType;\r\n        RoadCondition roadCondition;\r\n        RoadEvent roadEvent;\r\n        uint day;\r\n        uint timeslot;\r\n        address firstUser;\r\n        uint confirmNumber;\r\n    }\r\n\r\n    mapping(address => bool) public accounts;\r\n    mapping(string => Incident) public incidents;\r\n    mapping(string => bool) public incidentExist;\r\n    mapping(string => mapping(address => bool)) public incidentConfirm;\r\n\r\n    uint public incidentCount;\r\n    uint256 public tokenReward;\r\n    uint256 public minimunTokenGetProbability;\r\n\r\n\r\n    event IncidentShared(string indexed incidentHash, Incident incident);\r\n    event IncidentConfirm(string indexed incidentHash, address user);\r\n\r\n    constructor () {\r\n        incidentCount = 0;\r\n        tokenReward = 2 ether;\r\n        minimunTokenGetProbability = 1 ether;\r\n    }\r\n\r\n    function donate() external payable  {\r\n    }\r\n\r\n    function createAccount() external {\r\n        require(!accounts[msg.sender], \"Account already exists\");\r\n        accounts[msg.sender] = true;\r\n    }\r\n\r\n    function shareIncident(\r\n        string memory _latitude,\r\n        string memory _longitude,\r\n        string memory _roadId,\r\n        RoadType _roadType,\r\n        RoadCondition _roadCondition,\r\n        RoadEvent _event,\r\n        uint256 _timestamp\r\n    ) external payable returns(Incident memory incident){\r\n        require(accounts[msg.sender], \"Account does not exist\");\r\n\r\n        uint256 timestamp = _timestamp == 0 ? block.timestamp : _timestamp;\r\n\r\n        uint _timeslot = calculateTimeslot(timestamp);\r\n        uint _day = calculateDay(timestamp);\r\n        \r\n        string memory iHash = incidentHash(_roadId, _day, _timeslot);\r\n\r\n        require(incidentConfirm[iHash][msg.sender] == false, \"You already share this incident\");\r\n        //TODO: Check unique incident\r\n        if (!incidentExist[iHash]) {\r\n            incidents[iHash] = Incident({\r\n                latitude: _latitude,\r\n                longitude: _longitude,\r\n                roadId: _roadId,\r\n                roadType: _roadType,\r\n                roadCondition: _roadCondition,\r\n                roadEvent: _event,\r\n                day: _day,\r\n                timeslot: _timeslot,\r\n                firstUser: msg.sender,\r\n                confirmNumber: 0\r\n            });\r\n            incidentExist[iHash] = true;\r\n            incidentConfirm[iHash][msg.sender] = true;\r\n            emit IncidentShared(iHash, incidents[iHash]);\r\n        }\r\n        else{\r\n            incidents[iHash].confirmNumber++;\r\n            incidentConfirm[iHash][msg.sender] = true;\r\n            if (incidents[iHash].confirmNumber == 1){\r\n                address payable firstUser = payable(incidents[iHash].firstUser);\r\n                firstUser.transfer(tokenReward);\r\n            }\r\n            emit IncidentConfirm(iHash, msg.sender);\r\n        }\r\n\r\n        return incidents[iHash];\r\n    }\r\n\r\n    function getTrafficJamIncident(\r\n        string memory _roadId,\r\n        uint256 _timestamp\r\n        )\r\n        external\r\n        payable\r\n        returns (Incident memory incident)\r\n    {\r\n        require(accounts[msg.sender], \"Account does not exist\");\r\n        require(msg.value >= minimunTokenGetProbability, \"Insufficient Ether sent\");\r\n\r\n        uint256 timestamp = _timestamp == 0 ? block.timestamp : _timestamp;\r\n        uint _timeslot = calculateTimeslot(timestamp);\r\n        uint _day = calculateDay(timestamp);\r\n\r\n        string memory iHash = incidentHash(_roadId, _day, _timeslot);\r\n        incident = incidents[iHash];\r\n        return incident;\r\n    }\r\n\r\n    function incidentHash(\r\n        string memory _roadId,\r\n        uint _day,\r\n        uint _timeslot\r\n    ) internal pure returns (string memory iHash)\r\n    {\r\n        iHash = _roadId;\r\n        iHash = string.concat(iHash, \"_\");\r\n        iHash = string.concat(iHash, uintToString(_timeslot));\r\n        iHash = string.concat(iHash, \"_\");\r\n        iHash = string.concat(iHash, uintToString(_day));\r\n    }\r\n\r\n    uint256 constant TIMESLOT_DURATION = 30 minutes;\r\n\r\n    function calculateTimeslot(uint256 _timestamp) internal pure returns (uint) {\r\n        uint256 secondsInDay = 24 hours;\r\n        uint256 secondsSinceMidnight = _timestamp % secondsInDay;\r\n        uint256 timeslot = secondsSinceMidnight / TIMESLOT_DURATION;\r\n        return timeslot;\r\n    }\r\n\r\n    function calculateDay(uint256 _timestamp) internal pure returns (uint) {\r\n        uint256 secondsInDay = 24 hours;\r\n        return _timestamp / secondsInDay;\r\n    }\r\n\r\n    function uintToString(uint v) internal pure returns (string memory str) {\r\n        uint maxlength = 100;\r\n        bytes memory reversed = new bytes(maxlength);\r\n        uint i = 0;\r\n        while (v != 0) {\r\n            uint remainder = v % 10;\r\n            v = v / 10;\r\n            if (remainder == 0){\r\n                reversed[i++] = '0';\r\n            }\r\n            else if (remainder == 1){\r\n                reversed[i++] = '1';\r\n            }\r\n            else if (remainder == 2){\r\n                reversed[i++] = '2';\r\n            }\r\n            else if (remainder == 3){\r\n                reversed[i++] = '3';\r\n            }\r\n            else if (remainder == 4){\r\n                reversed[i++] = '4';\r\n            }\r\n            else if (remainder == 5){\r\n                reversed[i++] = '5';\r\n            }\r\n            else if (remainder == 6){\r\n                reversed[i++] = '6';\r\n            }\r\n            else if (remainder == 7){\r\n                reversed[i++] = '7';\r\n            }\r\n            else if (remainder == 8){\r\n                reversed[i++] = '8';\r\n            }\r\n            else if (remainder == 9){\r\n                reversed[i++] = '9';\r\n            }\r\n        }\r\n        bytes memory s = new bytes(i);\r\n        for (uint j = 0; j < i; j++) {\r\n            s[j] = reversed[i - 1 - j];\r\n        }\r\n        str = string(s);\r\n    }\r\n}",
  "sourcePath": "C:\\Users\\WBPC.VN\\PycharmProjects\\traffic-jam-prediction\\contracts\\TrafficJamPrediction.sol",
  "compiler": {
    "name": "solc",
    "version": "0.8.17+commit.8df45f5f.Emscripten.clang"
  },
  "schemaVersion": "3.4.14",
  "updatedAt": "2023-07-22T17:27:46.855Z",
  "networkType": "ethereum",
  "devdoc": {
    "kind": "dev",
    "methods": {},
    "version": 1
  },
  "userdoc": {
    "kind": "user",
    "methods": {},
    "version": 1
  }
}