{
  "contractName": "TrafficJamPrediction",
  "abi": [
    {
      "inputs": [],
      "stateMutability": "nonpayable",
      "type": "constructor"
    },
    {
      "anonymous": false,
      "inputs": [
        {
          "indexed": true,
          "internalType": "string",
          "name": "incidentHash",
          "type": "string"
        },
        {
          "indexed": false,
          "internalType": "address",
          "name": "user",
          "type": "address"
        }
      ],
      "name": "IncidentConfirm",
      "type": "event"
    },
    {
      "anonymous": false,
      "inputs": [
        {
          "indexed": true,
          "internalType": "string",
          "name": "incidentHash",
          "type": "string"
        },
        {
          "components": [
            {
              "components": [
                {
                  "internalType": "int256",
                  "name": "latitude",
                  "type": "int256"
                },
                {
                  "internalType": "int256",
                  "name": "longitude",
                  "type": "int256"
                }
              ],
              "internalType": "struct TrafficJamPrediction.Location",
              "name": "location",
              "type": "tuple"
            },
            {
              "internalType": "string",
              "name": "roadId",
              "type": "string"
            },
            {
              "internalType": "enum TrafficJamPrediction.RoadType",
              "name": "roadType",
              "type": "uint8"
            },
            {
              "internalType": "enum TrafficJamPrediction.RoadCondition",
              "name": "roadCondition",
              "type": "uint8"
            },
            {
              "internalType": "enum TrafficJamPrediction.RoadEvent",
              "name": "roadEvent",
              "type": "uint8"
            },
            {
              "internalType": "uint256",
              "name": "day",
              "type": "uint256"
            },
            {
              "internalType": "uint256",
              "name": "timeslot",
              "type": "uint256"
            },
            {
              "internalType": "address",
              "name": "firstUser",
              "type": "address"
            },
            {
              "internalType": "uint256",
              "name": "confirmNumber",
              "type": "uint256"
            }
          ],
          "indexed": false,
          "internalType": "struct TrafficJamPrediction.Incident",
          "name": "incident",
          "type": "tuple"
        }
      ],
      "name": "IncidentShared",
      "type": "event"
    },
    {
      "inputs": [
        {
          "internalType": "address",
          "name": "",
          "type": "address"
        }
      ],
      "name": "accounts",
      "outputs": [
        {
          "internalType": "bool",
          "name": "",
          "type": "bool"
        }
      ],
      "stateMutability": "view",
      "type": "function",
      "constant": true
    },
    {
      "inputs": [
        {
          "internalType": "string",
          "name": "",
          "type": "string"
        },
        {
          "internalType": "address",
          "name": "",
          "type": "address"
        }
      ],
      "name": "incidentConfirm",
      "outputs": [
        {
          "internalType": "bool",
          "name": "",
          "type": "bool"
        }
      ],
      "stateMutability": "view",
      "type": "function",
      "constant": true
    },
    {
      "inputs": [],
      "name": "incidentCount",
      "outputs": [
        {
          "internalType": "uint256",
          "name": "",
          "type": "uint256"
        }
      ],
      "stateMutability": "view",
      "type": "function",
      "constant": true
    },
    {
      "inputs": [
        {
          "internalType": "string",
          "name": "",
          "type": "string"
        }
      ],
      "name": "incidentExist",
      "outputs": [
        {
          "internalType": "bool",
          "name": "",
          "type": "bool"
        }
      ],
      "stateMutability": "view",
      "type": "function",
      "constant": true
    },
    {
      "inputs": [
        {
          "internalType": "string",
          "name": "",
          "type": "string"
        }
      ],
      "name": "incidents",
      "outputs": [
        {
          "components": [
            {
              "internalType": "int256",
              "name": "latitude",
              "type": "int256"
            },
            {
              "internalType": "int256",
              "name": "longitude",
              "type": "int256"
            }
          ],
          "internalType": "struct TrafficJamPrediction.Location",
          "name": "location",
          "type": "tuple"
        },
        {
          "internalType": "string",
          "name": "roadId",
          "type": "string"
        },
        {
          "internalType": "enum TrafficJamPrediction.RoadType",
          "name": "roadType",
          "type": "uint8"
        },
        {
          "internalType": "enum TrafficJamPrediction.RoadCondition",
          "name": "roadCondition",
          "type": "uint8"
        },
        {
          "internalType": "enum TrafficJamPrediction.RoadEvent",
          "name": "roadEvent",
          "type": "uint8"
        },
        {
          "internalType": "uint256",
          "name": "day",
          "type": "uint256"
        },
        {
          "internalType": "uint256",
          "name": "timeslot",
          "type": "uint256"
        },
        {
          "internalType": "address",
          "name": "firstUser",
          "type": "address"
        },
        {
          "internalType": "uint256",
          "name": "confirmNumber",
          "type": "uint256"
        }
      ],
      "stateMutability": "view",
      "type": "function",
      "constant": true
    },
    {
      "inputs": [],
      "name": "minimunTokenGetProbability",
      "outputs": [
        {
          "internalType": "uint256",
          "name": "",
          "type": "uint256"
        }
      ],
      "stateMutability": "view",
      "type": "function",
      "constant": true
    },
    {
      "inputs": [],
      "name": "tokenReward",
      "outputs": [
        {
          "internalType": "uint256",
          "name": "",
          "type": "uint256"
        }
      ],
      "stateMutability": "view",
      "type": "function",
      "constant": true
    },
    {
      "inputs": [],
      "name": "donate",
      "outputs": [],
      "stateMutability": "payable",
      "type": "function",
      "payable": true
    },
    {
      "inputs": [],
      "name": "createAccount",
      "outputs": [],
      "stateMutability": "nonpayable",
      "type": "function"
    },
    {
      "inputs": [
        {
          "internalType": "int256",
          "name": "_latitude",
          "type": "int256"
        },
        {
          "internalType": "int256",
          "name": "_longitude",
          "type": "int256"
        },
        {
          "internalType": "string",
          "name": "_roadId",
          "type": "string"
        },
        {
          "internalType": "enum TrafficJamPrediction.RoadType",
          "name": "_roadType",
          "type": "uint8"
        },
        {
          "internalType": "enum TrafficJamPrediction.RoadCondition",
          "name": "_roadCondition",
          "type": "uint8"
        },
        {
          "internalType": "enum TrafficJamPrediction.RoadEvent",
          "name": "_event",
          "type": "uint8"
        },
        {
          "internalType": "uint256",
          "name": "_timestamp",
          "type": "uint256"
        }
      ],
      "name": "shareIncident",
      "outputs": [
        {
          "components": [
            {
              "components": [
                {
                  "internalType": "int256",
                  "name": "latitude",
                  "type": "int256"
                },
                {
                  "internalType": "int256",
                  "name": "longitude",
                  "type": "int256"
                }
              ],
              "internalType": "struct TrafficJamPrediction.Location",
              "name": "location",
              "type": "tuple"
            },
            {
              "internalType": "string",
              "name": "roadId",
              "type": "string"
            },
            {
              "internalType": "enum TrafficJamPrediction.RoadType",
              "name": "roadType",
              "type": "uint8"
            },
            {
              "internalType": "enum TrafficJamPrediction.RoadCondition",
              "name": "roadCondition",
              "type": "uint8"
            },
            {
              "internalType": "enum TrafficJamPrediction.RoadEvent",
              "name": "roadEvent",
              "type": "uint8"
            },
            {
              "internalType": "uint256",
              "name": "day",
              "type": "uint256"
            },
            {
              "internalType": "uint256",
              "name": "timeslot",
              "type": "uint256"
            },
            {
              "internalType": "address",
              "name": "firstUser",
              "type": "address"
            },
            {
              "internalType": "uint256",
              "name": "confirmNumber",
              "type": "uint256"
            }
          ],
          "internalType": "struct TrafficJamPrediction.Incident",
          "name": "incident",
          "type": "tuple"
        }
      ],
      "stateMutability": "payable",
      "type": "function",
      "payable": true
    },
    {
      "inputs": [
        {
          "internalType": "string",
          "name": "iHash",
          "type": "string"
        }
      ],
      "name": "getIncident",
      "outputs": [
        {
          "components": [
            {
              "components": [
                {
                  "internalType": "int256",
                  "name": "latitude",
                  "type": "int256"
                },
                {
                  "internalType": "int256",
                  "name": "longitude",
                  "type": "int256"
                }
              ],
              "internalType": "struct TrafficJamPrediction.Location",
              "name": "location",
              "type": "tuple"
            },
            {
              "internalType": "string",
              "name": "roadId",
              "type": "string"
            },
            {
              "internalType": "enum TrafficJamPrediction.RoadType",
              "name": "roadType",
              "type": "uint8"
            },
            {
              "internalType": "enum TrafficJamPrediction.RoadCondition",
              "name": "roadCondition",
              "type": "uint8"
            },
            {
              "internalType": "enum TrafficJamPrediction.RoadEvent",
              "name": "roadEvent",
              "type": "uint8"
            },
            {
              "internalType": "uint256",
              "name": "day",
              "type": "uint256"
            },
            {
              "internalType": "uint256",
              "name": "timeslot",
              "type": "uint256"
            },
            {
              "internalType": "address",
              "name": "firstUser",
              "type": "address"
            },
            {
              "internalType": "uint256",
              "name": "confirmNumber",
              "type": "uint256"
            }
          ],
          "internalType": "struct TrafficJamPrediction.Incident",
          "name": "incident",
          "type": "tuple"
        }
      ],
      "stateMutability": "view",
      "type": "function",
      "constant": true
    },
    {
      "inputs": [
        {
          "internalType": "string",
          "name": "_roadId",
          "type": "string"
        },
        {
          "internalType": "uint256",
          "name": "_timestamp",
          "type": "uint256"
        }
      ],
      "name": "getTrafficJamIncident",
      "outputs": [
        {
          "components": [
            {
              "components": [
                {
                  "internalType": "int256",
                  "name": "latitude",
                  "type": "int256"
                },
                {
                  "internalType": "int256",
                  "name": "longitude",
                  "type": "int256"
                }
              ],
              "internalType": "struct TrafficJamPrediction.Location",
              "name": "location",
              "type": "tuple"
            },
            {
              "internalType": "string",
              "name": "roadId",
              "type": "string"
            },
            {
              "internalType": "enum TrafficJamPrediction.RoadType",
              "name": "roadType",
              "type": "uint8"
            },
            {
              "internalType": "enum TrafficJamPrediction.RoadCondition",
              "name": "roadCondition",
              "type": "uint8"
            },
            {
              "internalType": "enum TrafficJamPrediction.RoadEvent",
              "name": "roadEvent",
              "type": "uint8"
            },
            {
              "internalType": "uint256",
              "name": "day",
              "type": "uint256"
            },
            {
              "internalType": "uint256",
              "name": "timeslot",
              "type": "uint256"
            },
            {
              "internalType": "address",
              "name": "firstUser",
              "type": "address"
            },
            {
              "internalType": "uint256",
              "name": "confirmNumber",
              "type": "uint256"
            }
          ],
          "internalType": "struct TrafficJamPrediction.Incident",
          "name": "incident",
          "type": "tuple"
        }
      ],
      "stateMutability": "payable",
      "type": "function",
      "payable": true
    }
  ],
  "bytecode": "0x608060405234801561001057600080fd5b506000600481905550671bc16d674ec80000600581905550670de0b6b3a7640000600681905550612d35806100466000396000f3fe6080604052600436106100a75760003560e01c80639448db7a116100645780639448db7a146101dc578063990ad2a0146102195780639dca362f1461025e578063a09b86ac14610275578063ed88c68e146102a0578063f91e9498146102aa576100a7565b80631f24e366146100ac5780634b20d4eb146100d75780635e5c06e21461010757806368af56e5146101445780636e66f6e9146101815780638ed3eb2b146101ac575b600080fd5b3480156100b857600080fd5b506100c16102e7565b6040516100ce9190611a3f565b60405180910390f35b6100f160048036038101906100ec9190611be0565b6102ed565b6040516100fe9190611f20565b60405180910390f35b34801561011357600080fd5b5061012e60048036038101906101299190611f6e565b610416565b60405161013b9190611fb6565b60405180910390f35b34801561015057600080fd5b5061016b60048036038101906101669190611fd1565b610436565b6040516101789190611f20565b60405180910390f35b34801561018d57600080fd5b506101966106d9565b6040516101a39190611a3f565b60405180910390f35b6101c660048036038101906101c191906120b5565b6106df565b6040516101d39190611f20565b60405180910390f35b3480156101e857600080fd5b5061020360048036038101906101fe9190612173565b610f60565b6040516102109190611fb6565b60405180910390f35b34801561022557600080fd5b50610240600480360381019061023b9190611fd1565b610fa5565b60405161025599989796959493929190612284565b60405180910390f35b34801561026a57600080fd5b506102736110f6565b005b34801561028157600080fd5b5061028a6111db565b6040516102979190611a3f565b60405180910390f35b6102a86111e1565b005b3480156102b657600080fd5b506102d160048036038101906102cc9190611fd1565b6111e3565b6040516102de9190611fb6565b60405180910390f35b60065481565b6102f561196e565b6000803373ffffffffffffffffffffffffffffffffffffffff1673ffffffffffffffffffffffffffffffffffffffff16815260200190815260200160002060009054906101000a900460ff16610380576040517f08c379a000000000000000000000000000000000000000000000000000000000815260040161037790612365565b60405180910390fd5b6006543410156103c5576040517f08c379a00000000000000000000000000000000000000000000000000000000081526004016103bc906123d1565b60405180910390fd5b60008083146103d457826103d6565b425b905060006103e382611219565b905060006103f08361124f565b905060006103ff87838561126c565b905061040a81610436565b94505050505092915050565b60006020528060005260406000206000915054906101000a900460ff1681565b61043e61196e565b6000803373ffffffffffffffffffffffffffffffffffffffff1673ffffffffffffffffffffffffffffffffffffffff16815260200190815260200160002060009054906101000a900460ff166104c9576040517f08c379a00000000000000000000000000000000000000000000000000000000081526004016104c090612365565b60405180910390fd5b6001826040516104d9919061242d565b9081526020016040518091039020604051806101200160405290816000820160405180604001604052908160008201548152602001600182015481525050815260200160028201805461052b90612473565b80601f016020809104026020016040519081016040528092919081815260200182805461055790612473565b80156105a45780601f10610579576101008083540402835291602001916105a4565b820191906000526020600020905b81548152906001019060200180831161058757829003601f168201915b505050505081526020016003820160009054906101000a900460ff1660058111156105d2576105d1611d03565b5b60058111156105e4576105e3611d03565b5b81526020016003820160019054906101000a900460ff16600381111561060d5761060c611d03565b5b600381111561061f5761061e611d03565b5b81526020016003820160029054906101000a900460ff16600681111561064857610647611d03565b5b600681111561065a57610659611d03565b5b815260200160048201548152602001600582015481526020016006820160009054906101000a900473ffffffffffffffffffffffffffffffffffffffff1673ffffffffffffffffffffffffffffffffffffffff1673ffffffffffffffffffffffffffffffffffffffff1681526020016007820154815250509050919050565b60055481565b6106e761196e565b6000803373ffffffffffffffffffffffffffffffffffffffff1673ffffffffffffffffffffffffffffffffffffffff16815260200190815260200160002060009054906101000a900460ff16610772576040517f08c379a000000000000000000000000000000000000000000000000000000000815260040161076990612365565b60405180910390fd5b60008083146107815782610783565b425b9050600061079082611219565b9050600061079d8361124f565b905060006107ac8a838561126c565b9050600015156003826040516107c2919061242d565b908152602001604051809103902060003373ffffffffffffffffffffffffffffffffffffffff1673ffffffffffffffffffffffffffffffffffffffff16815260200190815260200160002060009054906101000a900460ff1615151461085d576040517f08c379a0000000000000000000000000000000000000000000000000000000008152600401610854906124f0565b60405180910390fd5b60028160405161086d919061242d565b908152602001604051809103902060009054906101000a900460ff16610b945760405180610120016040528060405180604001604052808f81526020018e81525081526020018b81526020018a60058111156108cc576108cb611d03565b5b81526020018960038111156108e4576108e3611d03565b5b81526020018860068111156108fc576108fb611d03565b5b81526020018381526020018481526020013373ffffffffffffffffffffffffffffffffffffffff168152602001600081525060018260405161093e919061242d565b908152602001604051809103902060008201518160000160008201518160000155602082015181600101555050602082015181600201908161098091906126bc565b5060408201518160030160006101000a81548160ff021916908360058111156109ac576109ab611d03565b5b021790555060608201518160030160016101000a81548160ff021916908360038111156109dc576109db611d03565b5b021790555060808201518160030160026101000a81548160ff02191690836006811115610a0c57610a0b611d03565b5b021790555060a0820151816004015560c0820151816005015560e08201518160060160006101000a81548173ffffffffffffffffffffffffffffffffffffffff021916908373ffffffffffffffffffffffffffffffffffffffff16021790555061010082015181600701559050506001600282604051610a8c919061242d565b908152602001604051809103902060006101000a81548160ff0219169083151502179055506001600382604051610ac3919061242d565b908152602001604051809103902060003373ffffffffffffffffffffffffffffffffffffffff1673ffffffffffffffffffffffffffffffffffffffff16815260200190815260200160002060006101000a81548160ff02191690831515021790555080604051610b33919061242d565b60405180910390207f0249f75979f05128cb98dc51dcb860896e908bcc9e5b36d3182766f65025e248600183604051610b6c919061242d565b9081526020016040518091039020604051610b879190612a7b565b60405180910390a2610d46565b600181604051610ba4919061242d565b90815260200160405180910390206007016000815480929190610bc690612acc565b91905055506001600382604051610bdd919061242d565b908152602001604051809103902060003373ffffffffffffffffffffffffffffffffffffffff1673ffffffffffffffffffffffffffffffffffffffff16815260200190815260200160002060006101000a81548160ff02191690831515021790555060018082604051610c50919061242d565b90815260200160405180910390206007015403610cf8576000600182604051610c79919061242d565b908152602001604051809103902060060160009054906101000a900473ffffffffffffffffffffffffffffffffffffffff1690508073ffffffffffffffffffffffffffffffffffffffff166108fc6005549081150290604051600060405180830381858888f19350505050158015610cf5573d6000803e3d6000fd5b50505b80604051610d06919061242d565b60405180910390207fcc0a77509def7a2b56e9a01824660c2ff76c0934775c1f2aff6ec703fd007ae233604051610d3d9190612b14565b60405180910390a25b600181604051610d56919061242d565b90815260200160405180910390206040518061012001604052908160008201604051806040016040529081600082015481526020016001820154815250508152602001600282018054610da890612473565b80601f0160208091040260200160405190810160405280929190818152602001828054610dd490612473565b8015610e215780601f10610df657610100808354040283529160200191610e21565b820191906000526020600020905b815481529060010190602001808311610e0457829003601f168201915b505050505081526020016003820160009054906101000a900460ff166005811115610e4f57610e4e611d03565b5b6005811115610e6157610e60611d03565b5b81526020016003820160019054906101000a900460ff166003811115610e8a57610e89611d03565b5b6003811115610e9c57610e9b611d03565b5b81526020016003820160029054906101000a900460ff166006811115610ec557610ec4611d03565b5b6006811115610ed757610ed6611d03565b5b815260200160048201548152602001600582015481526020016006820160009054906101000a900473ffffffffffffffffffffffffffffffffffffffff1673ffffffffffffffffffffffffffffffffffffffff1673ffffffffffffffffffffffffffffffffffffffff168152602001600782015481525050945050505050979650505050505050565b6003828051602081018201805184825260208301602085012081835280955050505050506020528060005260406000206000915091509054906101000a900460ff1681565b60018180516020810182018051848252602083016020850120818352809550505050505060009150905080600001604051806040016040529081600082015481526020016001820154815250509080600201805461100290612473565b80601f016020809104026020016040519081016040528092919081815260200182805461102e90612473565b801561107b5780601f106110505761010080835404028352916020019161107b565b820191906000526020600020905b81548152906001019060200180831161105e57829003601f168201915b5050505050908060030160009054906101000a900460ff16908060030160019054906101000a900460ff16908060030160029054906101000a900460ff16908060040154908060050154908060060160009054906101000a900473ffffffffffffffffffffffffffffffffffffffff16908060070154905089565b6000803373ffffffffffffffffffffffffffffffffffffffff1673ffffffffffffffffffffffffffffffffffffffff16815260200190815260200160002060009054906101000a900460ff1615611182576040517f08c379a000000000000000000000000000000000000000000000000000000000815260040161117990612b7b565b60405180910390fd5b60016000803373ffffffffffffffffffffffffffffffffffffffff1673ffffffffffffffffffffffffffffffffffffffff16815260200190815260200160002060006101000a81548160ff021916908315150217905550565b60045481565b565b6002818051602081018201805184825260208301602085012081835280955050505050506000915054906101000a900460ff1681565b600080620151809050600081846112309190612bca565b90506000610708826112429190612bfb565b9050809350505050919050565b60008062015180905080836112649190612bfb565b915050919050565b6060839050806040516020016112829190612c52565b60405160208183030381529060405290508061129d83611314565b6040516020016112ae929190612c78565b6040516020818303038152906040529050806040516020016112d09190612c52565b6040516020818303038152906040529050806112eb84611314565b6040516020016112fc929190612c78565b60405160208183030381529060405290509392505050565b606060006064905060008167ffffffffffffffff81111561133857611337611a89565b5b6040519080825280601f01601f19166020018201604052801561136a5781602001600182028036833780820191505090505b50905060005b6000851461187b576000600a866113879190612bca565b9050600a866113969190612bfb565b955060008103611414577f30000000000000000000000000000000000000000000000000000000000000008383806113cd90612acc565b9450815181106113e0576113df612c9c565b5b60200101907effffffffffffffffffffffffffffffffffffffffffffffffffffffffffffff1916908160001a905350611875565b60018103611490577f310000000000000000000000000000000000000000000000000000000000000083838061144990612acc565b94508151811061145c5761145b612c9c565b5b60200101907effffffffffffffffffffffffffffffffffffffffffffffffffffffffffffff1916908160001a905350611874565b6002810361150c577f32000000000000000000000000000000000000000000000000000000000000008383806114c590612acc565b9450815181106114d8576114d7612c9c565b5b60200101907effffffffffffffffffffffffffffffffffffffffffffffffffffffffffffff1916908160001a905350611873565b60038103611588577f330000000000000000000000000000000000000000000000000000000000000083838061154190612acc565b94508151811061155457611553612c9c565b5b60200101907effffffffffffffffffffffffffffffffffffffffffffffffffffffffffffff1916908160001a905350611872565b60048103611604577f34000000000000000000000000000000000000000000000000000000000000008383806115bd90612acc565b9450815181106115d0576115cf612c9c565b5b60200101907effffffffffffffffffffffffffffffffffffffffffffffffffffffffffffff1916908160001a905350611871565b60058103611680577f350000000000000000000000000000000000000000000000000000000000000083838061163990612acc565b94508151811061164c5761164b612c9c565b5b60200101907effffffffffffffffffffffffffffffffffffffffffffffffffffffffffffff1916908160001a905350611870565b600681036116fc577f36000000000000000000000000000000000000000000000000000000000000008383806116b590612acc565b9450815181106116c8576116c7612c9c565b5b60200101907effffffffffffffffffffffffffffffffffffffffffffffffffffffffffffff1916908160001a90535061186f565b60078103611778577f370000000000000000000000000000000000000000000000000000000000000083838061173190612acc565b94508151811061174457611743612c9c565b5b60200101907effffffffffffffffffffffffffffffffffffffffffffffffffffffffffffff1916908160001a90535061186e565b600881036117f4577f38000000000000000000000000000000000000000000000000000000000000008383806117ad90612acc565b9450815181106117c0576117bf612c9c565b5b60200101907effffffffffffffffffffffffffffffffffffffffffffffffffffffffffffff1916908160001a90535061186d565b6009810361186c577f390000000000000000000000000000000000000000000000000000000000000083838061182990612acc565b94508151811061183c5761183b612c9c565b5b60200101907effffffffffffffffffffffffffffffffffffffffffffffffffffffffffffff1916908160001a9053505b5b5b5b5b5b5b5b5b5b50611370565b60008167ffffffffffffffff81111561189757611896611a89565b5b6040519080825280601f01601f1916602001820160405280156118c95781602001600182028036833780820191505090505b50905060005b828110156119615783816001856118e69190612ccb565b6118f09190612ccb565b8151811061190157611900612c9c565b5b602001015160f81c60f81b82828151811061191f5761191e612c9c565b5b60200101907effffffffffffffffffffffffffffffffffffffffffffffffffffffffffffff1916908160001a905350808061195990612acc565b9150506118cf565b5080945050505050919050565b604051806101200160405280611982611a0c565b815260200160608152602001600060058111156119a2576119a1611d03565b5b8152602001600060038111156119bb576119ba611d03565b5b8152602001600060068111156119d4576119d3611d03565b5b81526020016000815260200160008152602001600073ffffffffffffffffffffffffffffffffffffffff168152602001600081525090565b604051806040016040528060008152602001600081525090565b6000819050919050565b611a3981611a26565b82525050565b6000602082019050611a546000830184611a30565b92915050565b6000604051905090565b600080fd5b600080fd5b600080fd5b600080fd5b6000601f19601f8301169050919050565b7f4e487b7100000000000000000000000000000000000000000000000000000000600052604160045260246000fd5b611ac182611a78565b810181811067ffffffffffffffff82111715611ae057611adf611a89565b5b80604052505050565b6000611af3611a5a565b9050611aff8282611ab8565b919050565b600067ffffffffffffffff821115611b1f57611b1e611a89565b5b611b2882611a78565b9050602081019050919050565b82818337600083830152505050565b6000611b57611b5284611b04565b611ae9565b905082815260208101848484011115611b7357611b72611a73565b5b611b7e848285611b35565b509392505050565b600082601f830112611b9b57611b9a611a6e565b5b8135611bab848260208601611b44565b91505092915050565b611bbd81611a26565b8114611bc857600080fd5b50565b600081359050611bda81611bb4565b92915050565b60008060408385031215611bf757611bf6611a64565b5b600083013567ffffffffffffffff811115611c1557611c14611a69565b5b611c2185828601611b86565b9250506020611c3285828601611bcb565b9150509250929050565b6000819050919050565b611c4f81611c3c565b82525050565b604082016000820151611c6b6000850182611c46565b506020820151611c7e6020850182611c46565b50505050565b600081519050919050565b600082825260208201905092915050565b60005b83811015611cbe578082015181840152602081019050611ca3565b60008484015250505050565b6000611cd582611c84565b611cdf8185611c8f565b9350611cef818560208601611ca0565b611cf881611a78565b840191505092915050565b7f4e487b7100000000000000000000000000000000000000000000000000000000600052602160045260246000fd5b60068110611d4357611d42611d03565b5b50565b6000819050611d5482611d32565b919050565b6000611d6482611d46565b9050919050565b611d7481611d59565b82525050565b60048110611d8b57611d8a611d03565b5b50565b6000819050611d9c82611d7a565b919050565b6000611dac82611d8e565b9050919050565b611dbc81611da1565b82525050565b60078110611dd357611dd2611d03565b5b50565b6000819050611de482611dc2565b919050565b6000611df482611dd6565b9050919050565b611e0481611de9565b82525050565b611e1381611a26565b82525050565b600073ffffffffffffffffffffffffffffffffffffffff82169050919050565b6000611e4482611e19565b9050919050565b611e5481611e39565b82525050565b600061014083016000830151611e736000860182611c55565b5060208301518482036040860152611e8b8282611cca565b9150506040830151611ea06060860182611d6b565b506060830151611eb36080860182611db3565b506080830151611ec660a0860182611dfb565b5060a0830151611ed960c0860182611e0a565b5060c0830151611eec60e0860182611e0a565b5060e0830151611f00610100860182611e4b565b50610100830151611f15610120860182611e0a565b508091505092915050565b60006020820190508181036000830152611f3a8184611e5a565b905092915050565b611f4b81611e39565b8114611f5657600080fd5b50565b600081359050611f6881611f42565b92915050565b600060208284031215611f8457611f83611a64565b5b6000611f9284828501611f59565b91505092915050565b60008115159050919050565b611fb081611f9b565b82525050565b6000602082019050611fcb6000830184611fa7565b92915050565b600060208284031215611fe757611fe6611a64565b5b600082013567ffffffffffffffff81111561200557612004611a69565b5b61201184828501611b86565b91505092915050565b61202381611c3c565b811461202e57600080fd5b50565b6000813590506120408161201a565b92915050565b6006811061205357600080fd5b50565b60008135905061206581612046565b92915050565b6004811061207857600080fd5b50565b60008135905061208a8161206b565b92915050565b6007811061209d57600080fd5b50565b6000813590506120af81612090565b92915050565b600080600080600080600060e0888a0312156120d4576120d3611a64565b5b60006120e28a828b01612031565b97505060206120f38a828b01612031565b965050604088013567ffffffffffffffff81111561211457612113611a69565b5b6121208a828b01611b86565b95505060606121318a828b01612056565b94505060806121428a828b0161207b565b93505060a06121538a828b016120a0565b92505060c06121648a828b01611bcb565b91505092959891949750929550565b6000806040838503121561218a57612189611a64565b5b600083013567ffffffffffffffff8111156121a8576121a7611a69565b5b6121b485828601611b86565b92505060206121c585828601611f59565b9150509250929050565b6040820160008201516121e56000850182611c46565b5060208201516121f86020850182611c46565b50505050565b600082825260208201905092915050565b600061221a82611c84565b61222481856121fe565b9350612234818560208601611ca0565b61223d81611a78565b840191505092915050565b61225181611d59565b82525050565b61226081611da1565b82525050565b61226f81611de9565b82525050565b61227e81611e39565b82525050565b60006101408201905061229a600083018c6121cf565b81810360408301526122ac818b61220f565b90506122bb606083018a612248565b6122c86080830189612257565b6122d560a0830188612266565b6122e260c0830187611a30565b6122ef60e0830186611a30565b6122fd610100830185612275565b61230b610120830184611a30565b9a9950505050505050505050565b7f4163636f756e7420646f6573206e6f7420657869737400000000000000000000600082015250565b600061234f6016836121fe565b915061235a82612319565b602082019050919050565b6000602082019050818103600083015261237e81612342565b9050919050565b7f496e73756666696369656e742045746865722073656e74000000000000000000600082015250565b60006123bb6017836121fe565b91506123c682612385565b602082019050919050565b600060208201905081810360008301526123ea816123ae565b9050919050565b600081905092915050565b600061240782611c84565b61241181856123f1565b9350612421818560208601611ca0565b80840191505092915050565b600061243982846123fc565b915081905092915050565b7f4e487b7100000000000000000000000000000000000000000000000000000000600052602260045260246000fd5b6000600282049050600182168061248b57607f821691505b60208210810361249e5761249d612444565b5b50919050565b7f596f7520616c7265616479207368617265207468697320696e636964656e7400600082015250565b60006124da601f836121fe565b91506124e5826124a4565b602082019050919050565b60006020820190508181036000830152612509816124cd565b9050919050565b60008190508160005260206000209050919050565b60006020601f8301049050919050565b600082821b905092915050565b6000600883026125727fffffffffffffffffffffffffffffffffffffffffffffffffffffffffffffffff82612535565b61257c8683612535565b95508019841693508086168417925050509392505050565b6000819050919050565b60006125b96125b46125af84611a26565b612594565b611a26565b9050919050565b6000819050919050565b6125d38361259e565b6125e76125df826125c0565b848454612542565b825550505050565b600090565b6125fc6125ef565b6126078184846125ca565b505050565b5b8181101561262b576126206000826125f4565b60018101905061260d565b5050565b601f8211156126705761264181612510565b61264a84612525565b81016020851015612659578190505b61266d61266585612525565b83018261260c565b50505b505050565b600082821c905092915050565b600061269360001984600802612675565b1980831691505092915050565b60006126ac8383612682565b9150826002028217905092915050565b6126c582611c84565b67ffffffffffffffff8111156126de576126dd611a89565b5b6126e88254612473565b6126f382828561262f565b600060209050601f8311600181146127265760008415612714578287015190505b61271e85826126a0565b865550612786565b601f19841661273486612510565b60005b8281101561275c57848901518255600182019150602085019450602081019050612737565b868310156127795784890151612775601f891682612682565b8355505b6001600288020188555050505b505050505050565b60008160001c9050919050565b6000819050919050565b60006127b86127b38361278e565b61279b565b9050919050565b6040820160008083015490506127d4816127a5565b6127e16000860182611c46565b50600183015490506127f2816127a5565b6127ff6020860182611c46565b5050505050565b6000815461281381612473565b61281d8186611c8f565b94506001821660008114612838576001811461284e57612881565b60ff198316865281151560200286019350612881565b61285785612510565b60005b838110156128795781548189015260018201915060208101905061285a565b808801955050505b50505092915050565b600060ff82169050919050565b60006128aa6128a58361278e565b61288a565b9050919050565b60008160081c9050919050565b600060ff82169050919050565b60006128de6128d9836128b1565b6128be565b9050919050565b60008160101c9050919050565b600060ff82169050919050565b600061291261290d836128e5565b6128f2565b9050919050565b6000819050919050565b60006129366129318361278e565b612919565b9050919050565b600073ffffffffffffffffffffffffffffffffffffffff82169050919050565b600061297061296b8361278e565b61293d565b9050919050565b60006101408301600080840161299060008701826127bf565b506002840185830360408701526129a78382612806565b925050600384015490506129ba81612897565b6129c76060870182611d6b565b506129d1816128cb565b6129de6080870182611db3565b506129e8816128ff565b6129f560a0870182611dfb565b5060048401549050612a0681612923565b612a1360c0870182611e0a565b5060058401549050612a2481612923565b612a3160e0870182611e0a565b5060068401549050612a428161295d565b612a50610100870182611e4b565b5060078401549050612a6181612923565b612a6f610120870182611e0a565b50819250505092915050565b60006020820190508181036000830152612a958184612977565b905092915050565b7f4e487b7100000000000000000000000000000000000000000000000000000000600052601160045260246000fd5b6000612ad782611a26565b91507fffffffffffffffffffffffffffffffffffffffffffffffffffffffffffffffff8203612b0957612b08612a9d565b5b600182019050919050565b6000602082019050612b296000830184612275565b92915050565b7f4163636f756e7420616c72656164792065786973747300000000000000000000600082015250565b6000612b656016836121fe565b9150612b7082612b2f565b602082019050919050565b60006020820190508181036000830152612b9481612b58565b9050919050565b7f4e487b7100000000000000000000000000000000000000000000000000000000600052601260045260246000fd5b6000612bd582611a26565b9150612be083611a26565b925082612bf057612bef612b9b565b5b828206905092915050565b6000612c0682611a26565b9150612c1183611a26565b925082612c2157612c20612b9b565b5b828204905092915050565b7f5f00000000000000000000000000000000000000000000000000000000000000815250565b6000612c5e82846123fc565b9150612c6982612c2c565b60018201915081905092915050565b6000612c8482856123fc565b9150612c9082846123fc565b91508190509392505050565b7f4e487b7100000000000000000000000000000000000000000000000000000000600052603260045260246000fd5b6000612cd682611a26565b9150612ce183611a26565b9250828203905081811115612cf957612cf8612a9d565b5b9291505056fea2646970667358221220e19944410a2f59f7587a1205795cce9543bf961fb3da6ecd7de254c1c8aeef0f64736f6c63430008110033",
  "immutableReferences": {},
  "source": "// SPDX-License-Identifier: MIT\r\npragma solidity ^0.8.17;\r\ncontract TrafficJamPrediction {\r\n\r\n    enum RoadType{\r\n        Expressway,\r\n        NationalHighway,\r\n        StateHighway,\r\n        MajorDistrictRoad,\r\n        OtherDistrictRoad,\r\n        RuralRoad\r\n    }\r\n\r\n    enum RoadCondition{\r\n        Smooth,\r\n        Moderate,\r\n        Poor,\r\n        ExtremelyBad\r\n    }\r\n\r\n    enum RoadEvent{\r\n        Construction,\r\n        Accident,\r\n        Barricades,\r\n        TollBooth,\r\n        DemonstrationsOrProtests,\r\n        Marathon,\r\n        Others\r\n    }\r\n\r\n    struct Location {\r\n        int256 latitude;\r\n        int256 longitude;\r\n    }\r\n\r\n    struct Incident {\r\n        Location location;\r\n        string roadId;\r\n        RoadType roadType;\r\n        RoadCondition roadCondition;\r\n        RoadEvent roadEvent;\r\n        uint day;\r\n        uint timeslot;\r\n        address firstUser;\r\n        uint confirmNumber;\r\n    }\r\n\r\n    mapping(address => bool) public accounts;\r\n    mapping(string => Incident) public incidents;\r\n    mapping(string => bool) public incidentExist;\r\n    mapping(string => mapping(address => bool)) public incidentConfirm;\r\n\r\n    uint public incidentCount;\r\n    uint256 public tokenReward;\r\n    uint256 public minimunTokenGetProbability;\r\n\r\n\r\n    event IncidentShared(string indexed incidentHash, Incident incident);\r\n    event IncidentConfirm(string indexed incidentHash, address user);\r\n\r\n    constructor () {\r\n        incidentCount = 0;\r\n        tokenReward = 2 ether;\r\n        minimunTokenGetProbability = 1 ether;\r\n    }\r\n\r\n    function donate() external payable  {\r\n    }\r\n\r\n    function createAccount() external {\r\n        require(!accounts[msg.sender], \"Account already exists\");\r\n        accounts[msg.sender] = true;\r\n    }\r\n\r\n    function shareIncident(\r\n        int256 _latitude,\r\n        int256 _longitude,\r\n        string memory _roadId,\r\n        RoadType _roadType,\r\n        RoadCondition _roadCondition,\r\n        RoadEvent _event,\r\n        uint256 _timestamp\r\n    ) external payable returns(Incident memory incident){\r\n        require(accounts[msg.sender], \"Account does not exist\");\r\n\r\n        uint256 timestamp = _timestamp == 0 ? block.timestamp : _timestamp;\r\n\r\n        uint _timeslot = calculateTimeslot(timestamp);\r\n        uint _day = calculateDay(timestamp);\r\n        \r\n        string memory iHash = incidentHash(_roadId, _day, _timeslot);\r\n\r\n        require(incidentConfirm[iHash][msg.sender] == false, \"You already share this incident\");\r\n        //TODO: Check unique incident\r\n        if (!incidentExist[iHash]) {\r\n            incidents[iHash] = Incident({\r\n                location: Location({\r\n                    latitude: _latitude,\r\n                    longitude: _longitude\r\n                }),\r\n                roadId: _roadId,\r\n                roadType: _roadType,\r\n                roadCondition: _roadCondition,\r\n                roadEvent: _event,\r\n                day: _day,\r\n                timeslot: _timeslot,\r\n                firstUser: msg.sender,\r\n                confirmNumber: 0\r\n            });\r\n            incidentExist[iHash] = true;\r\n            incidentConfirm[iHash][msg.sender] = true;\r\n            emit IncidentShared(iHash, incidents[iHash]);\r\n        }\r\n        else{\r\n            incidents[iHash].confirmNumber++;\r\n            incidentConfirm[iHash][msg.sender] = true;\r\n            if (incidents[iHash].confirmNumber == 1){\r\n                address payable firstUser = payable(incidents[iHash].firstUser);\r\n                firstUser.transfer(tokenReward);\r\n            }\r\n            emit IncidentConfirm(iHash, msg.sender);\r\n        }\r\n\r\n        return incidents[iHash];\r\n    }\r\n\r\n    function getIncident(string memory iHash)\r\n        public  \r\n        view\r\n        returns (Incident memory incident)\r\n    {\r\n        require(accounts[msg.sender], \"Account does not exist\");\r\n        incident = incidents[iHash];\r\n        return incident;\r\n    }\r\n\r\n    function getTrafficJamIncident(\r\n        string memory _roadId,\r\n        uint256 _timestamp\r\n        )\r\n        external\r\n        payable\r\n        returns (Incident memory incident)\r\n    {\r\n        require(accounts[msg.sender], \"Account does not exist\");\r\n        require(msg.value >= minimunTokenGetProbability, \"Insufficient Ether sent\");\r\n\r\n        uint256 timestamp = _timestamp == 0 ? block.timestamp : _timestamp;\r\n        uint _timeslot = calculateTimeslot(timestamp);\r\n        uint _day = calculateDay(timestamp);\r\n\r\n        string memory iHash = incidentHash(_roadId, _day, _timeslot);\r\n        return getIncident(iHash);\r\n    }\r\n\r\n    function incidentHash(\r\n        string memory _roadId,\r\n        uint _day,\r\n        uint _timeslot\r\n    ) internal pure returns (string memory iHash)\r\n    {\r\n        iHash = _roadId;\r\n        iHash = string.concat(iHash, \"_\");\r\n        iHash = string.concat(iHash, uintToString(_timeslot));\r\n        iHash = string.concat(iHash, \"_\");\r\n        iHash = string.concat(iHash, uintToString(_day));\r\n    }\r\n\r\n    uint256 constant TIMESLOT_DURATION = 30 minutes;\r\n\r\n    function calculateTimeslot(uint256 _timestamp) internal pure returns (uint) {\r\n        uint256 secondsInDay = 24 hours;\r\n        uint256 secondsSinceMidnight = _timestamp % secondsInDay;\r\n        uint256 timeslot = secondsSinceMidnight / TIMESLOT_DURATION;\r\n        return timeslot;\r\n    }\r\n\r\n    function calculateDay(uint256 _timestamp) internal pure returns (uint) {\r\n        uint256 secondsInDay = 24 hours;\r\n        return _timestamp / secondsInDay;\r\n    }\r\n\r\n    function uintToString(uint v) internal pure returns (string memory str) {\r\n        uint maxlength = 100;\r\n        bytes memory reversed = new bytes(maxlength);\r\n        uint i = 0;\r\n        while (v != 0) {\r\n            uint remainder = v % 10;\r\n            v = v / 10;\r\n            if (remainder == 0){\r\n                reversed[i++] = '0';\r\n            }\r\n            else if (remainder == 1){\r\n                reversed[i++] = '1';\r\n            }\r\n            else if (remainder == 2){\r\n                reversed[i++] = '2';\r\n            }\r\n            else if (remainder == 3){\r\n                reversed[i++] = '3';\r\n            }\r\n            else if (remainder == 4){\r\n                reversed[i++] = '4';\r\n            }\r\n            else if (remainder == 5){\r\n                reversed[i++] = '5';\r\n            }\r\n            else if (remainder == 6){\r\n                reversed[i++] = '6';\r\n            }\r\n            else if (remainder == 7){\r\n                reversed[i++] = '7';\r\n            }\r\n            else if (remainder == 8){\r\n                reversed[i++] = '8';\r\n            }\r\n            else if (remainder == 9){\r\n                reversed[i++] = '9';\r\n            }\r\n        }\r\n        bytes memory s = new bytes(i);\r\n        for (uint j = 0; j < i; j++) {\r\n            s[j] = reversed[i - 1 - j];\r\n        }\r\n        str = string(s);\r\n    }\r\n}",
  "sourcePath": "C:\\Users\\WBPC.VN\\PycharmProjects\\traffic-jam-prediction\\contracts\\TrafficJamPrediction.sol",
  "compiler": {
    "name": "solc",
    "version": "0.8.17+commit.8df45f5f.Emscripten.clang"
  },
  "schemaVersion": "3.4.14",
  "updatedAt": "2023-07-22T15:44:31.667Z",
  "networkType": "ethereum",
  "devdoc": {
    "kind": "dev",
    "methods": {},
    "version": 1
  },
  "userdoc": {
    "kind": "user",
    "methods": {},
    "version": 1
  }
}